{
    "contractName": "CriminalDataSender",
    "abi": [
        {
            "inputs": [],
            "name": "DataCount",
            "outputs": [
                {
                    "internalType": "uint256",
                    "name": "",
                    "type": "uint256"
                }
            ],
            "stateMutability": "view",
            "type": "function"
        }
    ],
    "bytecode": "608060405260008055348015601357600080fd5b50607d806100226000396000f3fe6080604052348015600f57600080fd5b506004361060285760003560e01c806330e6e05c14602d575b600080fd5b603560005481565b60405190815260200160405180910390f3fea26469706673582212208f282327c35afd32f06335d99a43986d5d97031c31fb25c4a1090821e5cfcb7d64736f6c63430008080033",
    "sourcePath": "/home/rogue/Desktop/FYP/THE-FYP/Block-Chain/contracts/CriminalDataSender.sol",
    "compiler": {
        "name": "solc",
        "version": "0.8.8+commit.dddeac2f"
    },
    "functionHashes": {
        "DataCount()": "30e6e05c"
    },
    "gasEstimates": {
        "creation": {
            "codeDepositCost": "25000",
            "executionCost": "5081",
            "totalCost": "30081"
        },
        "external": {
            "DataCount()": "2261"
        }
    }
}