{
    "contractName": "CriminalDataSender",
    "abi": [
        {
            "inputs": [],
            "stateMutability": "nonpayable",
            "type": "constructor"
        },
        {
            "inputs": [
                {
                    "internalType": "string",
                    "name": "_name",
                    "type": "string"
                },
                {
                    "internalType": "uint256",
                    "name": "_id",
                    "type": "uint256"
                },
                {
                    "internalType": "uint256",
                    "name": "_cnic",
                    "type": "uint256"
                }
            ],
            "name": "CreateEntity",
            "outputs": [],
            "stateMutability": "nonpayable",
            "type": "function"
        },
        {
            "inputs": [
                {
                    "internalType": "uint256",
                    "name": "",
                    "type": "uint256"
                }
            ],
            "name": "criminalData",
            "outputs": [
                {
                    "internalType": "string",
                    "name": "name",
                    "type": "string"
                },
                {
                    "internalType": "uint256",
                    "name": "id",
                    "type": "uint256"
                },
                {
                    "internalType": "uint256",
                    "name": "cnic",
                    "type": "uint256"
                },
                {
                    "internalType": "uint256",
                    "name": "timeStamp",
                    "type": "uint256"
                },
                {
                    "internalType": "bool",
                    "name": "compleated",
                    "type": "bool"
                }
            ],
            "stateMutability": "view",
            "type": "function"
        },
        {
            "inputs": [],
            "name": "getAllCriminals",
            "outputs": [
                {
                    "components": [
                        {
                            "internalType": "string",
                            "name": "name",
                            "type": "string"
                        },
                        {
                            "internalType": "uint256",
                            "name": "id",
                            "type": "uint256"
                        },
                        {
                            "internalType": "uint256",
                            "name": "cnic",
                            "type": "uint256"
                        },
                        {
                            "internalType": "uint256",
                            "name": "timeStamp",
                            "type": "uint256"
                        },
                        {
                            "internalType": "bool",
                            "name": "compleated",
                            "type": "bool"
                        }
                    ],
                    "internalType": "struct CriminalDataSender.Entity[]",
                    "name": "",
                    "type": "tuple[]"
                }
            ],
            "stateMutability": "view",
            "type": "function"
        },
        {
            "inputs": [
                {
                    "internalType": "uint256",
                    "name": "_id",
                    "type": "uint256"
                }
            ],
            "name": "getEntity",
            "outputs": [
                {
                    "components": [
                        {
                            "internalType": "string",
                            "name": "name",
                            "type": "string"
                        },
                        {
                            "internalType": "uint256",
                            "name": "id",
                            "type": "uint256"
                        },
                        {
                            "internalType": "uint256",
                            "name": "cnic",
                            "type": "uint256"
                        },
                        {
                            "internalType": "uint256",
                            "name": "timeStamp",
                            "type": "uint256"
                        },
                        {
                            "internalType": "bool",
                            "name": "compleated",
                            "type": "bool"
                        }
                    ],
                    "internalType": "struct CriminalDataSender.Entity[]",
                    "name": "",
                    "type": "tuple[]"
                }
            ],
            "stateMutability": "view",
            "type": "function"
        },
        {
            "inputs": [],
            "name": "owner",
            "outputs": [
                {
                    "internalType": "address",
                    "name": "",
                    "type": "address"
                }
            ],
            "stateMutability": "view",
            "type": "function"
        }
    ],
    "bytecode": "60a06040525f60015560016002553480156017575f80fd5b503360805260805161097e6100415f395f8181608b015281816101c601526103ea015261097e5ff3fe608060405234801561000f575f80fd5b5060043610610055575f3560e01c8063317cd3ce146100595780638da5cb5b14610086578063b3a27842146100c5578063bd092f87146100e5578063eb15d674146100fa575b5f80fd5b61006c6100673660046105e7565b610102565b60405161007d95949392919061062c565b60405180910390f35b6100ad7f000000000000000000000000000000000000000000000000000000000000000081565b6040516001600160a01b03909116815260200161007d565b6100d86100d33660046105e7565b6101b9565b60405161007d9190610664565b6100f86100f336600461070f565b610345565b005b6100d86103dd565b5f6020819052908152604090208054819061011c906107cc565b80601f0160208091040260200160405190810160405280929190818152602001828054610148906107cc565b80156101935780601f1061016a57610100808354040283529160200191610193565b820191905f5260205f20905b81548152906001019060200180831161017657829003601f168201915b505050506001830154600284015460038501546004909501549394919390925060ff1685565b6060336001600160a01b037f000000000000000000000000000000000000000000000000000000000000000016146101ef575f80fd5b6040805160018082528183019092525f91816020015b6102356040518060a00160405280606081526020015f81526020015f81526020015f81526020015f151581525090565b8152602001906001900390816102055790505090505f808481526020019081526020015f206040518060a00160405290815f82018054610274906107cc565b80601f01602080910402602001604051908101604052809291908181526020018280546102a0906107cc565b80156102eb5780601f106102c2576101008083540402835291602001916102eb565b820191905f5260205f20905b8154815290600101906020018083116102ce57829003601f168201915b505050918352505060018201546020820152600282015460408201526003820154606082015260049091015460ff161515608090910152815182905f9061033457610334610804565b602090810291909101015292915050565b6040805160a08101825284815260208082018590528183018490524260608301525f6080830181905260015481529081905291909120815181906103899082610864565b50602082015160018281019190915560408301516002830155606083015160038301556080909201516004909101805460ff19169115159190911790558054905f6103d383610924565b9190505550505050565b6060336001600160a01b037f00000000000000000000000000000000000000000000000000000000000000001614610413575f80fd5b6002545f036104595760405162461bcd60e51b815260206004820152600e60248201526d19185d18481b9bdd08199bdd5b9960921b604482015260640160405180910390fd5b5f60025467ffffffffffffffff811115610475576104756106fb565b6040519080825280602002602001820160405280156104d657816020015b6104c36040518060a00160405280606081526020015f81526020015f81526020015f81526020015f151581525090565b8152602001906001900390816104935790505b5090505f5b6002548110156105e1575f8181526020819052604090819020815160a0810190925280548290829061050c906107cc565b80601f0160208091040260200160405190810160405280929190818152602001828054610538906107cc565b80156105835780601f1061055a57610100808354040283529160200191610583565b820191905f5260205f20905b81548152906001019060200180831161056657829003601f168201915b505050918352505060018201546020820152600282015460408201526003820154606082015260049091015460ff16151560809091015282518390839081106105ce576105ce610804565b60209081029190910101526001016104db565b50905090565b5f602082840312156105f7575f80fd5b5035919050565b5f81518084528060208401602086015e5f602082860101526020601f19601f83011685010191505092915050565b60a081525f61063e60a08301886105fe565b905085602083015284604083015283606083015282151560808301529695505050505050565b5f60208083018184528085518083526040925060408601915060408160051b8701018488015f5b838110156106ed57603f19898403018552815160a081518186526106b1828701826105fe565b838b0151878c0152898401518a88015260608085015190880152608093840151151593909601929092525050938601939086019060010161068b565b509098975050505050505050565b634e487b7160e01b5f52604160045260245ffd5b5f805f60608486031215610721575f80fd5b833567ffffffffffffffff80821115610738575f80fd5b818601915086601f83011261074b575f80fd5b81358181111561075d5761075d6106fb565b604051601f8201601f19908116603f01168101908382118183101715610785576107856106fb565b8160405282815289602084870101111561079d575f80fd5b826020860160208301375f60208483010152809750505050505060208401359150604084013590509250925092565b600181811c908216806107e057607f821691505b6020821081036107fe57634e487b7160e01b5f52602260045260245ffd5b50919050565b634e487b7160e01b5f52603260045260245ffd5b601f82111561085f57805f5260205f20601f840160051c8101602085101561083d5750805b601f840160051c820191505b8181101561085c575f8155600101610849565b50505b505050565b815167ffffffffffffffff81111561087e5761087e6106fb565b6108928161088c84546107cc565b84610818565b602080601f8311600181146108c5575f84156108ae5750858301515b5f19600386901b1c1916600185901b17855561091c565b5f85815260208120601f198616915b828110156108f3578886015182559484019460019091019084016108d4565b508582101561091057878501515f19600388901b60f8161c191681555b505060018460011b0185555b505050505050565b5f6001820161094157634e487b7160e01b5f52601160045260245ffd5b506001019056fea264697066735822122013b8409a44e2a6b8416c71ec4a294bcda053e72564e30dbb7470eda5e6b844e764736f6c63430008190033",
    "sourcePath": "/home/rogue/Desktop/FYP/THE-FYP/Block-Chain/contracts/CriminalDataSender.sol",
    "compiler": {
        "name": "solc",
        "version": "0.8.25+commit.b61c2a91"
    },
    "functionHashes": {
        "CreateEntity(string,uint256,uint256)": "bd092f87",
        "criminalData(uint256)": "317cd3ce",
        "getAllCriminals()": "eb15d674",
        "getEntity(uint256)": "b3a27842",
        "owner()": "8da5cb5b"
    },
    "gasEstimates": {
        "creation": {
            "codeDepositCost": "486000",
            "executionCost": "infinite",
            "totalCost": "infinite"
        },
        "external": {
            "CreateEntity(string,uint256,uint256)": "infinite",
            "criminalData(uint256)": "infinite",
            "getAllCriminals()": "infinite",
            "getEntity(uint256)": "infinite",
            "owner()": "infinite"
        }
    }
}