{
	"data": {
		"bytecode": {
			"linkReferences": {},
			"object": "60a06040526000600360006101000a81548163ffffffff021916908363ffffffff16021790555034801561003257600080fd5b503373ffffffffffffffffffffffffffffffffffffffff1660808173ffffffffffffffffffffffffffffffffffffffff16815250506080516120736100a5600039600081816102dd0152818161030101528181610633015281816106a6015281816109cd0152610d4a01526120736000f3fe608060405234801561001057600080fd5b50600436106100935760003560e01c8063b72af1d711610066578063b72af1d714610124578063d49ce9c814610155578063eb15d67414610185578063edc038c9146101a3578063ef50a704146101bf57610093565b8063598fc9f0146100985780638da5cb5b146100cc578063b087814d146100ea578063b6ba75ce14610106575b600080fd5b6100b260048036038101906100ad9190611225565b6101ef565b6040516100c395949392919061139e565b60405180910390f35b6100d46102db565b6040516100e19190611439565b60405180910390f35b61010460048036038101906100ff91906115da565b6102ff565b005b61010e610684565b60405161011b919061167c565b60405180910390f35b61013e60048036038101906101399190611225565b61069a565b60405161014c929190611793565b60405180910390f35b61016f600480360381019061016a91906117f6565b61098c565b60405161017c9190611823565b60405180910390f35b61018d6109c9565b60405161019a9190611976565b60405180910390f35b6101bd60048036038101906101b89190611225565b610d48565b005b6101d960048036038101906101d49190611225565b611101565b6040516101e69190611823565b60405180910390f35b6000602052806000526040600020600091509050806000018054610212906119c7565b80601f016020809104026020016040519081016040528092919081815260200182805461023e906119c7565b801561028b5780601f106102605761010080835404028352916020019161028b565b820191906000526020600020905b81548152906001019060200180831161026e57829003601f168201915b5050505050908060010160009054906101000a900461ffff16908060010160029054906101000a900466ffffffffffffff16908060010160099054906101000a900460ff16908060020154905085565b7f000000000000000000000000000000000000000000000000000000000000000081565b7f000000000000000000000000000000000000000000000000000000000000000073ffffffffffffffffffffffffffffffffffffffff163373ffffffffffffffffffffffffffffffffffffffff161461038d576040517f08c379a000000000000000000000000000000000000000000000000000000000815260040161038490611a6a565b60405180910390fd5b60008361ffff16036103d4576040517f08c379a00000000000000000000000000000000000000000000000000000000081526004016103cb90611ad6565b60405180910390fd5b60008266ffffffffffffff1603610420576040517f08c379a000000000000000000000000000000000000000000000000000000000815260040161041790611b42565b60405180910390fd5b6040518060a001604052808581526020018461ffff1681526020018366ffffffffffffff16815260200182600281111561045d5761045c61130e565b5b8152602001428152506000808561ffff1666ffffffffffffff168152602001908152602001600020600082015181600001908161049a9190611d0e565b5060208201518160010160006101000a81548161ffff021916908361ffff16021790555060408201518160010160026101000a81548166ffffffffffffff021916908366ffffffffffffff16021790555060608201518160010160096101000a81548160ff021916908360028111156105165761051561130e565b5b0217905550608082015181600201559050508261ffff16600160008466ffffffffffffff1666ffffffffffffff16815260200190815260200160002060006101000a81548166ffffffffffffff021916908366ffffffffffffff1602179055506002839080600181540180825580915050600190039060005260206000209060049182820401919006600702909161ffff16909190916101000a81548166ffffffffffffff021916908366ffffffffffffff1602179055506003600081819054906101000a900463ffffffff16809291906105f090611e0f565b91906101000a81548163ffffffff021916908363ffffffff160217905550507faad7bfa66faa5034cf2e2b30b29b8780f3044e6be79aafcbb10d9be50bfd8344837f000000000000000000000000000000000000000000000000000000000000000083600360009054906101000a900463ffffffff166040516106769493929190611e3b565b60405180910390a150505050565b600360009054906101000a900463ffffffff1681565b6106a2611127565b60607f000000000000000000000000000000000000000000000000000000000000000073ffffffffffffffffffffffffffffffffffffffff163373ffffffffffffffffffffffffffffffffffffffff1614610732576040517f08c379a000000000000000000000000000000000000000000000000000000000815260040161072990611a6a565b60405180910390fd5b6000600160008566ffffffffffffff1666ffffffffffffff16815260200190815260200160002060009054906101000a900466ffffffffffffff16905060008166ffffffffffffff1603610819576040518060a00160405280604051806020016040528060008152508152602001600061ffff168152602001600066ffffffffffffff168152602001600060028111156107cf576107ce61130e565b5b815260200160008152506040518060400160405280601781526020017f4372696d696e616c2064617461206e6f7420666f756e640000000000000000008152509250925050610987565b6000808266ffffffffffffff1666ffffffffffffff168152602001908152602001600020806040518060a0016040529081600082018054610859906119c7565b80601f0160208091040260200160405190810160405280929190818152602001828054610885906119c7565b80156108d25780601f106108a7576101008083540402835291602001916108d2565b820191906000526020600020905b8154815290600101906020018083116108b557829003601f168201915b505050505081526020016001820160009054906101000a900461ffff1661ffff1661ffff1681526020016001820160029054906101000a900466ffffffffffffff1666ffffffffffffff1666ffffffffffffff1681526020016001820160099054906101000a900460ff16600281111561094f5761094e61130e565b5b60028111156109615761096061130e565b5b815260200160028201548152505090506040518060200160405280600081525092509250505b915091565b6002818154811061099c57600080fd5b9060005260206000209060049182820401919006600702915054906101000a900466ffffffffffffff1681565b60607f000000000000000000000000000000000000000000000000000000000000000073ffffffffffffffffffffffffffffffffffffffff163373ffffffffffffffffffffffffffffffffffffffff1614610a59576040517f08c379a0000000000000000000000000000000000000000000000000000000008152600401610a5090611a6a565b60405180910390fd5b600060028054905011610aa1576040517f08c379a0000000000000000000000000000000000000000000000000000000008152600401610a9890611ecc565b60405180910390fd5b600060028054905067ffffffffffffffff811115610ac257610ac161145e565b5b604051908082528060200260200182016040528015610afb57816020015b610ae8611127565b815260200190600190039081610ae05790505b5090506000805b6002805490508161ffff161015610d3357600060028261ffff1681548110610b2d57610b2c611eec565b5b90600052602060002090600491828204019190066007029054906101000a900466ffffffffffffff16905060008060008366ffffffffffffff1666ffffffffffffff16815260200190815260200160002060010160009054906101000a900461ffff1661ffff1614610d1f576000808266ffffffffffffff1666ffffffffffffff1681526020019081526020016000206040518060a0016040529081600082018054610bd8906119c7565b80601f0160208091040260200160405190810160405280929190818152602001828054610c04906119c7565b8015610c515780601f10610c2657610100808354040283529160200191610c51565b820191906000526020600020905b815481529060010190602001808311610c3457829003601f168201915b505050505081526020016001820160009054906101000a900461ffff1661ffff1661ffff1681526020016001820160029054906101000a900466ffffffffffffff1666ffffffffffffff1666ffffffffffffff1681526020016001820160099054906101000a900460ff166002811115610cce57610ccd61130e565b5b6002811115610ce057610cdf61130e565b5b8152602001600282015481525050848461ffff1681518110610d0557610d04611eec565b5b60200260200101819052508280610d1b90611f1b565b9350505b508080610d2b90611f1b565b915050610b02565b50606060208202830151905082935050505090565b7f000000000000000000000000000000000000000000000000000000000000000073ffffffffffffffffffffffffffffffffffffffff163373ffffffffffffffffffffffffffffffffffffffff1614610dd6576040517f08c379a0000000000000000000000000000000000000000000000000000000008152600401610dcd90611a6a565b60405180910390fd5b6000600160008366ffffffffffffff1666ffffffffffffff16815260200190815260200160002060009054906101000a900466ffffffffffffff16905060008166ffffffffffffff1603610e5f576040517f08c379a0000000000000000000000000000000000000000000000000000000008152600401610e5690611f91565b60405180910390fd5b60005b6002805490508161ffff161015610fc8578166ffffffffffffff1660028261ffff1681548110610e9557610e94611eec565b5b90600052602060002090600491828204019190066007029054906101000a900466ffffffffffffff1666ffffffffffffff1603610fb55760026001600280549050610ee09190611fb1565b81548110610ef157610ef0611eec565b5b90600052602060002090600491828204019190066007029054906101000a900466ffffffffffffff1660028261ffff1681548110610f3257610f31611eec565b5b90600052602060002090600491828204019190066007026101000a81548166ffffffffffffff021916908366ffffffffffffff1602179055506002805480610f7d57610f7c611fe5565b5b60019003818190600052602060002090600491828204019190066007026101000a81549066ffffffffffffff02191690559055610fc8565b8080610fc090611f1b565b915050610e62565b508166ffffffffffffff167f658bab0399a2a605a3f14e6b6c747a1d1a5cf4fbef0f8178a81a85646a81554c60405160405180910390a26000808266ffffffffffffff1666ffffffffffffff168152602001908152602001600020600080820160006110349190611175565b6001820160006101000a81549061ffff02191690556001820160026101000a81549066ffffffffffffff02191690556001820160096101000a81549060ff021916905560028201600090555050600160008366ffffffffffffff1666ffffffffffffff16815260200190815260200160002060006101000a81549066ffffffffffffff02191690556003600081819054906101000a900463ffffffff16809291906110de90612014565b91906101000a81548163ffffffff021916908363ffffffff160217905550505050565b60016020528060005260406000206000915054906101000a900466ffffffffffffff1681565b6040518060a0016040528060608152602001600061ffff168152602001600066ffffffffffffff168152602001600060028111156111685761116761130e565b5b8152602001600081525090565b508054611181906119c7565b6000825580601f1061119357506111b2565b601f0160209004906000526020600020908101906111b191906111b5565b5b50565b5b808211156111ce5760008160009055506001016111b6565b5090565b6000604051905090565b600080fd5b600080fd5b600066ffffffffffffff82169050919050565b611202816111e6565b811461120d57600080fd5b50565b60008135905061121f816111f9565b92915050565b60006020828403121561123b5761123a6111dc565b5b600061124984828501611210565b91505092915050565b600081519050919050565b600082825260208201905092915050565b60005b8381101561128c578082015181840152602081019050611271565b60008484015250505050565b6000601f19601f8301169050919050565b60006112b482611252565b6112be818561125d565b93506112ce81856020860161126e565b6112d781611298565b840191505092915050565b600061ffff82169050919050565b6112f9816112e2565b82525050565b611308816111e6565b82525050565b7f4e487b7100000000000000000000000000000000000000000000000000000000600052602160045260246000fd5b6003811061134e5761134d61130e565b5b50565b600081905061135f8261133d565b919050565b600061136f82611351565b9050919050565b61137f81611364565b82525050565b6000819050919050565b61139881611385565b82525050565b600060a08201905081810360008301526113b881886112a9565b90506113c760208301876112f0565b6113d460408301866112ff565b6113e16060830185611376565b6113ee608083018461138f565b9695505050505050565b600073ffffffffffffffffffffffffffffffffffffffff82169050919050565b6000611423826113f8565b9050919050565b61143381611418565b82525050565b600060208201905061144e600083018461142a565b92915050565b600080fd5b600080fd5b7f4e487b7100000000000000000000000000000000000000000000000000000000600052604160045260246000fd5b61149682611298565b810181811067ffffffffffffffff821117156114b5576114b461145e565b5b80604052505050565b60006114c86111d2565b90506114d4828261148d565b919050565b600067ffffffffffffffff8211156114f4576114f361145e565b5b6114fd82611298565b9050602081019050919050565b82818337600083830152505050565b600061152c611527846114d9565b6114be565b90508281526020810184848401111561154857611547611459565b5b61155384828561150a565b509392505050565b600082601f8301126115705761156f611454565b5b8135611580848260208601611519565b91505092915050565b611592816112e2565b811461159d57600080fd5b50565b6000813590506115af81611589565b92915050565b600381106115c257600080fd5b50565b6000813590506115d4816115b5565b92915050565b600080600080608085870312156115f4576115f36111dc565b5b600085013567ffffffffffffffff811115611612576116116111e1565b5b61161e8782880161155b565b945050602061162f878288016115a0565b935050604061164087828801611210565b9250506060611651878288016115c5565b91505092959194509250565b600063ffffffff82169050919050565b6116768161165d565b82525050565b6000602082019050611691600083018461166d565b92915050565b600082825260208201905092915050565b60006116b382611252565b6116bd8185611697565b93506116cd81856020860161126e565b6116d681611298565b840191505092915050565b6116ea816112e2565b82525050565b6116f9816111e6565b82525050565b61170881611364565b82525050565b61171781611385565b82525050565b600060a083016000830151848203600086015261173a82826116a8565b915050602083015161174f60208601826116e1565b50604083015161176260408601826116f0565b50606083015161177560608601826116ff565b506080830151611788608086018261170e565b508091505092915050565b600060408201905081810360008301526117ad818561171d565b905081810360208301526117c181846112a9565b90509392505050565b6117d381611385565b81146117de57600080fd5b50565b6000813590506117f0816117ca565b92915050565b60006020828403121561180c5761180b6111dc565b5b600061181a848285016117e1565b91505092915050565b600060208201905061183860008301846112ff565b92915050565b600081519050919050565b600082825260208201905092915050565b6000819050602082019050919050565b600060a083016000830151848203600086015261188782826116a8565b915050602083015161189c60208601826116e1565b5060408301516118af60408601826116f0565b5060608301516118c260608601826116ff565b5060808301516118d5608086018261170e565b508091505092915050565b60006118ec838361186a565b905092915050565b6000602082019050919050565b600061190c8261183e565b6119168185611849565b9350836020820285016119288561185a565b8060005b85811015611964578484038952815161194585826118e0565b9450611950836118f4565b925060208a0199505060018101905061192c565b50829750879550505050505092915050565b600060208201905081810360008301526119908184611901565b905092915050565b7f4e487b7100000000000000000000000000000000000000000000000000000000600052602260045260246000fd5b600060028204905060018216806119df57607f821691505b6020821081036119f2576119f1611998565b5b50919050565b7f4163636573732064656e6965643a204f6e6c79206f776e65722063616e20636160008201527f6c6c20746869732066756e6374696f6e00000000000000000000000000000000602082015250565b6000611a5460308361125d565b9150611a5f826119f8565b604082019050919050565b60006020820190508181036000830152611a8381611a47565b9050919050565b7f496e76616c696420494400000000000000000000000000000000000000000000600082015250565b6000611ac0600a8361125d565b9150611acb82611a8a565b602082019050919050565b60006020820190508181036000830152611aef81611ab3565b9050919050565b7f496e76616c696420434e49430000000000000000000000000000000000000000600082015250565b6000611b2c600c8361125d565b9150611b3782611af6565b602082019050919050565b60006020820190508181036000830152611b5b81611b1f565b9050919050565b60008190508160005260206000209050919050565b60006020601f8301049050919050565b600082821b905092915050565b600060088302611bc47fffffffffffffffffffffffffffffffffffffffffffffffffffffffffffffffff82611b87565b611bce8683611b87565b95508019841693508086168417925050509392505050565b6000819050919050565b6000611c0b611c06611c0184611385565b611be6565b611385565b9050919050565b6000819050919050565b611c2583611bf0565b611c39611c3182611c12565b848454611b94565b825550505050565b600090565b611c4e611c41565b611c59818484611c1c565b505050565b5b81811015611c7d57611c72600082611c46565b600181019050611c5f565b5050565b601f821115611cc257611c9381611b62565b611c9c84611b77565b81016020851015611cab578190505b611cbf611cb785611b77565b830182611c5e565b50505b505050565b600082821c905092915050565b6000611ce560001984600802611cc7565b1980831691505092915050565b6000611cfe8383611cd4565b9150826002028217905092915050565b611d1782611252565b67ffffffffffffffff811115611d3057611d2f61145e565b5b611d3a82546119c7565b611d45828285611c81565b600060209050601f831160018114611d785760008415611d66578287015190505b611d708582611cf2565b865550611dd8565b601f198416611d8686611b62565b60005b82811015611dae57848901518255600182019150602085019450602081019050611d89565b86831015611dcb5784890151611dc7601f891682611cd4565b8355505b6001600288020188555050505b505050505050565b7f4e487b7100000000000000000000000000000000000000000000000000000000600052601160045260246000fd5b6000611e1a8261165d565b915063ffffffff8203611e3057611e2f611de0565b5b600182019050919050565b6000608082019050611e5060008301876112f0565b611e5d602083018661142a565b611e6a6040830185611376565b611e77606083018461166d565b95945050505050565b7f4e6f206372696d696e616c206461746120617661696c61626c65000000000000600082015250565b6000611eb6601a8361125d565b9150611ec182611e80565b602082019050919050565b60006020820190508181036000830152611ee581611ea9565b9050919050565b7f4e487b7100000000000000000000000000000000000000000000000000000000600052603260045260246000fd5b6000611f26826112e2565b915061ffff8203611f3a57611f39611de0565b5b600182019050919050565b7f4372696d696e616c2064617461206e6f7420666f756e64000000000000000000600082015250565b6000611f7b60178361125d565b9150611f8682611f45565b602082019050919050565b60006020820190508181036000830152611faa81611f6e565b9050919050565b6000611fbc82611385565b9150611fc783611385565b9250828203905081811115611fdf57611fde611de0565b5b92915050565b7f4e487b7100000000000000000000000000000000000000000000000000000000600052603160045260246000fd5b600061201f8261165d565b91506000820361203257612031611de0565b5b60018203905091905056fea2646970667358221220ff9090f98dc276ec3fc7b772c9020f60c57a9860ba93fb9b63cd1484ca0875e664736f6c63430008130033",
			"opcodes": "PUSH1 0xA0 PUSH1 0x40 MSTORE PUSH1 0x0 PUSH1 0x3 PUSH1 0x0 PUSH2 0x100 EXP DUP2 SLOAD DUP2 PUSH4 0xFFFFFFFF MUL NOT AND SWAP1 DUP4 PUSH4 0xFFFFFFFF AND MUL OR SWAP1 SSTORE POP CALLVALUE DUP1 ISZERO PUSH2 0x32 JUMPI PUSH1 0x0 DUP1 REVERT JUMPDEST POP CALLER PUSH20 0xFFFFFFFFFFFFFFFFFFFFFFFFFFFFFFFFFFFFFFFF AND PUSH1 0x80 DUP2 PUSH20 0xFFFFFFFFFFFFFFFFFFFFFFFFFFFFFFFFFFFFFFFF AND DUP2 MSTORE POP POP PUSH1 0x80 MLOAD PUSH2 0x2073 PUSH2 0xA5 PUSH1 0x0 CODECOPY PUSH1 0x0 DUP2 DUP2 PUSH2 0x2DD ADD MSTORE DUP2 DUP2 PUSH2 0x301 ADD MSTORE DUP2 DUP2 PUSH2 0x633 ADD MSTORE DUP2 DUP2 PUSH2 0x6A6 ADD MSTORE DUP2 DUP2 PUSH2 0x9CD ADD MSTORE PUSH2 0xD4A ADD MSTORE PUSH2 0x2073 PUSH1 0x0 RETURN INVALID PUSH1 0x80 PUSH1 0x40 MSTORE CALLVALUE DUP1 ISZERO PUSH2 0x10 JUMPI PUSH1 0x0 DUP1 REVERT JUMPDEST POP PUSH1 0x4 CALLDATASIZE LT PUSH2 0x93 JUMPI PUSH1 0x0 CALLDATALOAD PUSH1 0xE0 SHR DUP1 PUSH4 0xB72AF1D7 GT PUSH2 0x66 JUMPI DUP1 PUSH4 0xB72AF1D7 EQ PUSH2 0x124 JUMPI DUP1 PUSH4 0xD49CE9C8 EQ PUSH2 0x155 JUMPI DUP1 PUSH4 0xEB15D674 EQ PUSH2 0x185 JUMPI DUP1 PUSH4 0xEDC038C9 EQ PUSH2 0x1A3 JUMPI DUP1 PUSH4 0xEF50A704 EQ PUSH2 0x1BF JUMPI PUSH2 0x93 JUMP JUMPDEST DUP1 PUSH4 0x598FC9F0 EQ PUSH2 0x98 JUMPI DUP1 PUSH4 0x8DA5CB5B EQ PUSH2 0xCC JUMPI DUP1 PUSH4 0xB087814D EQ PUSH2 0xEA JUMPI DUP1 PUSH4 0xB6BA75CE EQ PUSH2 0x106 JUMPI JUMPDEST PUSH1 0x0 DUP1 REVERT JUMPDEST PUSH2 0xB2 PUSH1 0x4 DUP1 CALLDATASIZE SUB DUP2 ADD SWAP1 PUSH2 0xAD SWAP2 SWAP1 PUSH2 0x1225 JUMP JUMPDEST PUSH2 0x1EF JUMP JUMPDEST PUSH1 0x40 MLOAD PUSH2 0xC3 SWAP6 SWAP5 SWAP4 SWAP3 SWAP2 SWAP1 PUSH2 0x139E JUMP JUMPDEST PUSH1 0x40 MLOAD DUP1 SWAP2 SUB SWAP1 RETURN JUMPDEST PUSH2 0xD4 PUSH2 0x2DB JUMP JUMPDEST PUSH1 0x40 MLOAD PUSH2 0xE1 SWAP2 SWAP1 PUSH2 0x1439 JUMP JUMPDEST PUSH1 0x40 MLOAD DUP1 SWAP2 SUB SWAP1 RETURN JUMPDEST PUSH2 0x104 PUSH1 0x4 DUP1 CALLDATASIZE SUB DUP2 ADD SWAP1 PUSH2 0xFF SWAP2 SWAP1 PUSH2 0x15DA JUMP JUMPDEST PUSH2 0x2FF JUMP JUMPDEST STOP JUMPDEST PUSH2 0x10E PUSH2 0x684 JUMP JUMPDEST PUSH1 0x40 MLOAD PUSH2 0x11B SWAP2 SWAP1 PUSH2 0x167C JUMP JUMPDEST PUSH1 0x40 MLOAD DUP1 SWAP2 SUB SWAP1 RETURN JUMPDEST PUSH2 0x13E PUSH1 0x4 DUP1 CALLDATASIZE SUB DUP2 ADD SWAP1 PUSH2 0x139 SWAP2 SWAP1 PUSH2 0x1225 JUMP JUMPDEST PUSH2 0x69A JUMP JUMPDEST PUSH1 0x40 MLOAD PUSH2 0x14C SWAP3 SWAP2 SWAP1 PUSH2 0x1793 JUMP JUMPDEST PUSH1 0x40 MLOAD DUP1 SWAP2 SUB SWAP1 RETURN JUMPDEST PUSH2 0x16F PUSH1 0x4 DUP1 CALLDATASIZE SUB DUP2 ADD SWAP1 PUSH2 0x16A SWAP2 SWAP1 PUSH2 0x17F6 JUMP JUMPDEST PUSH2 0x98C JUMP JUMPDEST PUSH1 0x40 MLOAD PUSH2 0x17C SWAP2 SWAP1 PUSH2 0x1823 JUMP JUMPDEST PUSH1 0x40 MLOAD DUP1 SWAP2 SUB SWAP1 RETURN JUMPDEST PUSH2 0x18D PUSH2 0x9C9 JUMP JUMPDEST PUSH1 0x40 MLOAD PUSH2 0x19A SWAP2 SWAP1 PUSH2 0x1976 JUMP JUMPDEST PUSH1 0x40 MLOAD DUP1 SWAP2 SUB SWAP1 RETURN JUMPDEST PUSH2 0x1BD PUSH1 0x4 DUP1 CALLDATASIZE SUB DUP2 ADD SWAP1 PUSH2 0x1B8 SWAP2 SWAP1 PUSH2 0x1225 JUMP JUMPDEST PUSH2 0xD48 JUMP JUMPDEST STOP JUMPDEST PUSH2 0x1D9 PUSH1 0x4 DUP1 CALLDATASIZE SUB DUP2 ADD SWAP1 PUSH2 0x1D4 SWAP2 SWAP1 PUSH2 0x1225 JUMP JUMPDEST PUSH2 0x1101 JUMP JUMPDEST PUSH1 0x40 MLOAD PUSH2 0x1E6 SWAP2 SWAP1 PUSH2 0x1823 JUMP JUMPDEST PUSH1 0x40 MLOAD DUP1 SWAP2 SUB SWAP1 RETURN JUMPDEST PUSH1 0x0 PUSH1 0x20 MSTORE DUP1 PUSH1 0x0 MSTORE PUSH1 0x40 PUSH1 0x0 KECCAK256 PUSH1 0x0 SWAP2 POP SWAP1 POP DUP1 PUSH1 0x0 ADD DUP1 SLOAD PUSH2 0x212 SWAP1 PUSH2 0x19C7 JUMP JUMPDEST DUP1 PUSH1 0x1F ADD PUSH1 0x20 DUP1 SWAP2 DIV MUL PUSH1 0x20 ADD PUSH1 0x40 MLOAD SWAP1 DUP2 ADD PUSH1 0x40 MSTORE DUP1 SWAP3 SWAP2 SWAP1 DUP2 DUP2 MSTORE PUSH1 0x20 ADD DUP3 DUP1 SLOAD PUSH2 0x23E SWAP1 PUSH2 0x19C7 JUMP JUMPDEST DUP1 ISZERO PUSH2 0x28B JUMPI DUP1 PUSH1 0x1F LT PUSH2 0x260 JUMPI PUSH2 0x100 DUP1 DUP4 SLOAD DIV MUL DUP4 MSTORE SWAP2 PUSH1 0x20 ADD SWAP2 PUSH2 0x28B JUMP JUMPDEST DUP3 ADD SWAP2 SWAP1 PUSH1 0x0 MSTORE PUSH1 0x20 PUSH1 0x0 KECCAK256 SWAP1 JUMPDEST DUP2 SLOAD DUP2 MSTORE SWAP1 PUSH1 0x1 ADD SWAP1 PUSH1 0x20 ADD DUP1 DUP4 GT PUSH2 0x26E JUMPI DUP3 SWAP1 SUB PUSH1 0x1F AND DUP3 ADD SWAP2 JUMPDEST POP POP POP POP POP SWAP1 DUP1 PUSH1 0x1 ADD PUSH1 0x0 SWAP1 SLOAD SWAP1 PUSH2 0x100 EXP SWAP1 DIV PUSH2 0xFFFF AND SWAP1 DUP1 PUSH1 0x1 ADD PUSH1 0x2 SWAP1 SLOAD SWAP1 PUSH2 0x100 EXP SWAP1 DIV PUSH7 0xFFFFFFFFFFFFFF AND SWAP1 DUP1 PUSH1 0x1 ADD PUSH1 0x9 SWAP1 SLOAD SWAP1 PUSH2 0x100 EXP SWAP1 DIV PUSH1 0xFF AND SWAP1 DUP1 PUSH1 0x2 ADD SLOAD SWAP1 POP DUP6 JUMP JUMPDEST PUSH32 0x0 DUP2 JUMP JUMPDEST PUSH32 0x0 PUSH20 0xFFFFFFFFFFFFFFFFFFFFFFFFFFFFFFFFFFFFFFFF AND CALLER PUSH20 0xFFFFFFFFFFFFFFFFFFFFFFFFFFFFFFFFFFFFFFFF AND EQ PUSH2 0x38D JUMPI PUSH1 0x40 MLOAD PUSH32 0x8C379A000000000000000000000000000000000000000000000000000000000 DUP2 MSTORE PUSH1 0x4 ADD PUSH2 0x384 SWAP1 PUSH2 0x1A6A JUMP JUMPDEST PUSH1 0x40 MLOAD DUP1 SWAP2 SUB SWAP1 REVERT JUMPDEST PUSH1 0x0 DUP4 PUSH2 0xFFFF AND SUB PUSH2 0x3D4 JUMPI PUSH1 0x40 MLOAD PUSH32 0x8C379A000000000000000000000000000000000000000000000000000000000 DUP2 MSTORE PUSH1 0x4 ADD PUSH2 0x3CB SWAP1 PUSH2 0x1AD6 JUMP JUMPDEST PUSH1 0x40 MLOAD DUP1 SWAP2 SUB SWAP1 REVERT JUMPDEST PUSH1 0x0 DUP3 PUSH7 0xFFFFFFFFFFFFFF AND SUB PUSH2 0x420 JUMPI PUSH1 0x40 MLOAD PUSH32 0x8C379A000000000000000000000000000000000000000000000000000000000 DUP2 MSTORE PUSH1 0x4 ADD PUSH2 0x417 SWAP1 PUSH2 0x1B42 JUMP JUMPDEST PUSH1 0x40 MLOAD DUP1 SWAP2 SUB SWAP1 REVERT JUMPDEST PUSH1 0x40 MLOAD DUP1 PUSH1 0xA0 ADD PUSH1 0x40 MSTORE DUP1 DUP6 DUP2 MSTORE PUSH1 0x20 ADD DUP5 PUSH2 0xFFFF AND DUP2 MSTORE PUSH1 0x20 ADD DUP4 PUSH7 0xFFFFFFFFFFFFFF AND DUP2 MSTORE PUSH1 0x20 ADD DUP3 PUSH1 0x2 DUP2 GT ISZERO PUSH2 0x45D JUMPI PUSH2 0x45C PUSH2 0x130E JUMP JUMPDEST JUMPDEST DUP2 MSTORE PUSH1 0x20 ADD TIMESTAMP DUP2 MSTORE POP PUSH1 0x0 DUP1 DUP6 PUSH2 0xFFFF AND PUSH7 0xFFFFFFFFFFFFFF AND DUP2 MSTORE PUSH1 0x20 ADD SWAP1 DUP2 MSTORE PUSH1 0x20 ADD PUSH1 0x0 KECCAK256 PUSH1 0x0 DUP3 ADD MLOAD DUP2 PUSH1 0x0 ADD SWAP1 DUP2 PUSH2 0x49A SWAP2 SWAP1 PUSH2 0x1D0E JUMP JUMPDEST POP PUSH1 0x20 DUP3 ADD MLOAD DUP2 PUSH1 0x1 ADD PUSH1 0x0 PUSH2 0x100 EXP DUP2 SLOAD DUP2 PUSH2 0xFFFF MUL NOT AND SWAP1 DUP4 PUSH2 0xFFFF AND MUL OR SWAP1 SSTORE POP PUSH1 0x40 DUP3 ADD MLOAD DUP2 PUSH1 0x1 ADD PUSH1 0x2 PUSH2 0x100 EXP DUP2 SLOAD DUP2 PUSH7 0xFFFFFFFFFFFFFF MUL NOT AND SWAP1 DUP4 PUSH7 0xFFFFFFFFFFFFFF AND MUL OR SWAP1 SSTORE POP PUSH1 0x60 DUP3 ADD MLOAD DUP2 PUSH1 0x1 ADD PUSH1 0x9 PUSH2 0x100 EXP DUP2 SLOAD DUP2 PUSH1 0xFF MUL NOT AND SWAP1 DUP4 PUSH1 0x2 DUP2 GT ISZERO PUSH2 0x516 JUMPI PUSH2 0x515 PUSH2 0x130E JUMP JUMPDEST JUMPDEST MUL OR SWAP1 SSTORE POP PUSH1 0x80 DUP3 ADD MLOAD DUP2 PUSH1 0x2 ADD SSTORE SWAP1 POP POP DUP3 PUSH2 0xFFFF AND PUSH1 0x1 PUSH1 0x0 DUP5 PUSH7 0xFFFFFFFFFFFFFF AND PUSH7 0xFFFFFFFFFFFFFF AND DUP2 MSTORE PUSH1 0x20 ADD SWAP1 DUP2 MSTORE PUSH1 0x20 ADD PUSH1 0x0 KECCAK256 PUSH1 0x0 PUSH2 0x100 EXP DUP2 SLOAD DUP2 PUSH7 0xFFFFFFFFFFFFFF MUL NOT AND SWAP1 DUP4 PUSH7 0xFFFFFFFFFFFFFF AND MUL OR SWAP1 SSTORE POP PUSH1 0x2 DUP4 SWAP1 DUP1 PUSH1 0x1 DUP2 SLOAD ADD DUP1 DUP3 SSTORE DUP1 SWAP2 POP POP PUSH1 0x1 SWAP1 SUB SWAP1 PUSH1 0x0 MSTORE PUSH1 0x20 PUSH1 0x0 KECCAK256 SWAP1 PUSH1 0x4 SWAP2 DUP3 DUP3 DIV ADD SWAP2 SWAP1 MOD PUSH1 0x7 MUL SWAP1 SWAP2 PUSH2 0xFFFF AND SWAP1 SWAP2 SWAP1 SWAP2 PUSH2 0x100 EXP DUP2 SLOAD DUP2 PUSH7 0xFFFFFFFFFFFFFF MUL NOT AND SWAP1 DUP4 PUSH7 0xFFFFFFFFFFFFFF AND MUL OR SWAP1 SSTORE POP PUSH1 0x3 PUSH1 0x0 DUP2 DUP2 SWAP1 SLOAD SWAP1 PUSH2 0x100 EXP SWAP1 DIV PUSH4 0xFFFFFFFF AND DUP1 SWAP3 SWAP2 SWAP1 PUSH2 0x5F0 SWAP1 PUSH2 0x1E0F JUMP JUMPDEST SWAP2 SWAP1 PUSH2 0x100 EXP DUP2 SLOAD DUP2 PUSH4 0xFFFFFFFF MUL NOT AND SWAP1 DUP4 PUSH4 0xFFFFFFFF AND MUL OR SWAP1 SSTORE POP POP PUSH32 0xAAD7BFA66FAA5034CF2E2B30B29B8780F3044E6BE79AAFCBB10D9BE50BFD8344 DUP4 PUSH32 0x0 DUP4 PUSH1 0x3 PUSH1 0x0 SWAP1 SLOAD SWAP1 PUSH2 0x100 EXP SWAP1 DIV PUSH4 0xFFFFFFFF AND PUSH1 0x40 MLOAD PUSH2 0x676 SWAP5 SWAP4 SWAP3 SWAP2 SWAP1 PUSH2 0x1E3B JUMP JUMPDEST PUSH1 0x40 MLOAD DUP1 SWAP2 SUB SWAP1 LOG1 POP POP POP POP JUMP JUMPDEST PUSH1 0x3 PUSH1 0x0 SWAP1 SLOAD SWAP1 PUSH2 0x100 EXP SWAP1 DIV PUSH4 0xFFFFFFFF AND DUP2 JUMP JUMPDEST PUSH2 0x6A2 PUSH2 0x1127 JUMP JUMPDEST PUSH1 0x60 PUSH32 0x0 PUSH20 0xFFFFFFFFFFFFFFFFFFFFFFFFFFFFFFFFFFFFFFFF AND CALLER PUSH20 0xFFFFFFFFFFFFFFFFFFFFFFFFFFFFFFFFFFFFFFFF AND EQ PUSH2 0x732 JUMPI PUSH1 0x40 MLOAD PUSH32 0x8C379A000000000000000000000000000000000000000000000000000000000 DUP2 MSTORE PUSH1 0x4 ADD PUSH2 0x729 SWAP1 PUSH2 0x1A6A JUMP JUMPDEST PUSH1 0x40 MLOAD DUP1 SWAP2 SUB SWAP1 REVERT JUMPDEST PUSH1 0x0 PUSH1 0x1 PUSH1 0x0 DUP6 PUSH7 0xFFFFFFFFFFFFFF AND PUSH7 0xFFFFFFFFFFFFFF AND DUP2 MSTORE PUSH1 0x20 ADD SWAP1 DUP2 MSTORE PUSH1 0x20 ADD PUSH1 0x0 KECCAK256 PUSH1 0x0 SWAP1 SLOAD SWAP1 PUSH2 0x100 EXP SWAP1 DIV PUSH7 0xFFFFFFFFFFFFFF AND SWAP1 POP PUSH1 0x0 DUP2 PUSH7 0xFFFFFFFFFFFFFF AND SUB PUSH2 0x819 JUMPI PUSH1 0x40 MLOAD DUP1 PUSH1 0xA0 ADD PUSH1 0x40 MSTORE DUP1 PUSH1 0x40 MLOAD DUP1 PUSH1 0x20 ADD PUSH1 0x40 MSTORE DUP1 PUSH1 0x0 DUP2 MSTORE POP DUP2 MSTORE PUSH1 0x20 ADD PUSH1 0x0 PUSH2 0xFFFF AND DUP2 MSTORE PUSH1 0x20 ADD PUSH1 0x0 PUSH7 0xFFFFFFFFFFFFFF AND DUP2 MSTORE PUSH1 0x20 ADD PUSH1 0x0 PUSH1 0x2 DUP2 GT ISZERO PUSH2 0x7CF JUMPI PUSH2 0x7CE PUSH2 0x130E JUMP JUMPDEST JUMPDEST DUP2 MSTORE PUSH1 0x20 ADD PUSH1 0x0 DUP2 MSTORE POP PUSH1 0x40 MLOAD DUP1 PUSH1 0x40 ADD PUSH1 0x40 MSTORE DUP1 PUSH1 0x17 DUP2 MSTORE PUSH1 0x20 ADD PUSH32 0x4372696D696E616C2064617461206E6F7420666F756E64000000000000000000 DUP2 MSTORE POP SWAP3 POP SWAP3 POP POP PUSH2 0x987 JUMP JUMPDEST PUSH1 0x0 DUP1 DUP3 PUSH7 0xFFFFFFFFFFFFFF AND PUSH7 0xFFFFFFFFFFFFFF AND DUP2 MSTORE PUSH1 0x20 ADD SWAP1 DUP2 MSTORE PUSH1 0x20 ADD PUSH1 0x0 KECCAK256 DUP1 PUSH1 0x40 MLOAD DUP1 PUSH1 0xA0 ADD PUSH1 0x40 MSTORE SWAP1 DUP2 PUSH1 0x0 DUP3 ADD DUP1 SLOAD PUSH2 0x859 SWAP1 PUSH2 0x19C7 JUMP JUMPDEST DUP1 PUSH1 0x1F ADD PUSH1 0x20 DUP1 SWAP2 DIV MUL PUSH1 0x20 ADD PUSH1 0x40 MLOAD SWAP1 DUP2 ADD PUSH1 0x40 MSTORE DUP1 SWAP3 SWAP2 SWAP1 DUP2 DUP2 MSTORE PUSH1 0x20 ADD DUP3 DUP1 SLOAD PUSH2 0x885 SWAP1 PUSH2 0x19C7 JUMP JUMPDEST DUP1 ISZERO PUSH2 0x8D2 JUMPI DUP1 PUSH1 0x1F LT PUSH2 0x8A7 JUMPI PUSH2 0x100 DUP1 DUP4 SLOAD DIV MUL DUP4 MSTORE SWAP2 PUSH1 0x20 ADD SWAP2 PUSH2 0x8D2 JUMP JUMPDEST DUP3 ADD SWAP2 SWAP1 PUSH1 0x0 MSTORE PUSH1 0x20 PUSH1 0x0 KECCAK256 SWAP1 JUMPDEST DUP2 SLOAD DUP2 MSTORE SWAP1 PUSH1 0x1 ADD SWAP1 PUSH1 0x20 ADD DUP1 DUP4 GT PUSH2 0x8B5 JUMPI DUP3 SWAP1 SUB PUSH1 0x1F AND DUP3 ADD SWAP2 JUMPDEST POP POP POP POP POP DUP2 MSTORE PUSH1 0x20 ADD PUSH1 0x1 DUP3 ADD PUSH1 0x0 SWAP1 SLOAD SWAP1 PUSH2 0x100 EXP SWAP1 DIV PUSH2 0xFFFF AND PUSH2 0xFFFF AND PUSH2 0xFFFF AND DUP2 MSTORE PUSH1 0x20 ADD PUSH1 0x1 DUP3 ADD PUSH1 0x2 SWAP1 SLOAD SWAP1 PUSH2 0x100 EXP SWAP1 DIV PUSH7 0xFFFFFFFFFFFFFF AND PUSH7 0xFFFFFFFFFFFFFF AND PUSH7 0xFFFFFFFFFFFFFF AND DUP2 MSTORE PUSH1 0x20 ADD PUSH1 0x1 DUP3 ADD PUSH1 0x9 SWAP1 SLOAD SWAP1 PUSH2 0x100 EXP SWAP1 DIV PUSH1 0xFF AND PUSH1 0x2 DUP2 GT ISZERO PUSH2 0x94F JUMPI PUSH2 0x94E PUSH2 0x130E JUMP JUMPDEST JUMPDEST PUSH1 0x2 DUP2 GT ISZERO PUSH2 0x961 JUMPI PUSH2 0x960 PUSH2 0x130E JUMP JUMPDEST JUMPDEST DUP2 MSTORE PUSH1 0x20 ADD PUSH1 0x2 DUP3 ADD SLOAD DUP2 MSTORE POP POP SWAP1 POP PUSH1 0x40 MLOAD DUP1 PUSH1 0x20 ADD PUSH1 0x40 MSTORE DUP1 PUSH1 0x0 DUP2 MSTORE POP SWAP3 POP SWAP3 POP POP JUMPDEST SWAP2 POP SWAP2 JUMP JUMPDEST PUSH1 0x2 DUP2 DUP2 SLOAD DUP2 LT PUSH2 0x99C JUMPI PUSH1 0x0 DUP1 REVERT JUMPDEST SWAP1 PUSH1 0x0 MSTORE PUSH1 0x20 PUSH1 0x0 KECCAK256 SWAP1 PUSH1 0x4 SWAP2 DUP3 DUP3 DIV ADD SWAP2 SWAP1 MOD PUSH1 0x7 MUL SWAP2 POP SLOAD SWAP1 PUSH2 0x100 EXP SWAP1 DIV PUSH7 0xFFFFFFFFFFFFFF AND DUP2 JUMP JUMPDEST PUSH1 0x60 PUSH32 0x0 PUSH20 0xFFFFFFFFFFFFFFFFFFFFFFFFFFFFFFFFFFFFFFFF AND CALLER PUSH20 0xFFFFFFFFFFFFFFFFFFFFFFFFFFFFFFFFFFFFFFFF AND EQ PUSH2 0xA59 JUMPI PUSH1 0x40 MLOAD PUSH32 0x8C379A000000000000000000000000000000000000000000000000000000000 DUP2 MSTORE PUSH1 0x4 ADD PUSH2 0xA50 SWAP1 PUSH2 0x1A6A JUMP JUMPDEST PUSH1 0x40 MLOAD DUP1 SWAP2 SUB SWAP1 REVERT JUMPDEST PUSH1 0x0 PUSH1 0x2 DUP1 SLOAD SWAP1 POP GT PUSH2 0xAA1 JUMPI PUSH1 0x40 MLOAD PUSH32 0x8C379A000000000000000000000000000000000000000000000000000000000 DUP2 MSTORE PUSH1 0x4 ADD PUSH2 0xA98 SWAP1 PUSH2 0x1ECC JUMP JUMPDEST PUSH1 0x40 MLOAD DUP1 SWAP2 SUB SWAP1 REVERT JUMPDEST PUSH1 0x0 PUSH1 0x2 DUP1 SLOAD SWAP1 POP PUSH8 0xFFFFFFFFFFFFFFFF DUP2 GT ISZERO PUSH2 0xAC2 JUMPI PUSH2 0xAC1 PUSH2 0x145E JUMP JUMPDEST JUMPDEST PUSH1 0x40 MLOAD SWAP1 DUP1 DUP3 MSTORE DUP1 PUSH1 0x20 MUL PUSH1 0x20 ADD DUP3 ADD PUSH1 0x40 MSTORE DUP1 ISZERO PUSH2 0xAFB JUMPI DUP2 PUSH1 0x20 ADD JUMPDEST PUSH2 0xAE8 PUSH2 0x1127 JUMP JUMPDEST DUP2 MSTORE PUSH1 0x20 ADD SWAP1 PUSH1 0x1 SWAP1 SUB SWAP1 DUP2 PUSH2 0xAE0 JUMPI SWAP1 POP JUMPDEST POP SWAP1 POP PUSH1 0x0 DUP1 JUMPDEST PUSH1 0x2 DUP1 SLOAD SWAP1 POP DUP2 PUSH2 0xFFFF AND LT ISZERO PUSH2 0xD33 JUMPI PUSH1 0x0 PUSH1 0x2 DUP3 PUSH2 0xFFFF AND DUP2 SLOAD DUP2 LT PUSH2 0xB2D JUMPI PUSH2 0xB2C PUSH2 0x1EEC JUMP JUMPDEST JUMPDEST SWAP1 PUSH1 0x0 MSTORE PUSH1 0x20 PUSH1 0x0 KECCAK256 SWAP1 PUSH1 0x4 SWAP2 DUP3 DUP3 DIV ADD SWAP2 SWAP1 MOD PUSH1 0x7 MUL SWAP1 SLOAD SWAP1 PUSH2 0x100 EXP SWAP1 DIV PUSH7 0xFFFFFFFFFFFFFF AND SWAP1 POP PUSH1 0x0 DUP1 PUSH1 0x0 DUP4 PUSH7 0xFFFFFFFFFFFFFF AND PUSH7 0xFFFFFFFFFFFFFF AND DUP2 MSTORE PUSH1 0x20 ADD SWAP1 DUP2 MSTORE PUSH1 0x20 ADD PUSH1 0x0 KECCAK256 PUSH1 0x1 ADD PUSH1 0x0 SWAP1 SLOAD SWAP1 PUSH2 0x100 EXP SWAP1 DIV PUSH2 0xFFFF AND PUSH2 0xFFFF AND EQ PUSH2 0xD1F JUMPI PUSH1 0x0 DUP1 DUP3 PUSH7 0xFFFFFFFFFFFFFF AND PUSH7 0xFFFFFFFFFFFFFF AND DUP2 MSTORE PUSH1 0x20 ADD SWAP1 DUP2 MSTORE PUSH1 0x20 ADD PUSH1 0x0 KECCAK256 PUSH1 0x40 MLOAD DUP1 PUSH1 0xA0 ADD PUSH1 0x40 MSTORE SWAP1 DUP2 PUSH1 0x0 DUP3 ADD DUP1 SLOAD PUSH2 0xBD8 SWAP1 PUSH2 0x19C7 JUMP JUMPDEST DUP1 PUSH1 0x1F ADD PUSH1 0x20 DUP1 SWAP2 DIV MUL PUSH1 0x20 ADD PUSH1 0x40 MLOAD SWAP1 DUP2 ADD PUSH1 0x40 MSTORE DUP1 SWAP3 SWAP2 SWAP1 DUP2 DUP2 MSTORE PUSH1 0x20 ADD DUP3 DUP1 SLOAD PUSH2 0xC04 SWAP1 PUSH2 0x19C7 JUMP JUMPDEST DUP1 ISZERO PUSH2 0xC51 JUMPI DUP1 PUSH1 0x1F LT PUSH2 0xC26 JUMPI PUSH2 0x100 DUP1 DUP4 SLOAD DIV MUL DUP4 MSTORE SWAP2 PUSH1 0x20 ADD SWAP2 PUSH2 0xC51 JUMP JUMPDEST DUP3 ADD SWAP2 SWAP1 PUSH1 0x0 MSTORE PUSH1 0x20 PUSH1 0x0 KECCAK256 SWAP1 JUMPDEST DUP2 SLOAD DUP2 MSTORE SWAP1 PUSH1 0x1 ADD SWAP1 PUSH1 0x20 ADD DUP1 DUP4 GT PUSH2 0xC34 JUMPI DUP3 SWAP1 SUB PUSH1 0x1F AND DUP3 ADD SWAP2 JUMPDEST POP POP POP POP POP DUP2 MSTORE PUSH1 0x20 ADD PUSH1 0x1 DUP3 ADD PUSH1 0x0 SWAP1 SLOAD SWAP1 PUSH2 0x100 EXP SWAP1 DIV PUSH2 0xFFFF AND PUSH2 0xFFFF AND PUSH2 0xFFFF AND DUP2 MSTORE PUSH1 0x20 ADD PUSH1 0x1 DUP3 ADD PUSH1 0x2 SWAP1 SLOAD SWAP1 PUSH2 0x100 EXP SWAP1 DIV PUSH7 0xFFFFFFFFFFFFFF AND PUSH7 0xFFFFFFFFFFFFFF AND PUSH7 0xFFFFFFFFFFFFFF AND DUP2 MSTORE PUSH1 0x20 ADD PUSH1 0x1 DUP3 ADD PUSH1 0x9 SWAP1 SLOAD SWAP1 PUSH2 0x100 EXP SWAP1 DIV PUSH1 0xFF AND PUSH1 0x2 DUP2 GT ISZERO PUSH2 0xCCE JUMPI PUSH2 0xCCD PUSH2 0x130E JUMP JUMPDEST JUMPDEST PUSH1 0x2 DUP2 GT ISZERO PUSH2 0xCE0 JUMPI PUSH2 0xCDF PUSH2 0x130E JUMP JUMPDEST JUMPDEST DUP2 MSTORE PUSH1 0x20 ADD PUSH1 0x2 DUP3 ADD SLOAD DUP2 MSTORE POP POP DUP5 DUP5 PUSH2 0xFFFF AND DUP2 MLOAD DUP2 LT PUSH2 0xD05 JUMPI PUSH2 0xD04 PUSH2 0x1EEC JUMP JUMPDEST JUMPDEST PUSH1 0x20 MUL PUSH1 0x20 ADD ADD DUP2 SWAP1 MSTORE POP DUP3 DUP1 PUSH2 0xD1B SWAP1 PUSH2 0x1F1B JUMP JUMPDEST SWAP4 POP POP JUMPDEST POP DUP1 DUP1 PUSH2 0xD2B SWAP1 PUSH2 0x1F1B JUMP JUMPDEST SWAP2 POP POP PUSH2 0xB02 JUMP JUMPDEST POP PUSH1 0x60 PUSH1 0x20 DUP3 MUL DUP4 ADD MLOAD SWAP1 POP DUP3 SWAP4 POP POP POP POP SWAP1 JUMP JUMPDEST PUSH32 0x0 PUSH20 0xFFFFFFFFFFFFFFFFFFFFFFFFFFFFFFFFFFFFFFFF AND CALLER PUSH20 0xFFFFFFFFFFFFFFFFFFFFFFFFFFFFFFFFFFFFFFFF AND EQ PUSH2 0xDD6 JUMPI PUSH1 0x40 MLOAD PUSH32 0x8C379A000000000000000000000000000000000000000000000000000000000 DUP2 MSTORE PUSH1 0x4 ADD PUSH2 0xDCD SWAP1 PUSH2 0x1A6A JUMP JUMPDEST PUSH1 0x40 MLOAD DUP1 SWAP2 SUB SWAP1 REVERT JUMPDEST PUSH1 0x0 PUSH1 0x1 PUSH1 0x0 DUP4 PUSH7 0xFFFFFFFFFFFFFF AND PUSH7 0xFFFFFFFFFFFFFF AND DUP2 MSTORE PUSH1 0x20 ADD SWAP1 DUP2 MSTORE PUSH1 0x20 ADD PUSH1 0x0 KECCAK256 PUSH1 0x0 SWAP1 SLOAD SWAP1 PUSH2 0x100 EXP SWAP1 DIV PUSH7 0xFFFFFFFFFFFFFF AND SWAP1 POP PUSH1 0x0 DUP2 PUSH7 0xFFFFFFFFFFFFFF AND SUB PUSH2 0xE5F JUMPI PUSH1 0x40 MLOAD PUSH32 0x8C379A000000000000000000000000000000000000000000000000000000000 DUP2 MSTORE PUSH1 0x4 ADD PUSH2 0xE56 SWAP1 PUSH2 0x1F91 JUMP JUMPDEST PUSH1 0x40 MLOAD DUP1 SWAP2 SUB SWAP1 REVERT JUMPDEST PUSH1 0x0 JUMPDEST PUSH1 0x2 DUP1 SLOAD SWAP1 POP DUP2 PUSH2 0xFFFF AND LT ISZERO PUSH2 0xFC8 JUMPI DUP2 PUSH7 0xFFFFFFFFFFFFFF AND PUSH1 0x2 DUP3 PUSH2 0xFFFF AND DUP2 SLOAD DUP2 LT PUSH2 0xE95 JUMPI PUSH2 0xE94 PUSH2 0x1EEC JUMP JUMPDEST JUMPDEST SWAP1 PUSH1 0x0 MSTORE PUSH1 0x20 PUSH1 0x0 KECCAK256 SWAP1 PUSH1 0x4 SWAP2 DUP3 DUP3 DIV ADD SWAP2 SWAP1 MOD PUSH1 0x7 MUL SWAP1 SLOAD SWAP1 PUSH2 0x100 EXP SWAP1 DIV PUSH7 0xFFFFFFFFFFFFFF AND PUSH7 0xFFFFFFFFFFFFFF AND SUB PUSH2 0xFB5 JUMPI PUSH1 0x2 PUSH1 0x1 PUSH1 0x2 DUP1 SLOAD SWAP1 POP PUSH2 0xEE0 SWAP2 SWAP1 PUSH2 0x1FB1 JUMP JUMPDEST DUP2 SLOAD DUP2 LT PUSH2 0xEF1 JUMPI PUSH2 0xEF0 PUSH2 0x1EEC JUMP JUMPDEST JUMPDEST SWAP1 PUSH1 0x0 MSTORE PUSH1 0x20 PUSH1 0x0 KECCAK256 SWAP1 PUSH1 0x4 SWAP2 DUP3 DUP3 DIV ADD SWAP2 SWAP1 MOD PUSH1 0x7 MUL SWAP1 SLOAD SWAP1 PUSH2 0x100 EXP SWAP1 DIV PUSH7 0xFFFFFFFFFFFFFF AND PUSH1 0x2 DUP3 PUSH2 0xFFFF AND DUP2 SLOAD DUP2 LT PUSH2 0xF32 JUMPI PUSH2 0xF31 PUSH2 0x1EEC JUMP JUMPDEST JUMPDEST SWAP1 PUSH1 0x0 MSTORE PUSH1 0x20 PUSH1 0x0 KECCAK256 SWAP1 PUSH1 0x4 SWAP2 DUP3 DUP3 DIV ADD SWAP2 SWAP1 MOD PUSH1 0x7 MUL PUSH2 0x100 EXP DUP2 SLOAD DUP2 PUSH7 0xFFFFFFFFFFFFFF MUL NOT AND SWAP1 DUP4 PUSH7 0xFFFFFFFFFFFFFF AND MUL OR SWAP1 SSTORE POP PUSH1 0x2 DUP1 SLOAD DUP1 PUSH2 0xF7D JUMPI PUSH2 0xF7C PUSH2 0x1FE5 JUMP JUMPDEST JUMPDEST PUSH1 0x1 SWAP1 SUB DUP2 DUP2 SWAP1 PUSH1 0x0 MSTORE PUSH1 0x20 PUSH1 0x0 KECCAK256 SWAP1 PUSH1 0x4 SWAP2 DUP3 DUP3 DIV ADD SWAP2 SWAP1 MOD PUSH1 0x7 MUL PUSH2 0x100 EXP DUP2 SLOAD SWAP1 PUSH7 0xFFFFFFFFFFFFFF MUL NOT AND SWAP1 SSTORE SWAP1 SSTORE PUSH2 0xFC8 JUMP JUMPDEST DUP1 DUP1 PUSH2 0xFC0 SWAP1 PUSH2 0x1F1B JUMP JUMPDEST SWAP2 POP POP PUSH2 0xE62 JUMP JUMPDEST POP DUP2 PUSH7 0xFFFFFFFFFFFFFF AND PUSH32 0x658BAB0399A2A605A3F14E6B6C747A1D1A5CF4FBEF0F8178A81A85646A81554C PUSH1 0x40 MLOAD PUSH1 0x40 MLOAD DUP1 SWAP2 SUB SWAP1 LOG2 PUSH1 0x0 DUP1 DUP3 PUSH7 0xFFFFFFFFFFFFFF AND PUSH7 0xFFFFFFFFFFFFFF AND DUP2 MSTORE PUSH1 0x20 ADD SWAP1 DUP2 MSTORE PUSH1 0x20 ADD PUSH1 0x0 KECCAK256 PUSH1 0x0 DUP1 DUP3 ADD PUSH1 0x0 PUSH2 0x1034 SWAP2 SWAP1 PUSH2 0x1175 JUMP JUMPDEST PUSH1 0x1 DUP3 ADD PUSH1 0x0 PUSH2 0x100 EXP DUP2 SLOAD SWAP1 PUSH2 0xFFFF MUL NOT AND SWAP1 SSTORE PUSH1 0x1 DUP3 ADD PUSH1 0x2 PUSH2 0x100 EXP DUP2 SLOAD SWAP1 PUSH7 0xFFFFFFFFFFFFFF MUL NOT AND SWAP1 SSTORE PUSH1 0x1 DUP3 ADD PUSH1 0x9 PUSH2 0x100 EXP DUP2 SLOAD SWAP1 PUSH1 0xFF MUL NOT AND SWAP1 SSTORE PUSH1 0x2 DUP3 ADD PUSH1 0x0 SWAP1 SSTORE POP POP PUSH1 0x1 PUSH1 0x0 DUP4 PUSH7 0xFFFFFFFFFFFFFF AND PUSH7 0xFFFFFFFFFFFFFF AND DUP2 MSTORE PUSH1 0x20 ADD SWAP1 DUP2 MSTORE PUSH1 0x20 ADD PUSH1 0x0 KECCAK256 PUSH1 0x0 PUSH2 0x100 EXP DUP2 SLOAD SWAP1 PUSH7 0xFFFFFFFFFFFFFF MUL NOT AND SWAP1 SSTORE PUSH1 0x3 PUSH1 0x0 DUP2 DUP2 SWAP1 SLOAD SWAP1 PUSH2 0x100 EXP SWAP1 DIV PUSH4 0xFFFFFFFF AND DUP1 SWAP3 SWAP2 SWAP1 PUSH2 0x10DE SWAP1 PUSH2 0x2014 JUMP JUMPDEST SWAP2 SWAP1 PUSH2 0x100 EXP DUP2 SLOAD DUP2 PUSH4 0xFFFFFFFF MUL NOT AND SWAP1 DUP4 PUSH4 0xFFFFFFFF AND MUL OR SWAP1 SSTORE POP POP POP POP JUMP JUMPDEST PUSH1 0x1 PUSH1 0x20 MSTORE DUP1 PUSH1 0x0 MSTORE PUSH1 0x40 PUSH1 0x0 KECCAK256 PUSH1 0x0 SWAP2 POP SLOAD SWAP1 PUSH2 0x100 EXP SWAP1 DIV PUSH7 0xFFFFFFFFFFFFFF AND DUP2 JUMP JUMPDEST PUSH1 0x40 MLOAD DUP1 PUSH1 0xA0 ADD PUSH1 0x40 MSTORE DUP1 PUSH1 0x60 DUP2 MSTORE PUSH1 0x20 ADD PUSH1 0x0 PUSH2 0xFFFF AND DUP2 MSTORE PUSH1 0x20 ADD PUSH1 0x0 PUSH7 0xFFFFFFFFFFFFFF AND DUP2 MSTORE PUSH1 0x20 ADD PUSH1 0x0 PUSH1 0x2 DUP2 GT ISZERO PUSH2 0x1168 JUMPI PUSH2 0x1167 PUSH2 0x130E JUMP JUMPDEST JUMPDEST DUP2 MSTORE PUSH1 0x20 ADD PUSH1 0x0 DUP2 MSTORE POP SWAP1 JUMP JUMPDEST POP DUP1 SLOAD PUSH2 0x1181 SWAP1 PUSH2 0x19C7 JUMP JUMPDEST PUSH1 0x0 DUP3 SSTORE DUP1 PUSH1 0x1F LT PUSH2 0x1193 JUMPI POP PUSH2 0x11B2 JUMP JUMPDEST PUSH1 0x1F ADD PUSH1 0x20 SWAP1 DIV SWAP1 PUSH1 0x0 MSTORE PUSH1 0x20 PUSH1 0x0 KECCAK256 SWAP1 DUP2 ADD SWAP1 PUSH2 0x11B1 SWAP2 SWAP1 PUSH2 0x11B5 JUMP JUMPDEST JUMPDEST POP JUMP JUMPDEST JUMPDEST DUP1 DUP3 GT ISZERO PUSH2 0x11CE JUMPI PUSH1 0x0 DUP2 PUSH1 0x0 SWAP1 SSTORE POP PUSH1 0x1 ADD PUSH2 0x11B6 JUMP JUMPDEST POP SWAP1 JUMP JUMPDEST PUSH1 0x0 PUSH1 0x40 MLOAD SWAP1 POP SWAP1 JUMP JUMPDEST PUSH1 0x0 DUP1 REVERT JUMPDEST PUSH1 0x0 DUP1 REVERT JUMPDEST PUSH1 0x0 PUSH7 0xFFFFFFFFFFFFFF DUP3 AND SWAP1 POP SWAP2 SWAP1 POP JUMP JUMPDEST PUSH2 0x1202 DUP2 PUSH2 0x11E6 JUMP JUMPDEST DUP2 EQ PUSH2 0x120D JUMPI PUSH1 0x0 DUP1 REVERT JUMPDEST POP JUMP JUMPDEST PUSH1 0x0 DUP2 CALLDATALOAD SWAP1 POP PUSH2 0x121F DUP2 PUSH2 0x11F9 JUMP JUMPDEST SWAP3 SWAP2 POP POP JUMP JUMPDEST PUSH1 0x0 PUSH1 0x20 DUP3 DUP5 SUB SLT ISZERO PUSH2 0x123B JUMPI PUSH2 0x123A PUSH2 0x11DC JUMP JUMPDEST JUMPDEST PUSH1 0x0 PUSH2 0x1249 DUP5 DUP3 DUP6 ADD PUSH2 0x1210 JUMP JUMPDEST SWAP2 POP POP SWAP3 SWAP2 POP POP JUMP JUMPDEST PUSH1 0x0 DUP2 MLOAD SWAP1 POP SWAP2 SWAP1 POP JUMP JUMPDEST PUSH1 0x0 DUP3 DUP3 MSTORE PUSH1 0x20 DUP3 ADD SWAP1 POP SWAP3 SWAP2 POP POP JUMP JUMPDEST PUSH1 0x0 JUMPDEST DUP4 DUP2 LT ISZERO PUSH2 0x128C JUMPI DUP1 DUP3 ADD MLOAD DUP2 DUP5 ADD MSTORE PUSH1 0x20 DUP2 ADD SWAP1 POP PUSH2 0x1271 JUMP JUMPDEST PUSH1 0x0 DUP5 DUP5 ADD MSTORE POP POP POP POP JUMP JUMPDEST PUSH1 0x0 PUSH1 0x1F NOT PUSH1 0x1F DUP4 ADD AND SWAP1 POP SWAP2 SWAP1 POP JUMP JUMPDEST PUSH1 0x0 PUSH2 0x12B4 DUP3 PUSH2 0x1252 JUMP JUMPDEST PUSH2 0x12BE DUP2 DUP6 PUSH2 0x125D JUMP JUMPDEST SWAP4 POP PUSH2 0x12CE DUP2 DUP6 PUSH1 0x20 DUP7 ADD PUSH2 0x126E JUMP JUMPDEST PUSH2 0x12D7 DUP2 PUSH2 0x1298 JUMP JUMPDEST DUP5 ADD SWAP2 POP POP SWAP3 SWAP2 POP POP JUMP JUMPDEST PUSH1 0x0 PUSH2 0xFFFF DUP3 AND SWAP1 POP SWAP2 SWAP1 POP JUMP JUMPDEST PUSH2 0x12F9 DUP2 PUSH2 0x12E2 JUMP JUMPDEST DUP3 MSTORE POP POP JUMP JUMPDEST PUSH2 0x1308 DUP2 PUSH2 0x11E6 JUMP JUMPDEST DUP3 MSTORE POP POP JUMP JUMPDEST PUSH32 0x4E487B7100000000000000000000000000000000000000000000000000000000 PUSH1 0x0 MSTORE PUSH1 0x21 PUSH1 0x4 MSTORE PUSH1 0x24 PUSH1 0x0 REVERT JUMPDEST PUSH1 0x3 DUP2 LT PUSH2 0x134E JUMPI PUSH2 0x134D PUSH2 0x130E JUMP JUMPDEST JUMPDEST POP JUMP JUMPDEST PUSH1 0x0 DUP2 SWAP1 POP PUSH2 0x135F DUP3 PUSH2 0x133D JUMP JUMPDEST SWAP2 SWAP1 POP JUMP JUMPDEST PUSH1 0x0 PUSH2 0x136F DUP3 PUSH2 0x1351 JUMP JUMPDEST SWAP1 POP SWAP2 SWAP1 POP JUMP JUMPDEST PUSH2 0x137F DUP2 PUSH2 0x1364 JUMP JUMPDEST DUP3 MSTORE POP POP JUMP JUMPDEST PUSH1 0x0 DUP2 SWAP1 POP SWAP2 SWAP1 POP JUMP JUMPDEST PUSH2 0x1398 DUP2 PUSH2 0x1385 JUMP JUMPDEST DUP3 MSTORE POP POP JUMP JUMPDEST PUSH1 0x0 PUSH1 0xA0 DUP3 ADD SWAP1 POP DUP2 DUP2 SUB PUSH1 0x0 DUP4 ADD MSTORE PUSH2 0x13B8 DUP2 DUP9 PUSH2 0x12A9 JUMP JUMPDEST SWAP1 POP PUSH2 0x13C7 PUSH1 0x20 DUP4 ADD DUP8 PUSH2 0x12F0 JUMP JUMPDEST PUSH2 0x13D4 PUSH1 0x40 DUP4 ADD DUP7 PUSH2 0x12FF JUMP JUMPDEST PUSH2 0x13E1 PUSH1 0x60 DUP4 ADD DUP6 PUSH2 0x1376 JUMP JUMPDEST PUSH2 0x13EE PUSH1 0x80 DUP4 ADD DUP5 PUSH2 0x138F JUMP JUMPDEST SWAP7 SWAP6 POP POP POP POP POP POP JUMP JUMPDEST PUSH1 0x0 PUSH20 0xFFFFFFFFFFFFFFFFFFFFFFFFFFFFFFFFFFFFFFFF DUP3 AND SWAP1 POP SWAP2 SWAP1 POP JUMP JUMPDEST PUSH1 0x0 PUSH2 0x1423 DUP3 PUSH2 0x13F8 JUMP JUMPDEST SWAP1 POP SWAP2 SWAP1 POP JUMP JUMPDEST PUSH2 0x1433 DUP2 PUSH2 0x1418 JUMP JUMPDEST DUP3 MSTORE POP POP JUMP JUMPDEST PUSH1 0x0 PUSH1 0x20 DUP3 ADD SWAP1 POP PUSH2 0x144E PUSH1 0x0 DUP4 ADD DUP5 PUSH2 0x142A JUMP JUMPDEST SWAP3 SWAP2 POP POP JUMP JUMPDEST PUSH1 0x0 DUP1 REVERT JUMPDEST PUSH1 0x0 DUP1 REVERT JUMPDEST PUSH32 0x4E487B7100000000000000000000000000000000000000000000000000000000 PUSH1 0x0 MSTORE PUSH1 0x41 PUSH1 0x4 MSTORE PUSH1 0x24 PUSH1 0x0 REVERT JUMPDEST PUSH2 0x1496 DUP3 PUSH2 0x1298 JUMP JUMPDEST DUP2 ADD DUP2 DUP2 LT PUSH8 0xFFFFFFFFFFFFFFFF DUP3 GT OR ISZERO PUSH2 0x14B5 JUMPI PUSH2 0x14B4 PUSH2 0x145E JUMP JUMPDEST JUMPDEST DUP1 PUSH1 0x40 MSTORE POP POP POP JUMP JUMPDEST PUSH1 0x0 PUSH2 0x14C8 PUSH2 0x11D2 JUMP JUMPDEST SWAP1 POP PUSH2 0x14D4 DUP3 DUP3 PUSH2 0x148D JUMP JUMPDEST SWAP2 SWAP1 POP JUMP JUMPDEST PUSH1 0x0 PUSH8 0xFFFFFFFFFFFFFFFF DUP3 GT ISZERO PUSH2 0x14F4 JUMPI PUSH2 0x14F3 PUSH2 0x145E JUMP JUMPDEST JUMPDEST PUSH2 0x14FD DUP3 PUSH2 0x1298 JUMP JUMPDEST SWAP1 POP PUSH1 0x20 DUP2 ADD SWAP1 POP SWAP2 SWAP1 POP JUMP JUMPDEST DUP3 DUP2 DUP4 CALLDATACOPY PUSH1 0x0 DUP4 DUP4 ADD MSTORE POP POP POP JUMP JUMPDEST PUSH1 0x0 PUSH2 0x152C PUSH2 0x1527 DUP5 PUSH2 0x14D9 JUMP JUMPDEST PUSH2 0x14BE JUMP JUMPDEST SWAP1 POP DUP3 DUP2 MSTORE PUSH1 0x20 DUP2 ADD DUP5 DUP5 DUP5 ADD GT ISZERO PUSH2 0x1548 JUMPI PUSH2 0x1547 PUSH2 0x1459 JUMP JUMPDEST JUMPDEST PUSH2 0x1553 DUP5 DUP3 DUP6 PUSH2 0x150A JUMP JUMPDEST POP SWAP4 SWAP3 POP POP POP JUMP JUMPDEST PUSH1 0x0 DUP3 PUSH1 0x1F DUP4 ADD SLT PUSH2 0x1570 JUMPI PUSH2 0x156F PUSH2 0x1454 JUMP JUMPDEST JUMPDEST DUP2 CALLDATALOAD PUSH2 0x1580 DUP5 DUP3 PUSH1 0x20 DUP7 ADD PUSH2 0x1519 JUMP JUMPDEST SWAP2 POP POP SWAP3 SWAP2 POP POP JUMP JUMPDEST PUSH2 0x1592 DUP2 PUSH2 0x12E2 JUMP JUMPDEST DUP2 EQ PUSH2 0x159D JUMPI PUSH1 0x0 DUP1 REVERT JUMPDEST POP JUMP JUMPDEST PUSH1 0x0 DUP2 CALLDATALOAD SWAP1 POP PUSH2 0x15AF DUP2 PUSH2 0x1589 JUMP JUMPDEST SWAP3 SWAP2 POP POP JUMP JUMPDEST PUSH1 0x3 DUP2 LT PUSH2 0x15C2 JUMPI PUSH1 0x0 DUP1 REVERT JUMPDEST POP JUMP JUMPDEST PUSH1 0x0 DUP2 CALLDATALOAD SWAP1 POP PUSH2 0x15D4 DUP2 PUSH2 0x15B5 JUMP JUMPDEST SWAP3 SWAP2 POP POP JUMP JUMPDEST PUSH1 0x0 DUP1 PUSH1 0x0 DUP1 PUSH1 0x80 DUP6 DUP8 SUB SLT ISZERO PUSH2 0x15F4 JUMPI PUSH2 0x15F3 PUSH2 0x11DC JUMP JUMPDEST JUMPDEST PUSH1 0x0 DUP6 ADD CALLDATALOAD PUSH8 0xFFFFFFFFFFFFFFFF DUP2 GT ISZERO PUSH2 0x1612 JUMPI PUSH2 0x1611 PUSH2 0x11E1 JUMP JUMPDEST JUMPDEST PUSH2 0x161E DUP8 DUP3 DUP9 ADD PUSH2 0x155B JUMP JUMPDEST SWAP5 POP POP PUSH1 0x20 PUSH2 0x162F DUP8 DUP3 DUP9 ADD PUSH2 0x15A0 JUMP JUMPDEST SWAP4 POP POP PUSH1 0x40 PUSH2 0x1640 DUP8 DUP3 DUP9 ADD PUSH2 0x1210 JUMP JUMPDEST SWAP3 POP POP PUSH1 0x60 PUSH2 0x1651 DUP8 DUP3 DUP9 ADD PUSH2 0x15C5 JUMP JUMPDEST SWAP2 POP POP SWAP3 SWAP6 SWAP2 SWAP5 POP SWAP3 POP JUMP JUMPDEST PUSH1 0x0 PUSH4 0xFFFFFFFF DUP3 AND SWAP1 POP SWAP2 SWAP1 POP JUMP JUMPDEST PUSH2 0x1676 DUP2 PUSH2 0x165D JUMP JUMPDEST DUP3 MSTORE POP POP JUMP JUMPDEST PUSH1 0x0 PUSH1 0x20 DUP3 ADD SWAP1 POP PUSH2 0x1691 PUSH1 0x0 DUP4 ADD DUP5 PUSH2 0x166D JUMP JUMPDEST SWAP3 SWAP2 POP POP JUMP JUMPDEST PUSH1 0x0 DUP3 DUP3 MSTORE PUSH1 0x20 DUP3 ADD SWAP1 POP SWAP3 SWAP2 POP POP JUMP JUMPDEST PUSH1 0x0 PUSH2 0x16B3 DUP3 PUSH2 0x1252 JUMP JUMPDEST PUSH2 0x16BD DUP2 DUP6 PUSH2 0x1697 JUMP JUMPDEST SWAP4 POP PUSH2 0x16CD DUP2 DUP6 PUSH1 0x20 DUP7 ADD PUSH2 0x126E JUMP JUMPDEST PUSH2 0x16D6 DUP2 PUSH2 0x1298 JUMP JUMPDEST DUP5 ADD SWAP2 POP POP SWAP3 SWAP2 POP POP JUMP JUMPDEST PUSH2 0x16EA DUP2 PUSH2 0x12E2 JUMP JUMPDEST DUP3 MSTORE POP POP JUMP JUMPDEST PUSH2 0x16F9 DUP2 PUSH2 0x11E6 JUMP JUMPDEST DUP3 MSTORE POP POP JUMP JUMPDEST PUSH2 0x1708 DUP2 PUSH2 0x1364 JUMP JUMPDEST DUP3 MSTORE POP POP JUMP JUMPDEST PUSH2 0x1717 DUP2 PUSH2 0x1385 JUMP JUMPDEST DUP3 MSTORE POP POP JUMP JUMPDEST PUSH1 0x0 PUSH1 0xA0 DUP4 ADD PUSH1 0x0 DUP4 ADD MLOAD DUP5 DUP3 SUB PUSH1 0x0 DUP7 ADD MSTORE PUSH2 0x173A DUP3 DUP3 PUSH2 0x16A8 JUMP JUMPDEST SWAP2 POP POP PUSH1 0x20 DUP4 ADD MLOAD PUSH2 0x174F PUSH1 0x20 DUP7 ADD DUP3 PUSH2 0x16E1 JUMP JUMPDEST POP PUSH1 0x40 DUP4 ADD MLOAD PUSH2 0x1762 PUSH1 0x40 DUP7 ADD DUP3 PUSH2 0x16F0 JUMP JUMPDEST POP PUSH1 0x60 DUP4 ADD MLOAD PUSH2 0x1775 PUSH1 0x60 DUP7 ADD DUP3 PUSH2 0x16FF JUMP JUMPDEST POP PUSH1 0x80 DUP4 ADD MLOAD PUSH2 0x1788 PUSH1 0x80 DUP7 ADD DUP3 PUSH2 0x170E JUMP JUMPDEST POP DUP1 SWAP2 POP POP SWAP3 SWAP2 POP POP JUMP JUMPDEST PUSH1 0x0 PUSH1 0x40 DUP3 ADD SWAP1 POP DUP2 DUP2 SUB PUSH1 0x0 DUP4 ADD MSTORE PUSH2 0x17AD DUP2 DUP6 PUSH2 0x171D JUMP JUMPDEST SWAP1 POP DUP2 DUP2 SUB PUSH1 0x20 DUP4 ADD MSTORE PUSH2 0x17C1 DUP2 DUP5 PUSH2 0x12A9 JUMP JUMPDEST SWAP1 POP SWAP4 SWAP3 POP POP POP JUMP JUMPDEST PUSH2 0x17D3 DUP2 PUSH2 0x1385 JUMP JUMPDEST DUP2 EQ PUSH2 0x17DE JUMPI PUSH1 0x0 DUP1 REVERT JUMPDEST POP JUMP JUMPDEST PUSH1 0x0 DUP2 CALLDATALOAD SWAP1 POP PUSH2 0x17F0 DUP2 PUSH2 0x17CA JUMP JUMPDEST SWAP3 SWAP2 POP POP JUMP JUMPDEST PUSH1 0x0 PUSH1 0x20 DUP3 DUP5 SUB SLT ISZERO PUSH2 0x180C JUMPI PUSH2 0x180B PUSH2 0x11DC JUMP JUMPDEST JUMPDEST PUSH1 0x0 PUSH2 0x181A DUP5 DUP3 DUP6 ADD PUSH2 0x17E1 JUMP JUMPDEST SWAP2 POP POP SWAP3 SWAP2 POP POP JUMP JUMPDEST PUSH1 0x0 PUSH1 0x20 DUP3 ADD SWAP1 POP PUSH2 0x1838 PUSH1 0x0 DUP4 ADD DUP5 PUSH2 0x12FF JUMP JUMPDEST SWAP3 SWAP2 POP POP JUMP JUMPDEST PUSH1 0x0 DUP2 MLOAD SWAP1 POP SWAP2 SWAP1 POP JUMP JUMPDEST PUSH1 0x0 DUP3 DUP3 MSTORE PUSH1 0x20 DUP3 ADD SWAP1 POP SWAP3 SWAP2 POP POP JUMP JUMPDEST PUSH1 0x0 DUP2 SWAP1 POP PUSH1 0x20 DUP3 ADD SWAP1 POP SWAP2 SWAP1 POP JUMP JUMPDEST PUSH1 0x0 PUSH1 0xA0 DUP4 ADD PUSH1 0x0 DUP4 ADD MLOAD DUP5 DUP3 SUB PUSH1 0x0 DUP7 ADD MSTORE PUSH2 0x1887 DUP3 DUP3 PUSH2 0x16A8 JUMP JUMPDEST SWAP2 POP POP PUSH1 0x20 DUP4 ADD MLOAD PUSH2 0x189C PUSH1 0x20 DUP7 ADD DUP3 PUSH2 0x16E1 JUMP JUMPDEST POP PUSH1 0x40 DUP4 ADD MLOAD PUSH2 0x18AF PUSH1 0x40 DUP7 ADD DUP3 PUSH2 0x16F0 JUMP JUMPDEST POP PUSH1 0x60 DUP4 ADD MLOAD PUSH2 0x18C2 PUSH1 0x60 DUP7 ADD DUP3 PUSH2 0x16FF JUMP JUMPDEST POP PUSH1 0x80 DUP4 ADD MLOAD PUSH2 0x18D5 PUSH1 0x80 DUP7 ADD DUP3 PUSH2 0x170E JUMP JUMPDEST POP DUP1 SWAP2 POP POP SWAP3 SWAP2 POP POP JUMP JUMPDEST PUSH1 0x0 PUSH2 0x18EC DUP4 DUP4 PUSH2 0x186A JUMP JUMPDEST SWAP1 POP SWAP3 SWAP2 POP POP JUMP JUMPDEST PUSH1 0x0 PUSH1 0x20 DUP3 ADD SWAP1 POP SWAP2 SWAP1 POP JUMP JUMPDEST PUSH1 0x0 PUSH2 0x190C DUP3 PUSH2 0x183E JUMP JUMPDEST PUSH2 0x1916 DUP2 DUP6 PUSH2 0x1849 JUMP JUMPDEST SWAP4 POP DUP4 PUSH1 0x20 DUP3 MUL DUP6 ADD PUSH2 0x1928 DUP6 PUSH2 0x185A JUMP JUMPDEST DUP1 PUSH1 0x0 JUMPDEST DUP6 DUP2 LT ISZERO PUSH2 0x1964 JUMPI DUP5 DUP5 SUB DUP10 MSTORE DUP2 MLOAD PUSH2 0x1945 DUP6 DUP3 PUSH2 0x18E0 JUMP JUMPDEST SWAP5 POP PUSH2 0x1950 DUP4 PUSH2 0x18F4 JUMP JUMPDEST SWAP3 POP PUSH1 0x20 DUP11 ADD SWAP10 POP POP PUSH1 0x1 DUP2 ADD SWAP1 POP PUSH2 0x192C JUMP JUMPDEST POP DUP3 SWAP8 POP DUP8 SWAP6 POP POP POP POP POP POP SWAP3 SWAP2 POP POP JUMP JUMPDEST PUSH1 0x0 PUSH1 0x20 DUP3 ADD SWAP1 POP DUP2 DUP2 SUB PUSH1 0x0 DUP4 ADD MSTORE PUSH2 0x1990 DUP2 DUP5 PUSH2 0x1901 JUMP JUMPDEST SWAP1 POP SWAP3 SWAP2 POP POP JUMP JUMPDEST PUSH32 0x4E487B7100000000000000000000000000000000000000000000000000000000 PUSH1 0x0 MSTORE PUSH1 0x22 PUSH1 0x4 MSTORE PUSH1 0x24 PUSH1 0x0 REVERT JUMPDEST PUSH1 0x0 PUSH1 0x2 DUP3 DIV SWAP1 POP PUSH1 0x1 DUP3 AND DUP1 PUSH2 0x19DF JUMPI PUSH1 0x7F DUP3 AND SWAP2 POP JUMPDEST PUSH1 0x20 DUP3 LT DUP2 SUB PUSH2 0x19F2 JUMPI PUSH2 0x19F1 PUSH2 0x1998 JUMP JUMPDEST JUMPDEST POP SWAP2 SWAP1 POP JUMP JUMPDEST PUSH32 0x4163636573732064656E6965643A204F6E6C79206F776E65722063616E206361 PUSH1 0x0 DUP3 ADD MSTORE PUSH32 0x6C6C20746869732066756E6374696F6E00000000000000000000000000000000 PUSH1 0x20 DUP3 ADD MSTORE POP JUMP JUMPDEST PUSH1 0x0 PUSH2 0x1A54 PUSH1 0x30 DUP4 PUSH2 0x125D JUMP JUMPDEST SWAP2 POP PUSH2 0x1A5F DUP3 PUSH2 0x19F8 JUMP JUMPDEST PUSH1 0x40 DUP3 ADD SWAP1 POP SWAP2 SWAP1 POP JUMP JUMPDEST PUSH1 0x0 PUSH1 0x20 DUP3 ADD SWAP1 POP DUP2 DUP2 SUB PUSH1 0x0 DUP4 ADD MSTORE PUSH2 0x1A83 DUP2 PUSH2 0x1A47 JUMP JUMPDEST SWAP1 POP SWAP2 SWAP1 POP JUMP JUMPDEST PUSH32 0x496E76616C696420494400000000000000000000000000000000000000000000 PUSH1 0x0 DUP3 ADD MSTORE POP JUMP JUMPDEST PUSH1 0x0 PUSH2 0x1AC0 PUSH1 0xA DUP4 PUSH2 0x125D JUMP JUMPDEST SWAP2 POP PUSH2 0x1ACB DUP3 PUSH2 0x1A8A JUMP JUMPDEST PUSH1 0x20 DUP3 ADD SWAP1 POP SWAP2 SWAP1 POP JUMP JUMPDEST PUSH1 0x0 PUSH1 0x20 DUP3 ADD SWAP1 POP DUP2 DUP2 SUB PUSH1 0x0 DUP4 ADD MSTORE PUSH2 0x1AEF DUP2 PUSH2 0x1AB3 JUMP JUMPDEST SWAP1 POP SWAP2 SWAP1 POP JUMP JUMPDEST PUSH32 0x496E76616C696420434E49430000000000000000000000000000000000000000 PUSH1 0x0 DUP3 ADD MSTORE POP JUMP JUMPDEST PUSH1 0x0 PUSH2 0x1B2C PUSH1 0xC DUP4 PUSH2 0x125D JUMP JUMPDEST SWAP2 POP PUSH2 0x1B37 DUP3 PUSH2 0x1AF6 JUMP JUMPDEST PUSH1 0x20 DUP3 ADD SWAP1 POP SWAP2 SWAP1 POP JUMP JUMPDEST PUSH1 0x0 PUSH1 0x20 DUP3 ADD SWAP1 POP DUP2 DUP2 SUB PUSH1 0x0 DUP4 ADD MSTORE PUSH2 0x1B5B DUP2 PUSH2 0x1B1F JUMP JUMPDEST SWAP1 POP SWAP2 SWAP1 POP JUMP JUMPDEST PUSH1 0x0 DUP2 SWAP1 POP DUP2 PUSH1 0x0 MSTORE PUSH1 0x20 PUSH1 0x0 KECCAK256 SWAP1 POP SWAP2 SWAP1 POP JUMP JUMPDEST PUSH1 0x0 PUSH1 0x20 PUSH1 0x1F DUP4 ADD DIV SWAP1 POP SWAP2 SWAP1 POP JUMP JUMPDEST PUSH1 0x0 DUP3 DUP3 SHL SWAP1 POP SWAP3 SWAP2 POP POP JUMP JUMPDEST PUSH1 0x0 PUSH1 0x8 DUP4 MUL PUSH2 0x1BC4 PUSH32 0xFFFFFFFFFFFFFFFFFFFFFFFFFFFFFFFFFFFFFFFFFFFFFFFFFFFFFFFFFFFFFFFF DUP3 PUSH2 0x1B87 JUMP JUMPDEST PUSH2 0x1BCE DUP7 DUP4 PUSH2 0x1B87 JUMP JUMPDEST SWAP6 POP DUP1 NOT DUP5 AND SWAP4 POP DUP1 DUP7 AND DUP5 OR SWAP3 POP POP POP SWAP4 SWAP3 POP POP POP JUMP JUMPDEST PUSH1 0x0 DUP2 SWAP1 POP SWAP2 SWAP1 POP JUMP JUMPDEST PUSH1 0x0 PUSH2 0x1C0B PUSH2 0x1C06 PUSH2 0x1C01 DUP5 PUSH2 0x1385 JUMP JUMPDEST PUSH2 0x1BE6 JUMP JUMPDEST PUSH2 0x1385 JUMP JUMPDEST SWAP1 POP SWAP2 SWAP1 POP JUMP JUMPDEST PUSH1 0x0 DUP2 SWAP1 POP SWAP2 SWAP1 POP JUMP JUMPDEST PUSH2 0x1C25 DUP4 PUSH2 0x1BF0 JUMP JUMPDEST PUSH2 0x1C39 PUSH2 0x1C31 DUP3 PUSH2 0x1C12 JUMP JUMPDEST DUP5 DUP5 SLOAD PUSH2 0x1B94 JUMP JUMPDEST DUP3 SSTORE POP POP POP POP JUMP JUMPDEST PUSH1 0x0 SWAP1 JUMP JUMPDEST PUSH2 0x1C4E PUSH2 0x1C41 JUMP JUMPDEST PUSH2 0x1C59 DUP2 DUP5 DUP5 PUSH2 0x1C1C JUMP JUMPDEST POP POP POP JUMP JUMPDEST JUMPDEST DUP2 DUP2 LT ISZERO PUSH2 0x1C7D JUMPI PUSH2 0x1C72 PUSH1 0x0 DUP3 PUSH2 0x1C46 JUMP JUMPDEST PUSH1 0x1 DUP2 ADD SWAP1 POP PUSH2 0x1C5F JUMP JUMPDEST POP POP JUMP JUMPDEST PUSH1 0x1F DUP3 GT ISZERO PUSH2 0x1CC2 JUMPI PUSH2 0x1C93 DUP2 PUSH2 0x1B62 JUMP JUMPDEST PUSH2 0x1C9C DUP5 PUSH2 0x1B77 JUMP JUMPDEST DUP2 ADD PUSH1 0x20 DUP6 LT ISZERO PUSH2 0x1CAB JUMPI DUP2 SWAP1 POP JUMPDEST PUSH2 0x1CBF PUSH2 0x1CB7 DUP6 PUSH2 0x1B77 JUMP JUMPDEST DUP4 ADD DUP3 PUSH2 0x1C5E JUMP JUMPDEST POP POP JUMPDEST POP POP POP JUMP JUMPDEST PUSH1 0x0 DUP3 DUP3 SHR SWAP1 POP SWAP3 SWAP2 POP POP JUMP JUMPDEST PUSH1 0x0 PUSH2 0x1CE5 PUSH1 0x0 NOT DUP5 PUSH1 0x8 MUL PUSH2 0x1CC7 JUMP JUMPDEST NOT DUP1 DUP4 AND SWAP2 POP POP SWAP3 SWAP2 POP POP JUMP JUMPDEST PUSH1 0x0 PUSH2 0x1CFE DUP4 DUP4 PUSH2 0x1CD4 JUMP JUMPDEST SWAP2 POP DUP3 PUSH1 0x2 MUL DUP3 OR SWAP1 POP SWAP3 SWAP2 POP POP JUMP JUMPDEST PUSH2 0x1D17 DUP3 PUSH2 0x1252 JUMP JUMPDEST PUSH8 0xFFFFFFFFFFFFFFFF DUP2 GT ISZERO PUSH2 0x1D30 JUMPI PUSH2 0x1D2F PUSH2 0x145E JUMP JUMPDEST JUMPDEST PUSH2 0x1D3A DUP3 SLOAD PUSH2 0x19C7 JUMP JUMPDEST PUSH2 0x1D45 DUP3 DUP3 DUP6 PUSH2 0x1C81 JUMP JUMPDEST PUSH1 0x0 PUSH1 0x20 SWAP1 POP PUSH1 0x1F DUP4 GT PUSH1 0x1 DUP2 EQ PUSH2 0x1D78 JUMPI PUSH1 0x0 DUP5 ISZERO PUSH2 0x1D66 JUMPI DUP3 DUP8 ADD MLOAD SWAP1 POP JUMPDEST PUSH2 0x1D70 DUP6 DUP3 PUSH2 0x1CF2 JUMP JUMPDEST DUP7 SSTORE POP PUSH2 0x1DD8 JUMP JUMPDEST PUSH1 0x1F NOT DUP5 AND PUSH2 0x1D86 DUP7 PUSH2 0x1B62 JUMP JUMPDEST PUSH1 0x0 JUMPDEST DUP3 DUP2 LT ISZERO PUSH2 0x1DAE JUMPI DUP5 DUP10 ADD MLOAD DUP3 SSTORE PUSH1 0x1 DUP3 ADD SWAP2 POP PUSH1 0x20 DUP6 ADD SWAP5 POP PUSH1 0x20 DUP2 ADD SWAP1 POP PUSH2 0x1D89 JUMP JUMPDEST DUP7 DUP4 LT ISZERO PUSH2 0x1DCB JUMPI DUP5 DUP10 ADD MLOAD PUSH2 0x1DC7 PUSH1 0x1F DUP10 AND DUP3 PUSH2 0x1CD4 JUMP JUMPDEST DUP4 SSTORE POP JUMPDEST PUSH1 0x1 PUSH1 0x2 DUP9 MUL ADD DUP9 SSTORE POP POP POP JUMPDEST POP POP POP POP POP POP JUMP JUMPDEST PUSH32 0x4E487B7100000000000000000000000000000000000000000000000000000000 PUSH1 0x0 MSTORE PUSH1 0x11 PUSH1 0x4 MSTORE PUSH1 0x24 PUSH1 0x0 REVERT JUMPDEST PUSH1 0x0 PUSH2 0x1E1A DUP3 PUSH2 0x165D JUMP JUMPDEST SWAP2 POP PUSH4 0xFFFFFFFF DUP3 SUB PUSH2 0x1E30 JUMPI PUSH2 0x1E2F PUSH2 0x1DE0 JUMP JUMPDEST JUMPDEST PUSH1 0x1 DUP3 ADD SWAP1 POP SWAP2 SWAP1 POP JUMP JUMPDEST PUSH1 0x0 PUSH1 0x80 DUP3 ADD SWAP1 POP PUSH2 0x1E50 PUSH1 0x0 DUP4 ADD DUP8 PUSH2 0x12F0 JUMP JUMPDEST PUSH2 0x1E5D PUSH1 0x20 DUP4 ADD DUP7 PUSH2 0x142A JUMP JUMPDEST PUSH2 0x1E6A PUSH1 0x40 DUP4 ADD DUP6 PUSH2 0x1376 JUMP JUMPDEST PUSH2 0x1E77 PUSH1 0x60 DUP4 ADD DUP5 PUSH2 0x166D JUMP JUMPDEST SWAP6 SWAP5 POP POP POP POP POP JUMP JUMPDEST PUSH32 0x4E6F206372696D696E616C206461746120617661696C61626C65000000000000 PUSH1 0x0 DUP3 ADD MSTORE POP JUMP JUMPDEST PUSH1 0x0 PUSH2 0x1EB6 PUSH1 0x1A DUP4 PUSH2 0x125D JUMP JUMPDEST SWAP2 POP PUSH2 0x1EC1 DUP3 PUSH2 0x1E80 JUMP JUMPDEST PUSH1 0x20 DUP3 ADD SWAP1 POP SWAP2 SWAP1 POP JUMP JUMPDEST PUSH1 0x0 PUSH1 0x20 DUP3 ADD SWAP1 POP DUP2 DUP2 SUB PUSH1 0x0 DUP4 ADD MSTORE PUSH2 0x1EE5 DUP2 PUSH2 0x1EA9 JUMP JUMPDEST SWAP1 POP SWAP2 SWAP1 POP JUMP JUMPDEST PUSH32 0x4E487B7100000000000000000000000000000000000000000000000000000000 PUSH1 0x0 MSTORE PUSH1 0x32 PUSH1 0x4 MSTORE PUSH1 0x24 PUSH1 0x0 REVERT JUMPDEST PUSH1 0x0 PUSH2 0x1F26 DUP3 PUSH2 0x12E2 JUMP JUMPDEST SWAP2 POP PUSH2 0xFFFF DUP3 SUB PUSH2 0x1F3A JUMPI PUSH2 0x1F39 PUSH2 0x1DE0 JUMP JUMPDEST JUMPDEST PUSH1 0x1 DUP3 ADD SWAP1 POP SWAP2 SWAP1 POP JUMP JUMPDEST PUSH32 0x4372696D696E616C2064617461206E6F7420666F756E64000000000000000000 PUSH1 0x0 DUP3 ADD MSTORE POP JUMP JUMPDEST PUSH1 0x0 PUSH2 0x1F7B PUSH1 0x17 DUP4 PUSH2 0x125D JUMP JUMPDEST SWAP2 POP PUSH2 0x1F86 DUP3 PUSH2 0x1F45 JUMP JUMPDEST PUSH1 0x20 DUP3 ADD SWAP1 POP SWAP2 SWAP1 POP JUMP JUMPDEST PUSH1 0x0 PUSH1 0x20 DUP3 ADD SWAP1 POP DUP2 DUP2 SUB PUSH1 0x0 DUP4 ADD MSTORE PUSH2 0x1FAA DUP2 PUSH2 0x1F6E JUMP JUMPDEST SWAP1 POP SWAP2 SWAP1 POP JUMP JUMPDEST PUSH1 0x0 PUSH2 0x1FBC DUP3 PUSH2 0x1385 JUMP JUMPDEST SWAP2 POP PUSH2 0x1FC7 DUP4 PUSH2 0x1385 JUMP JUMPDEST SWAP3 POP DUP3 DUP3 SUB SWAP1 POP DUP2 DUP2 GT ISZERO PUSH2 0x1FDF JUMPI PUSH2 0x1FDE PUSH2 0x1DE0 JUMP JUMPDEST JUMPDEST SWAP3 SWAP2 POP POP JUMP JUMPDEST PUSH32 0x4E487B7100000000000000000000000000000000000000000000000000000000 PUSH1 0x0 MSTORE PUSH1 0x31 PUSH1 0x4 MSTORE PUSH1 0x24 PUSH1 0x0 REVERT JUMPDEST PUSH1 0x0 PUSH2 0x201F DUP3 PUSH2 0x165D JUMP JUMPDEST SWAP2 POP PUSH1 0x0 DUP3 SUB PUSH2 0x2032 JUMPI PUSH2 0x2031 PUSH2 0x1DE0 JUMP JUMPDEST JUMPDEST PUSH1 0x1 DUP3 SUB SWAP1 POP SWAP2 SWAP1 POP JUMP INVALID LOG2 PUSH5 0x6970667358 0x22 SLT KECCAK256 SELFDESTRUCT SWAP1 SWAP1 0xF9 DUP14 0xC2 PUSH23 0xEC3FC7B772C9020F60C57A9860BA93FB9B63CD1484CA08 PUSH22 0xE664736F6C6343000813003300000000000000000000 "
		},
		"gasEstimates": {
			"creation": {
				"codeDepositCost": "1661400",
				"executionCost": "infinite",
				"totalCost": "infinite"
			},
			"external": {
				"cnicToID(uint56)": "infinite",
				"createEntity(string,uint16,uint56,uint8)": "infinite",
				"criminalCount()": "2538",
				"criminalData(uint56)": "infinite",
				"criminalIds(uint256)": "6571",
				"deleteEntity(uint56)": "infinite",
				"getAllCriminals()": "infinite",
				"getEntity(uint56)": "infinite",
				"owner()": "infinite"
			}
		},
		"methodIdentifiers": {
			"cnicToID(uint56)": "ef50a704",
			"createEntity(string,uint16,uint56,uint8)": "b087814d",
			"criminalCount()": "b6ba75ce",
			"criminalData(uint56)": "598fc9f0",
			"criminalIds(uint256)": "d49ce9c8",
			"deleteEntity(uint56)": "edc038c9",
			"getAllCriminals()": "eb15d674",
			"getEntity(uint56)": "b72af1d7",
			"owner()": "8da5cb5b"
		}
	},
	"abi": [
		{
			"inputs": [],
			"stateMutability": "nonpayable",
			"type": "constructor"
		},
		{
			"anonymous": false,
			"inputs": [
				{
					"indexed": false,
					"internalType": "uint16",
					"name": "id",
					"type": "uint16"
				},
				{
					"indexed": false,
					"internalType": "address",
					"name": "owner",
					"type": "address"
				},
				{
					"indexed": false,
					"internalType": "enum CriminalDataSender.Sensitivity",
					"name": "sensitivity",
					"type": "uint8"
				},
				{
					"indexed": false,
					"internalType": "uint32",
					"name": "criminalCount",
					"type": "uint32"
				}
			],
			"name": "EntityCreated",
			"type": "event"
		},
		{
			"anonymous": false,
			"inputs": [
				{
					"indexed": true,
					"internalType": "uint56",
					"name": "cnic",
					"type": "uint56"
				}
			],
			"name": "EntityDeleted",
			"type": "event"
		},
		{
			"inputs": [
				{
					"internalType": "uint56",
					"name": "",
					"type": "uint56"
				}
			],
			"name": "cnicToID",
			"outputs": [
				{
					"internalType": "uint56",
					"name": "",
					"type": "uint56"
				}
			],
			"stateMutability": "view",
			"type": "function"
		},
		{
			"inputs": [
				{
					"internalType": "string",
					"name": "_name",
					"type": "string"
				},
				{
					"internalType": "uint16",
					"name": "_id",
					"type": "uint16"
				},
				{
					"internalType": "uint56",
					"name": "_cnic",
					"type": "uint56"
				},
				{
					"internalType": "enum CriminalDataSender.Sensitivity",
					"name": "sensitivity",
					"type": "uint8"
				}
			],
			"name": "createEntity",
			"outputs": [],
			"stateMutability": "nonpayable",
			"type": "function"
		},
		{
			"inputs": [],
			"name": "criminalCount",
			"outputs": [
				{
					"internalType": "uint32",
					"name": "",
					"type": "uint32"
				}
			],
			"stateMutability": "view",
			"type": "function"
		},
		{
			"inputs": [
				{
					"internalType": "uint56",
					"name": "",
					"type": "uint56"
				}
			],
			"name": "criminalData",
			"outputs": [
				{
					"internalType": "string",
					"name": "name",
					"type": "string"
				},
				{
					"internalType": "uint16",
					"name": "id",
					"type": "uint16"
				},
				{
					"internalType": "uint56",
					"name": "cnic",
					"type": "uint56"
				},
				{
					"internalType": "enum CriminalDataSender.Sensitivity",
					"name": "sensitivity",
					"type": "uint8"
				},
				{
					"internalType": "uint256",
					"name": "timeStamp",
					"type": "uint256"
				}
			],
			"stateMutability": "view",
			"type": "function"
		},
		{
			"inputs": [
				{
					"internalType": "uint256",
					"name": "",
					"type": "uint256"
				}
			],
			"name": "criminalIds",
			"outputs": [
				{
					"internalType": "uint56",
					"name": "",
					"type": "uint56"
				}
			],
			"stateMutability": "view",
			"type": "function"
		},
		{
			"inputs": [
				{
					"internalType": "uint56",
					"name": "_cnic",
					"type": "uint56"
				}
			],
			"name": "deleteEntity",
			"outputs": [],
			"stateMutability": "nonpayable",
			"type": "function"
		},
		{
			"inputs": [],
			"name": "getAllCriminals",
			"outputs": [
				{
					"components": [
						{
							"internalType": "string",
							"name": "name",
							"type": "string"
						},
						{
							"internalType": "uint16",
							"name": "id",
							"type": "uint16"
						},
						{
							"internalType": "uint56",
							"name": "cnic",
							"type": "uint56"
						},
						{
							"internalType": "enum CriminalDataSender.Sensitivity",
							"name": "sensitivity",
							"type": "uint8"
						},
						{
							"internalType": "uint256",
							"name": "timeStamp",
							"type": "uint256"
						}
					],
					"internalType": "struct CriminalDataSender.Entity[]",
					"name": "",
					"type": "tuple[]"
				}
			],
			"stateMutability": "view",
			"type": "function"
		},
		{
			"inputs": [
				{
					"internalType": "uint56",
					"name": "_cnic",
					"type": "uint56"
				}
			],
			"name": "getEntity",
			"outputs": [
				{
					"components": [
						{
							"internalType": "string",
							"name": "name",
							"type": "string"
						},
						{
							"internalType": "uint16",
							"name": "id",
							"type": "uint16"
						},
						{
							"internalType": "uint56",
							"name": "cnic",
							"type": "uint56"
						},
						{
							"internalType": "enum CriminalDataSender.Sensitivity",
							"name": "sensitivity",
							"type": "uint8"
						},
						{
							"internalType": "uint256",
							"name": "timeStamp",
							"type": "uint256"
						}
					],
					"internalType": "struct CriminalDataSender.Entity",
					"name": "",
					"type": "tuple"
				},
				{
					"internalType": "string",
					"name": "",
					"type": "string"
				}
			],
			"stateMutability": "view",
			"type": "function"
		},
		{
			"inputs": [],
			"name": "owner",
			"outputs": [
				{
					"internalType": "address",
					"name": "",
					"type": "address"
				}
			],
			"stateMutability": "view",
			"type": "function"
		}
	]
}