{
  "contractName": "CriminalDataSender",
  "abi": [
    {
      "inputs": [],
      "stateMutability": "nonpayable",
      "type": "constructor"
    },
    {
      "anonymous": false,
      "inputs": [
        {
          "indexed": false,
          "internalType": "uint56",
          "name": "cnic",
          "type": "uint56"
        },
        {
          "indexed": false,
          "internalType": "address",
          "name": "owner",
          "type": "address"
        }
      ],
      "name": "EntityCreated",
      "type": "event"
    },
    {
      "anonymous": false,
      "inputs": [
        {
          "indexed": false,
          "internalType": "uint56",
          "name": "id",
          "type": "uint56"
        }
      ],
      "name": "EntityUpdated",
      "type": "event"
    },
    {
      "inputs": [
        {
          "internalType": "uint56",
          "name": "",
          "type": "uint56"
        }
      ],
      "name": "cnicToID",
      "outputs": [
        {
          "internalType": "uint56",
          "name": "",
          "type": "uint56"
        }
      ],
      "stateMutability": "view",
      "type": "function"
    },
    {
      "inputs": [],
      "name": "criminalCount",
      "outputs": [
        {
          "internalType": "uint32",
          "name": "",
          "type": "uint32"
        }
      ],
      "stateMutability": "view",
      "type": "function"
    },
    {
      "inputs": [
        {
          "internalType": "uint56",
          "name": "",
          "type": "uint56"
        }
      ],
      "name": "criminalData",
      "outputs": [
        {
          "components": [
            {
              "internalType": "string",
              "name": "name",
              "type": "string"
            },
            {
              "internalType": "string",
              "name": "fatherName",
              "type": "string"
            },
            {
              "internalType": "uint16",
              "name": "age",
              "type": "uint16"
            },
            {
              "internalType": "uint56",
              "name": "cnic",
              "type": "uint56"
            },
            {
              "internalType": "string",
              "name": "location",
              "type": "string"
            },
            {
              "internalType": "string",
              "name": "gender",
              "type": "string"
            }
          ],
          "internalType": "struct CriminalDataSender.PersonalDetails",
          "name": "personal",
          "type": "tuple"
        },
        {
          "components": [
            {
              "internalType": "uint16",
              "name": "id",
              "type": "uint16"
            },
            {
              "internalType": "enum CriminalDataSender.CrimeSeverity",
              "name": "crimeSeverity",
              "type": "uint8"
            },
            {
              "internalType": "string",
              "name": "offenseDescription",
              "type": "string"
            },
            {
              "internalType": "uint8",
              "name": "offenseCode",
              "type": "uint8"
            },
            {
              "internalType": "uint56",
              "name": "offenseDate",
              "type": "uint56"
            },
            {
              "internalType": "uint16",
              "name": "caseId",
              "type": "uint16"
            },
            {
              "internalType": "string",
              "name": "investigationOfficer",
              "type": "string"
            },
            {
              "internalType": "string",
              "name": "courtVerdict",
              "type": "string"
            }
          ],
          "internalType": "struct CriminalDataSender.CrimeDetails",
          "name": "crime",
          "type": "tuple"
        },
        {
          "components": [
            {
              "internalType": "string",
              "name": "prisonLocation",
              "type": "string"
            },
            {
              "internalType": "uint8",
              "name": "prisonId",
              "type": "uint8"
            },
            {
              "internalType": "uint8",
              "name": "tenure",
              "type": "uint8"
            },
            {
              "internalType": "uint8",
              "name": "prisonCode",
              "type": "uint8"
            }
          ],
          "internalType": "struct CriminalDataSender.PrisonDetails",
          "name": "prison",
          "type": "tuple"
        },
        {
          "internalType": "uint256",
          "name": "timeStamp",
          "type": "uint256"
        }
      ],
      "stateMutability": "view",
      "type": "function"
    },
    {
      "inputs": [
        {
          "internalType": "uint256",
          "name": "",
          "type": "uint256"
        }
      ],
      "name": "criminalIds",
      "outputs": [
        {
          "internalType": "uint56",
          "name": "",
          "type": "uint56"
        }
      ],
      "stateMutability": "view",
      "type": "function"
    },
    {
      "inputs": [],
      "name": "owner",
      "outputs": [
        {
          "internalType": "address",
          "name": "",
          "type": "address"
        }
      ],
      "stateMutability": "view",
      "type": "function"
    },
    {
      "inputs": [
        {
          "components": [
            {
              "internalType": "string",
              "name": "name",
              "type": "string"
            },
            {
              "internalType": "string",
              "name": "fatherName",
              "type": "string"
            },
            {
              "internalType": "uint16",
              "name": "age",
              "type": "uint16"
            },
            {
              "internalType": "uint56",
              "name": "cnic",
              "type": "uint56"
            },
            {
              "internalType": "string",
              "name": "location",
              "type": "string"
            },
            {
              "internalType": "string",
              "name": "gender",
              "type": "string"
            }
          ],
          "internalType": "struct CriminalDataSender.PersonalDetails",
          "name": "_personal",
          "type": "tuple"
        },
        {
          "components": [
            {
              "internalType": "uint16",
              "name": "id",
              "type": "uint16"
            },
            {
              "internalType": "enum CriminalDataSender.CrimeSeverity",
              "name": "crimeSeverity",
              "type": "uint8"
            },
            {
              "internalType": "string",
              "name": "offenseDescription",
              "type": "string"
            },
            {
              "internalType": "uint8",
              "name": "offenseCode",
              "type": "uint8"
            },
            {
              "internalType": "uint56",
              "name": "offenseDate",
              "type": "uint56"
            },
            {
              "internalType": "uint16",
              "name": "caseId",
              "type": "uint16"
            },
            {
              "internalType": "string",
              "name": "investigationOfficer",
              "type": "string"
            },
            {
              "internalType": "string",
              "name": "courtVerdict",
              "type": "string"
            }
          ],
          "internalType": "struct CriminalDataSender.CrimeDetails",
          "name": "_crime",
          "type": "tuple"
        },
        {
          "components": [
            {
              "internalType": "string",
              "name": "prisonLocation",
              "type": "string"
            },
            {
              "internalType": "uint8",
              "name": "prisonId",
              "type": "uint8"
            },
            {
              "internalType": "uint8",
              "name": "tenure",
              "type": "uint8"
            },
            {
              "internalType": "uint8",
              "name": "prisonCode",
              "type": "uint8"
            }
          ],
          "internalType": "struct CriminalDataSender.PrisonDetails",
          "name": "_prison",
          "type": "tuple"
        }
      ],
      "name": "createEntity",
      "outputs": [],
      "stateMutability": "nonpayable",
      "type": "function"
    },
    {
      "inputs": [
        {
          "internalType": "uint56",
          "name": "_cnic",
          "type": "uint56"
        }
      ],
      "name": "getEntity",
      "outputs": [
        {
          "components": [
            {
              "components": [
                {
                  "internalType": "string",
                  "name": "name",
                  "type": "string"
                },
                {
                  "internalType": "string",
                  "name": "fatherName",
                  "type": "string"
                },
                {
                  "internalType": "uint16",
                  "name": "age",
                  "type": "uint16"
                },
                {
                  "internalType": "uint56",
                  "name": "cnic",
                  "type": "uint56"
                },
                {
                  "internalType": "string",
                  "name": "location",
                  "type": "string"
                },
                {
                  "internalType": "string",
                  "name": "gender",
                  "type": "string"
                }
              ],
              "internalType": "struct CriminalDataSender.PersonalDetails",
              "name": "personal",
              "type": "tuple"
            },
            {
              "components": [
                {
                  "internalType": "uint16",
                  "name": "id",
                  "type": "uint16"
                },
                {
                  "internalType": "enum CriminalDataSender.CrimeSeverity",
                  "name": "crimeSeverity",
                  "type": "uint8"
                },
                {
                  "internalType": "string",
                  "name": "offenseDescription",
                  "type": "string"
                },
                {
                  "internalType": "uint8",
                  "name": "offenseCode",
                  "type": "uint8"
                },
                {
                  "internalType": "uint56",
                  "name": "offenseDate",
                  "type": "uint56"
                },
                {
                  "internalType": "uint16",
                  "name": "caseId",
                  "type": "uint16"
                },
                {
                  "internalType": "string",
                  "name": "investigationOfficer",
                  "type": "string"
                },
                {
                  "internalType": "string",
                  "name": "courtVerdict",
                  "type": "string"
                }
              ],
              "internalType": "struct CriminalDataSender.CrimeDetails",
              "name": "crime",
              "type": "tuple"
            },
            {
              "components": [
                {
                  "internalType": "string",
                  "name": "prisonLocation",
                  "type": "string"
                },
                {
                  "internalType": "uint8",
                  "name": "prisonId",
                  "type": "uint8"
                },
                {
                  "internalType": "uint8",
                  "name": "tenure",
                  "type": "uint8"
                },
                {
                  "internalType": "uint8",
                  "name": "prisonCode",
                  "type": "uint8"
                }
              ],
              "internalType": "struct CriminalDataSender.PrisonDetails",
              "name": "prison",
              "type": "tuple"
            },
            {
              "internalType": "uint256",
              "name": "timeStamp",
              "type": "uint256"
            }
          ],
          "internalType": "struct CriminalDataSender.CriminalEntity",
          "name": "",
          "type": "tuple"
        }
      ],
      "stateMutability": "view",
      "type": "function"
    },
    {
      "inputs": [],
      "name": "getAllCriminals",
      "outputs": [
        {
          "components": [
            {
              "components": [
                {
                  "internalType": "string",
                  "name": "name",
                  "type": "string"
                },
                {
                  "internalType": "string",
                  "name": "fatherName",
                  "type": "string"
                },
                {
                  "internalType": "uint16",
                  "name": "age",
                  "type": "uint16"
                },
                {
                  "internalType": "uint56",
                  "name": "cnic",
                  "type": "uint56"
                },
                {
                  "internalType": "string",
                  "name": "location",
                  "type": "string"
                },
                {
                  "internalType": "string",
                  "name": "gender",
                  "type": "string"
                }
              ],
              "internalType": "struct CriminalDataSender.PersonalDetails",
              "name": "personal",
              "type": "tuple"
            },
            {
              "components": [
                {
                  "internalType": "uint16",
                  "name": "id",
                  "type": "uint16"
                },
                {
                  "internalType": "enum CriminalDataSender.CrimeSeverity",
                  "name": "crimeSeverity",
                  "type": "uint8"
                },
                {
                  "internalType": "string",
                  "name": "offenseDescription",
                  "type": "string"
                },
                {
                  "internalType": "uint8",
                  "name": "offenseCode",
                  "type": "uint8"
                },
                {
                  "internalType": "uint56",
                  "name": "offenseDate",
                  "type": "uint56"
                },
                {
                  "internalType": "uint16",
                  "name": "caseId",
                  "type": "uint16"
                },
                {
                  "internalType": "string",
                  "name": "investigationOfficer",
                  "type": "string"
                },
                {
                  "internalType": "string",
                  "name": "courtVerdict",
                  "type": "string"
                }
              ],
              "internalType": "struct CriminalDataSender.CrimeDetails",
              "name": "crime",
              "type": "tuple"
            },
            {
              "components": [
                {
                  "internalType": "string",
                  "name": "prisonLocation",
                  "type": "string"
                },
                {
                  "internalType": "uint8",
                  "name": "prisonId",
                  "type": "uint8"
                },
                {
                  "internalType": "uint8",
                  "name": "tenure",
                  "type": "uint8"
                },
                {
                  "internalType": "uint8",
                  "name": "prisonCode",
                  "type": "uint8"
                }
              ],
              "internalType": "struct CriminalDataSender.PrisonDetails",
              "name": "prison",
              "type": "tuple"
            },
            {
              "internalType": "uint256",
              "name": "timeStamp",
              "type": "uint256"
            }
          ],
          "internalType": "struct CriminalDataSender.CriminalEntity[]",
          "name": "",
          "type": "tuple[]"
        }
      ],
      "stateMutability": "view",
      "type": "function"
    },
    {
      "inputs": [
        {
          "internalType": "uint56",
          "name": "_cnic",
          "type": "uint56"
        },
        {
          "components": [
            {
              "internalType": "string",
              "name": "name",
              "type": "string"
            },
            {
              "internalType": "string",
              "name": "fatherName",
              "type": "string"
            },
            {
              "internalType": "uint16",
              "name": "age",
              "type": "uint16"
            },
            {
              "internalType": "uint56",
              "name": "cnic",
              "type": "uint56"
            },
            {
              "internalType": "string",
              "name": "location",
              "type": "string"
            },
            {
              "internalType": "string",
              "name": "gender",
              "type": "string"
            }
          ],
          "internalType": "struct CriminalDataSender.PersonalDetails",
          "name": "_personal",
          "type": "tuple"
        },
        {
          "components": [
            {
              "internalType": "uint16",
              "name": "id",
              "type": "uint16"
            },
            {
              "internalType": "enum CriminalDataSender.CrimeSeverity",
              "name": "crimeSeverity",
              "type": "uint8"
            },
            {
              "internalType": "string",
              "name": "offenseDescription",
              "type": "string"
            },
            {
              "internalType": "uint8",
              "name": "offenseCode",
              "type": "uint8"
            },
            {
              "internalType": "uint56",
              "name": "offenseDate",
              "type": "uint56"
            },
            {
              "internalType": "uint16",
              "name": "caseId",
              "type": "uint16"
            },
            {
              "internalType": "string",
              "name": "investigationOfficer",
              "type": "string"
            },
            {
              "internalType": "string",
              "name": "courtVerdict",
              "type": "string"
            }
          ],
          "internalType": "struct CriminalDataSender.CrimeDetails",
          "name": "_crime",
          "type": "tuple"
        },
        {
          "components": [
            {
              "internalType": "string",
              "name": "prisonLocation",
              "type": "string"
            },
            {
              "internalType": "uint8",
              "name": "prisonId",
              "type": "uint8"
            },
            {
              "internalType": "uint8",
              "name": "tenure",
              "type": "uint8"
            },
            {
              "internalType": "uint8",
              "name": "prisonCode",
              "type": "uint8"
            }
          ],
          "internalType": "struct CriminalDataSender.PrisonDetails",
          "name": "_prison",
          "type": "tuple"
        }
      ],
      "name": "updateEntity",
      "outputs": [],
      "stateMutability": "nonpayable",
      "type": "function"
    }
  ],
  "bytecode": "0x60a06040526000600360006101000a81548163ffffffff021916908363ffffffff16021790555034801561003257600080fd5b503373ffffffffffffffffffffffffffffffffffffffff1660808173ffffffffffffffffffffffffffffffffffffffff16815250506080516137bc6100a5600039600081816101ef015281816106ca01528181610d5201528181610d8c01528181611183015261195401526137bc6000f3fe608060405234801561001057600080fd5b50600436106100935760003560e01c8063b70b755111610066578063b70b755114610123578063b72af1d71461013f578063d49ce9c81461016f578063eb15d6741461019f578063ef50a704146101bd57610093565b806330d3934814610098578063598fc9f0146100b45780638da5cb5b146100e7578063b6ba75ce14610105575b600080fd5b6100b260048036038101906100ad91906127c5565b6101ed565b005b6100ce60048036038101906100c9919061286c565b610704565b6040516100de9493929190612b94565b60405180910390f35b6100ef610d50565b6040516100fc9190612c2f565b60405180910390f35b61010d610d74565b60405161011a9190612c69565b60405180910390f35b61013d60048036038101906101389190612c84565b610d8a565b005b6101596004803603810190610154919061286c565b611179565b6040516101669190612f7e565b60405180910390f35b61018960048036038101906101849190612fcc565b611913565b6040516101969190613008565b60405180910390f35b6101a7611950565b6040516101b49190613156565b60405180910390f35b6101d760048036038101906101d2919061286c565b612189565b6040516101e49190613008565b60405180910390f35b7f000000000000000000000000000000000000000000000000000000000000000073ffffffffffffffffffffffffffffffffffffffff163373ffffffffffffffffffffffffffffffffffffffff161461027b576040517f08c379a0000000000000000000000000000000000000000000000000000000008152600401610272906131fb565b60405180910390fd5b6000836060015166ffffffffffffff16036102cb576040517f08c379a00000000000000000000000000000000000000000000000000000000081526004016102c290613267565b60405180910390fd5b6000826000015161ffff1603610316576040517f08c379a000000000000000000000000000000000000000000000000000000000815260040161030d906132d3565b60405180910390fd5b604051806080016040528084815260200183815260200182815260200142815250600080846000015161ffff1666ffffffffffffff168152602001908152602001600020600082015181600001600082015181600001908161037891906134ff565b50602082015181600101908161038e91906134ff565b5060408201518160020160006101000a81548161ffff021916908361ffff16021790555060608201518160020160026101000a81548166ffffffffffffff021916908366ffffffffffffff16021790555060808201518160030190816103f491906134ff565b5060a082015181600401908161040a91906134ff565b50505060208201518160050160008201518160000160006101000a81548161ffff021916908361ffff16021790555060208201518160000160026101000a81548160ff02191690836002811115610464576104636129d4565b5b0217905550604082015181600101908161047e91906134ff565b5060608201518160020160006101000a81548160ff021916908360ff16021790555060808201518160020160016101000a81548166ffffffffffffff021916908366ffffffffffffff16021790555060a08201518160020160086101000a81548161ffff021916908361ffff16021790555060c082015181600301908161050591906134ff565b5060e082015181600401908161051b91906134ff565b505050604082015181600a01600082015181600001908161053c91906134ff565b5060208201518160010160006101000a81548160ff021916908360ff16021790555060408201518160010160016101000a81548160ff021916908360ff16021790555060608201518160010160026101000a81548160ff021916908360ff1602179055505050606082015181600c0155905050816000015161ffff1660016000856060015166ffffffffffffff1666ffffffffffffff16815260200190815260200160002060006101000a81548166ffffffffffffff021916908366ffffffffffffff160217905550600282600001519080600181540180825580915050600190039060005260206000209060049182820401919006600702909161ffff16909190916101000a81548166ffffffffffffff021916908366ffffffffffffff1602179055506003600081819054906101000a900463ffffffff168092919061068390613600565b91906101000a81548163ffffffff021916908363ffffffff160217905550507fde766d924ef28c422bb309ef24be20af84c5e80ebd910c580f77b179abb956be83606001517f00000000000000000000000000000000000000000000000000000000000000006040516106f792919061362c565b60405180910390a1505050565b6000602052806000526040600020600091509050806000016040518060c001604052908160008201805461073790613322565b80601f016020809104026020016040519081016040528092919081815260200182805461076390613322565b80156107b05780601f10610785576101008083540402835291602001916107b0565b820191906000526020600020905b81548152906001019060200180831161079357829003601f168201915b505050505081526020016001820180546107c990613322565b80601f01602080910402602001604051908101604052809291908181526020018280546107f590613322565b80156108425780601f1061081757610100808354040283529160200191610842565b820191906000526020600020905b81548152906001019060200180831161082557829003601f168201915b505050505081526020016002820160009054906101000a900461ffff1661ffff1661ffff1681526020016002820160029054906101000a900466ffffffffffffff1666ffffffffffffff1666ffffffffffffff1681526020016003820180546108aa90613322565b80601f01602080910402602001604051908101604052809291908181526020018280546108d690613322565b80156109235780601f106108f857610100808354040283529160200191610923565b820191906000526020600020905b81548152906001019060200180831161090657829003601f168201915b5050505050815260200160048201805461093c90613322565b80601f016020809104026020016040519081016040528092919081815260200182805461096890613322565b80156109b55780601f1061098a576101008083540402835291602001916109b5565b820191906000526020600020905b81548152906001019060200180831161099857829003601f168201915b5050505050815250509080600501604051806101000160405290816000820160009054906101000a900461ffff1661ffff1661ffff1681526020016000820160029054906101000a900460ff166002811115610a1457610a136129d4565b5b6002811115610a2657610a256129d4565b5b8152602001600182018054610a3a90613322565b80601f0160208091040260200160405190810160405280929190818152602001828054610a6690613322565b8015610ab35780601f10610a8857610100808354040283529160200191610ab3565b820191906000526020600020905b815481529060010190602001808311610a9657829003601f168201915b505050505081526020016002820160009054906101000a900460ff1660ff1660ff1681526020016002820160019054906101000a900466ffffffffffffff1666ffffffffffffff1666ffffffffffffff1681526020016002820160089054906101000a900461ffff1661ffff1661ffff168152602001600382018054610b3890613322565b80601f0160208091040260200160405190810160405280929190818152602001828054610b6490613322565b8015610bb15780601f10610b8657610100808354040283529160200191610bb1565b820191906000526020600020905b815481529060010190602001808311610b9457829003601f168201915b50505050508152602001600482018054610bca90613322565b80601f0160208091040260200160405190810160405280929190818152602001828054610bf690613322565b8015610c435780601f10610c1857610100808354040283529160200191610c43565b820191906000526020600020905b815481529060010190602001808311610c2657829003601f168201915b5050505050815250509080600a01604051806080016040529081600082018054610c6c90613322565b80601f0160208091040260200160405190810160405280929190818152602001828054610c9890613322565b8015610ce55780601f10610cba57610100808354040283529160200191610ce5565b820191906000526020600020905b815481529060010190602001808311610cc857829003601f168201915b505050505081526020016001820160009054906101000a900460ff1660ff1660ff1681526020016001820160019054906101000a900460ff1660ff1660ff1681526020016001820160029054906101000a900460ff1660ff1660ff16815250509080600c0154905084565b7f000000000000000000000000000000000000000000000000000000000000000081565b600360009054906101000a900463ffffffff1681565b7f000000000000000000000000000000000000000000000000000000000000000073ffffffffffffffffffffffffffffffffffffffff163373ffffffffffffffffffffffffffffffffffffffff1614610e18576040517f08c379a0000000000000000000000000000000000000000000000000000000008152600401610e0f906131fb565b60405180910390fd5b6000600160008666ffffffffffffff1666ffffffffffffff16815260200190815260200160002060009054906101000a900466ffffffffffffff16905060008166ffffffffffffff1603610ea1576040517f08c379a0000000000000000000000000000000000000000000000000000000008152600401610e98906136a1565b60405180910390fd5b6040518060800160405280858152602001848152602001838152602001428152506000808366ffffffffffffff1666ffffffffffffff1681526020019081526020016000206000820151816000016000820151816000019081610f0491906134ff565b506020820151816001019081610f1a91906134ff565b5060408201518160020160006101000a81548161ffff021916908361ffff16021790555060608201518160020160026101000a81548166ffffffffffffff021916908366ffffffffffffff1602179055506080820151816003019081610f8091906134ff565b5060a0820151816004019081610f9691906134ff565b50505060208201518160050160008201518160000160006101000a81548161ffff021916908361ffff16021790555060208201518160000160026101000a81548160ff02191690836002811115610ff057610fef6129d4565b5b0217905550604082015181600101908161100a91906134ff565b5060608201518160020160006101000a81548160ff021916908360ff16021790555060808201518160020160016101000a81548166ffffffffffffff021916908366ffffffffffffff16021790555060a08201518160020160086101000a81548161ffff021916908361ffff16021790555060c082015181600301908161109191906134ff565b5060e08201518160040190816110a791906134ff565b505050604082015181600a0160008201518160000190816110c891906134ff565b5060208201518160010160006101000a81548160ff021916908360ff16021790555060408201518160010160016101000a81548160ff021916908360ff16021790555060608201518160010160026101000a81548160ff021916908360ff1602179055505050606082015181600c01559050507f08c565e127754a431070c061446b1bc33db1d6a12b7bd51b09dded3ee844dd088160405161116a9190613008565b60405180910390a15050505050565b6111816121af565b7f000000000000000000000000000000000000000000000000000000000000000073ffffffffffffffffffffffffffffffffffffffff163373ffffffffffffffffffffffffffffffffffffffff161461120f576040517f08c379a0000000000000000000000000000000000000000000000000000000008152600401611206906131fb565b60405180910390fd5b6000600160008466ffffffffffffff1666ffffffffffffff16815260200190815260200160002060009054906101000a900466ffffffffffffff16905060008166ffffffffffffff1603611298576040517f08c379a000000000000000000000000000000000000000000000000000000000815260040161128f906136a1565b60405180910390fd5b6000808266ffffffffffffff1666ffffffffffffff168152602001908152602001600020604051806080016040529081600082016040518060c00160405290816000820180546112e790613322565b80601f016020809104026020016040519081016040528092919081815260200182805461131390613322565b80156113605780601f1061133557610100808354040283529160200191611360565b820191906000526020600020905b81548152906001019060200180831161134357829003601f168201915b5050505050815260200160018201805461137990613322565b80601f01602080910402602001604051908101604052809291908181526020018280546113a590613322565b80156113f25780601f106113c7576101008083540402835291602001916113f2565b820191906000526020600020905b8154815290600101906020018083116113d557829003601f168201915b505050505081526020016002820160009054906101000a900461ffff1661ffff1661ffff1681526020016002820160029054906101000a900466ffffffffffffff1666ffffffffffffff1666ffffffffffffff16815260200160038201805461145a90613322565b80601f016020809104026020016040519081016040528092919081815260200182805461148690613322565b80156114d35780601f106114a8576101008083540402835291602001916114d3565b820191906000526020600020905b8154815290600101906020018083116114b657829003601f168201915b505050505081526020016004820180546114ec90613322565b80601f016020809104026020016040519081016040528092919081815260200182805461151890613322565b80156115655780601f1061153a57610100808354040283529160200191611565565b820191906000526020600020905b81548152906001019060200180831161154857829003601f168201915b505050505081525050815260200160058201604051806101000160405290816000820160009054906101000a900461ffff1661ffff1661ffff1681526020016000820160029054906101000a900460ff1660028111156115c8576115c76129d4565b5b60028111156115da576115d96129d4565b5b81526020016001820180546115ee90613322565b80601f016020809104026020016040519081016040528092919081815260200182805461161a90613322565b80156116675780601f1061163c57610100808354040283529160200191611667565b820191906000526020600020905b81548152906001019060200180831161164a57829003601f168201915b505050505081526020016002820160009054906101000a900460ff1660ff1660ff1681526020016002820160019054906101000a900466ffffffffffffff1666ffffffffffffff1666ffffffffffffff1681526020016002820160089054906101000a900461ffff1661ffff1661ffff1681526020016003820180546116ec90613322565b80601f016020809104026020016040519081016040528092919081815260200182805461171890613322565b80156117655780601f1061173a57610100808354040283529160200191611765565b820191906000526020600020905b81548152906001019060200180831161174857829003601f168201915b5050505050815260200160048201805461177e90613322565b80601f01602080910402602001604051908101604052809291908181526020018280546117aa90613322565b80156117f75780601f106117cc576101008083540402835291602001916117f7565b820191906000526020600020905b8154815290600101906020018083116117da57829003601f168201915b5050505050815250508152602001600a820160405180608001604052908160008201805461182490613322565b80601f016020809104026020016040519081016040528092919081815260200182805461185090613322565b801561189d5780601f106118725761010080835404028352916020019161189d565b820191906000526020600020905b81548152906001019060200180831161188057829003601f168201915b505050505081526020016001820160009054906101000a900460ff1660ff1660ff1681526020016001820160019054906101000a900460ff1660ff1660ff1681526020016001820160029054906101000a900460ff1660ff1660ff16815250508152602001600c82015481525050915050919050565b6002818154811061192357600080fd5b9060005260206000209060049182820401919006600702915054906101000a900466ffffffffffffff1681565b60607f000000000000000000000000000000000000000000000000000000000000000073ffffffffffffffffffffffffffffffffffffffff163373ffffffffffffffffffffffffffffffffffffffff16146119e0576040517f08c379a00000000000000000000000000000000000000000000000000000000081526004016119d7906131fb565b60405180910390fd5b600060028054905011611a28576040517f08c379a0000000000000000000000000000000000000000000000000000000008152600401611a1f9061370d565b60405180910390fd5b600060028054905067ffffffffffffffff811115611a4957611a486122f2565b5b604051908082528060200260200182016040528015611a8257816020015b611a6f6121af565b815260200190600190039081611a675790505b50905060005b6002805490508161ffff1610156121815760008060028361ffff1681548110611ab457611ab361372d565b5b90600052602060002090600491828204019190066007029054906101000a900466ffffffffffffff1666ffffffffffffff1666ffffffffffffff168152602001908152602001600020604051806080016040529081600082016040518060c0016040529081600082018054611b2890613322565b80601f0160208091040260200160405190810160405280929190818152602001828054611b5490613322565b8015611ba15780601f10611b7657610100808354040283529160200191611ba1565b820191906000526020600020905b815481529060010190602001808311611b8457829003601f168201915b50505050508152602001600182018054611bba90613322565b80601f0160208091040260200160405190810160405280929190818152602001828054611be690613322565b8015611c335780601f10611c0857610100808354040283529160200191611c33565b820191906000526020600020905b815481529060010190602001808311611c1657829003601f168201915b505050505081526020016002820160009054906101000a900461ffff1661ffff1661ffff1681526020016002820160029054906101000a900466ffffffffffffff1666ffffffffffffff1666ffffffffffffff168152602001600382018054611c9b90613322565b80601f0160208091040260200160405190810160405280929190818152602001828054611cc790613322565b8015611d145780601f10611ce957610100808354040283529160200191611d14565b820191906000526020600020905b815481529060010190602001808311611cf757829003601f168201915b50505050508152602001600482018054611d2d90613322565b80601f0160208091040260200160405190810160405280929190818152602001828054611d5990613322565b8015611da65780601f10611d7b57610100808354040283529160200191611da6565b820191906000526020600020905b815481529060010190602001808311611d8957829003601f168201915b505050505081525050815260200160058201604051806101000160405290816000820160009054906101000a900461ffff1661ffff1661ffff1681526020016000820160029054906101000a900460ff166002811115611e0957611e086129d4565b5b6002811115611e1b57611e1a6129d4565b5b8152602001600182018054611e2f90613322565b80601f0160208091040260200160405190810160405280929190818152602001828054611e5b90613322565b8015611ea85780601f10611e7d57610100808354040283529160200191611ea8565b820191906000526020600020905b815481529060010190602001808311611e8b57829003601f168201915b505050505081526020016002820160009054906101000a900460ff1660ff1660ff1681526020016002820160019054906101000a900466ffffffffffffff1666ffffffffffffff1666ffffffffffffff1681526020016002820160089054906101000a900461ffff1661ffff1661ffff168152602001600382018054611f2d90613322565b80601f0160208091040260200160405190810160405280929190818152602001828054611f5990613322565b8015611fa65780601f10611f7b57610100808354040283529160200191611fa6565b820191906000526020600020905b815481529060010190602001808311611f8957829003601f168201915b50505050508152602001600482018054611fbf90613322565b80601f0160208091040260200160405190810160405280929190818152602001828054611feb90613322565b80156120385780601f1061200d57610100808354040283529160200191612038565b820191906000526020600020905b81548152906001019060200180831161201b57829003601f168201915b5050505050815250508152602001600a820160405180608001604052908160008201805461206590613322565b80601f016020809104026020016040519081016040528092919081815260200182805461209190613322565b80156120de5780601f106120b3576101008083540402835291602001916120de565b820191906000526020600020905b8154815290600101906020018083116120c157829003601f168201915b505050505081526020016001820160009054906101000a900460ff1660ff1660ff1681526020016001820160019054906101000a900460ff1660ff1660ff1681526020016001820160029054906101000a900460ff1660ff1660ff16815250508152602001600c82015481525050828261ffff16815181106121635761216261372d565b5b602002602001018190525080806121799061375c565b915050611a88565b508091505090565b60016020528060005260406000206000915054906101000a900466ffffffffffffff1681565b60405180608001604052806121c26121e9565b81526020016121cf61222c565b81526020016121dc612297565b8152602001600081525090565b6040518060c001604052806060815260200160608152602001600061ffff168152602001600066ffffffffffffff16815260200160608152602001606081525090565b604051806101000160405280600061ffff16815260200160006002811115612257576122566129d4565b5b815260200160608152602001600060ff168152602001600066ffffffffffffff168152602001600061ffff16815260200160608152602001606081525090565b604051806080016040528060608152602001600060ff168152602001600060ff168152602001600060ff1681525090565b6000604051905090565b600080fd5b600080fd5b600080fd5b6000601f19601f8301169050919050565b7f4e487b7100000000000000000000000000000000000000000000000000000000600052604160045260246000fd5b61232a826122e1565b810181811067ffffffffffffffff82111715612349576123486122f2565b5b80604052505050565b600061235c6122c8565b90506123688282612321565b919050565b600080fd5b600080fd5b600080fd5b600067ffffffffffffffff821115612397576123966122f2565b5b6123a0826122e1565b9050602081019050919050565b82818337600083830152505050565b60006123cf6123ca8461237c565b612352565b9050828152602081018484840111156123eb576123ea612377565b5b6123f68482856123ad565b509392505050565b600082601f83011261241357612412612372565b5b81356124238482602086016123bc565b91505092915050565b600061ffff82169050919050565b6124438161242c565b811461244e57600080fd5b50565b6000813590506124608161243a565b92915050565b600066ffffffffffffff82169050919050565b61248281612466565b811461248d57600080fd5b50565b60008135905061249f81612479565b92915050565b600060c082840312156124bb576124ba6122dc565b5b6124c560c0612352565b9050600082013567ffffffffffffffff8111156124e5576124e461236d565b5b6124f1848285016123fe565b600083015250602082013567ffffffffffffffff8111156125155761251461236d565b5b612521848285016123fe565b602083015250604061253584828501612451565b604083015250606061254984828501612490565b606083015250608082013567ffffffffffffffff81111561256d5761256c61236d565b5b612579848285016123fe565b60808301525060a082013567ffffffffffffffff81111561259d5761259c61236d565b5b6125a9848285016123fe565b60a08301525092915050565b600381106125c257600080fd5b50565b6000813590506125d4816125b5565b92915050565b600060ff82169050919050565b6125f0816125da565b81146125fb57600080fd5b50565b60008135905061260d816125e7565b92915050565b6000610100828403121561262a576126296122dc565b5b612635610100612352565b9050600061264584828501612451565b6000830152506020612659848285016125c5565b602083015250604082013567ffffffffffffffff81111561267d5761267c61236d565b5b612689848285016123fe565b604083015250606061269d848285016125fe565b60608301525060806126b184828501612490565b60808301525060a06126c584828501612451565b60a08301525060c082013567ffffffffffffffff8111156126e9576126e861236d565b5b6126f5848285016123fe565b60c08301525060e082013567ffffffffffffffff8111156127195761271861236d565b5b612725848285016123fe565b60e08301525092915050565b600060808284031215612747576127466122dc565b5b6127516080612352565b9050600082013567ffffffffffffffff8111156127715761277061236d565b5b61277d848285016123fe565b6000830152506020612791848285016125fe565b60208301525060406127a5848285016125fe565b60408301525060606127b9848285016125fe565b60608301525092915050565b6000806000606084860312156127de576127dd6122d2565b5b600084013567ffffffffffffffff8111156127fc576127fb6122d7565b5b612808868287016124a5565b935050602084013567ffffffffffffffff811115612829576128286122d7565b5b61283586828701612613565b925050604084013567ffffffffffffffff811115612856576128556122d7565b5b61286286828701612731565b9150509250925092565b600060208284031215612882576128816122d2565b5b600061289084828501612490565b91505092915050565b600081519050919050565b600082825260208201905092915050565b60005b838110156128d35780820151818401526020810190506128b8565b60008484015250505050565b60006128ea82612899565b6128f481856128a4565b93506129048185602086016128b5565b61290d816122e1565b840191505092915050565b6129218161242c565b82525050565b61293081612466565b82525050565b600060c083016000830151848203600086015261295382826128df565b9150506020830151848203602086015261296d82826128df565b91505060408301516129826040860182612918565b5060608301516129956060860182612927565b50608083015184820360808601526129ad82826128df565b91505060a083015184820360a08601526129c782826128df565b9150508091505092915050565b7f4e487b7100000000000000000000000000000000000000000000000000000000600052602160045260246000fd5b60038110612a1457612a136129d4565b5b50565b6000819050612a2582612a03565b919050565b6000612a3582612a17565b9050919050565b612a4581612a2a565b82525050565b612a54816125da565b82525050565b600061010083016000830151612a736000860182612918565b506020830151612a866020860182612a3c565b5060408301518482036040860152612a9e82826128df565b9150506060830151612ab36060860182612a4b565b506080830151612ac66080860182612927565b5060a0830151612ad960a0860182612918565b5060c083015184820360c0860152612af182826128df565b91505060e083015184820360e0860152612b0b82826128df565b9150508091505092915050565b60006080830160008301518482036000860152612b3582826128df565b9150506020830151612b4a6020860182612a4b565b506040830151612b5d6040860182612a4b565b506060830151612b706060860182612a4b565b508091505092915050565b6000819050919050565b612b8e81612b7b565b82525050565b60006080820190508181036000830152612bae8187612936565b90508181036020830152612bc28186612a5a565b90508181036040830152612bd68185612b18565b9050612be56060830184612b85565b95945050505050565b600073ffffffffffffffffffffffffffffffffffffffff82169050919050565b6000612c1982612bee565b9050919050565b612c2981612c0e565b82525050565b6000602082019050612c446000830184612c20565b92915050565b600063ffffffff82169050919050565b612c6381612c4a565b82525050565b6000602082019050612c7e6000830184612c5a565b92915050565b60008060008060808587031215612c9e57612c9d6122d2565b5b6000612cac87828801612490565b945050602085013567ffffffffffffffff811115612ccd57612ccc6122d7565b5b612cd9878288016124a5565b935050604085013567ffffffffffffffff811115612cfa57612cf96122d7565b5b612d0687828801612613565b925050606085013567ffffffffffffffff811115612d2757612d266122d7565b5b612d3387828801612731565b91505092959194509250565b600060c0830160008301518482036000860152612d5c82826128df565b91505060208301518482036020860152612d7682826128df565b9150506040830151612d8b6040860182612918565b506060830151612d9e6060860182612927565b5060808301518482036080860152612db682826128df565b91505060a083015184820360a0860152612dd082826128df565b9150508091505092915050565b600061010083016000830151612df66000860182612918565b506020830151612e096020860182612a3c565b5060408301518482036040860152612e2182826128df565b9150506060830151612e366060860182612a4b565b506080830151612e496080860182612927565b5060a0830151612e5c60a0860182612918565b5060c083015184820360c0860152612e7482826128df565b91505060e083015184820360e0860152612e8e82826128df565b9150508091505092915050565b60006080830160008301518482036000860152612eb882826128df565b9150506020830151612ecd6020860182612a4b565b506040830151612ee06040860182612a4b565b506060830151612ef36060860182612a4b565b508091505092915050565b612f0781612b7b565b82525050565b60006080830160008301518482036000860152612f2a8282612d3f565b91505060208301518482036020860152612f448282612ddd565b91505060408301518482036040860152612f5e8282612e9b565b9150506060830151612f736060860182612efe565b508091505092915050565b60006020820190508181036000830152612f988184612f0d565b905092915050565b612fa981612b7b565b8114612fb457600080fd5b50565b600081359050612fc681612fa0565b92915050565b600060208284031215612fe257612fe16122d2565b5b6000612ff084828501612fb7565b91505092915050565b61300281612466565b82525050565b600060208201905061301d6000830184612ff9565b92915050565b600081519050919050565b600082825260208201905092915050565b6000819050602082019050919050565b6000608083016000830151848203600086015261306c8282612d3f565b915050602083015184820360208601526130868282612ddd565b915050604083015184820360408601526130a08282612e9b565b91505060608301516130b56060860182612efe565b508091505092915050565b60006130cc838361304f565b905092915050565b6000602082019050919050565b60006130ec82613023565b6130f6818561302e565b9350836020820285016131088561303f565b8060005b85811015613144578484038952815161312585826130c0565b9450613130836130d4565b925060208a0199505060018101905061310c565b50829750879550505050505092915050565b6000602082019050818103600083015261317081846130e1565b905092915050565b600082825260208201905092915050565b7f4163636573732064656e6965643a204f6e6c79206f776e65722063616e20636160008201527f6c6c20746869732066756e6374696f6e00000000000000000000000000000000602082015250565b60006131e5603083613178565b91506131f082613189565b604082019050919050565b60006020820190508181036000830152613214816131d8565b9050919050565b7f496e76616c696420434e49430000000000000000000000000000000000000000600082015250565b6000613251600c83613178565b915061325c8261321b565b602082019050919050565b6000602082019050818103600083015261328081613244565b9050919050565b7f496e76616c696420494400000000000000000000000000000000000000000000600082015250565b60006132bd600a83613178565b91506132c882613287565b602082019050919050565b600060208201905081810360008301526132ec816132b0565b9050919050565b7f4e487b7100000000000000000000000000000000000000000000000000000000600052602260045260246000fd5b6000600282049050600182168061333a57607f821691505b60208210810361334d5761334c6132f3565b5b50919050565b60008190508160005260206000209050919050565b60006020601f8301049050919050565b600082821b905092915050565b6000600883026133b57fffffffffffffffffffffffffffffffffffffffffffffffffffffffffffffffff82613378565b6133bf8683613378565b95508019841693508086168417925050509392505050565b6000819050919050565b60006133fc6133f76133f284612b7b565b6133d7565b612b7b565b9050919050565b6000819050919050565b613416836133e1565b61342a61342282613403565b848454613385565b825550505050565b600090565b61343f613432565b61344a81848461340d565b505050565b5b8181101561346e57613463600082613437565b600181019050613450565b5050565b601f8211156134b35761348481613353565b61348d84613368565b8101602085101561349c578190505b6134b06134a885613368565b83018261344f565b50505b505050565b600082821c905092915050565b60006134d6600019846008026134b8565b1980831691505092915050565b60006134ef83836134c5565b9150826002028217905092915050565b61350882612899565b67ffffffffffffffff811115613521576135206122f2565b5b61352b8254613322565b613536828285613472565b600060209050601f8311600181146135695760008415613557578287015190505b61356185826134e3565b8655506135c9565b601f19841661357786613353565b60005b8281101561359f5784890151825560018201915060208501945060208101905061357a565b868310156135bc57848901516135b8601f8916826134c5565b8355505b6001600288020188555050505b505050505050565b7f4e487b7100000000000000000000000000000000000000000000000000000000600052601160045260246000fd5b600061360b82612c4a565b915063ffffffff8203613621576136206135d1565b5b600182019050919050565b60006040820190506136416000830185612ff9565b61364e6020830184612c20565b9392505050565b7f4372696d696e616c2064617461206e6f7420666f756e64000000000000000000600082015250565b600061368b601783613178565b915061369682613655565b602082019050919050565b600060208201905081810360008301526136ba8161367e565b9050919050565b7f4e6f206372696d696e616c206461746120617661696c61626c65000000000000600082015250565b60006136f7601a83613178565b9150613702826136c1565b602082019050919050565b60006020820190508181036000830152613726816136ea565b9050919050565b7f4e487b7100000000000000000000000000000000000000000000000000000000600052603260045260246000fd5b60006137678261242c565b915061ffff820361377b5761377a6135d1565b5b60018201905091905056fea2646970667358221220d023ca015ce782b53b26451c192da7d550ffd824a9b91f74d0637f54a339156364736f6c63430008130033",
  "immutableReferences": {
    "78": [
      {
        "length": 32,
        "start": 495
      },
      {
        "length": 32,
        "start": 1738
      },
      {
        "length": 32,
        "start": 3410
      },
      {
        "length": 32,
        "start": 3468
      },
      {
        "length": 32,
        "start": 4483
      },
      {
        "length": 32,
        "start": 6484
      }
    ]
  },
  "source": "// SPDX-License-Identifier: MIT\npragma solidity 0.8.19;\n\n/// @title Criminal Data Sender Contract\n/// @notice This contract allows for creation, retrieval, and updating of criminal data entries.\n/// @dev This contract uses NatSpec for documentation.\ncontract CriminalDataSender {\n    /// @notice CrimeSeverity level of the criminals.\n    enum CrimeSeverity {\n        Low,\n        Medium,\n        High\n    }\n\n    /// @notice Structure of the Criminal entity.\n    /// @dev Entity structure for the criminals.\n    struct PersonalDetails {\n        string name;\n        string fatherName;\n        uint16 age;\n        uint56 cnic;\n        string location;\n        string gender;\n    }\n\n    struct CrimeDetails {\n        uint16 id;\n        CrimeSeverity crimeSeverity;\n        string offenseDescription;\n        uint8 offenseCode;\n        uint56 offenseDate;\n        uint16 caseId;\n        string investigationOfficer;\n        string courtVerdict;\n    }\n\n    struct PrisonDetails {\n        string prisonLocation;\n        uint8 prisonId;\n        uint8 tenure; // Time the criminal is sentenced to spend in prison (in years)\n        uint8 prisonCode;\n    }\n\n    /// @notice Structure to combine personal, crime, and prison details of the criminal.\n    struct CriminalEntity {\n        PersonalDetails personal;\n        CrimeDetails crime;\n        PrisonDetails prison;\n        uint256 timeStamp; // Time of record creation or update\n    }\n\n    /// @notice Mapping to hold the instance of the criminal data.\n    mapping(uint56 => CriminalEntity) public criminalData;\n\n    /// @notice Mapping from CNIC to ID.\n    mapping(uint56 => uint56) public cnicToID;\n\n    /// @notice Array to hold the criminal IDs.\n    uint56[] public criminalIds;\n\n    /// @notice Address of the contract owner.\n    address public immutable owner;\n\n    /// @notice State variable to hold the criminal count.\n    uint32 public criminalCount = 0;\n\n    /// @notice Event emitted when a new entity is created.\n    event EntityCreated(uint56 cnic, address owner);\n\n    /// @notice Event emitted when an entity is updated.\n    event EntityUpdated(uint56 id);\n\n    /// @notice Constructor to set the owner of the contract.\n    constructor() {\n        owner = msg.sender;\n    }\n\n    /// @notice Modifier to restrict functions to the contract owner only.\n    modifier onlyOwner() {\n        require(\n            msg.sender == owner,\n            \"Access denied: Only owner can call this function\"\n        );\n        _;\n    }\n\n    /// @notice Function to create a new criminal entity.\n    /// @param _personal Struct containing personal details of the criminal.\n    /// @param _crime Struct containing crime details of the criminal.\n    /// @param _prison Struct containing prison details of the criminal.\n    function createEntity(\n        PersonalDetails memory _personal,\n        CrimeDetails memory _crime,\n        PrisonDetails memory _prison\n    ) public onlyOwner {\n        require(_personal.cnic != 0, \"Invalid CNIC\");\n        require(_crime.id != 0, \"Invalid ID\");\n        // Create a new CriminalEntity\n        criminalData[_crime.id] = CriminalEntity({\n            personal: _personal,\n            crime: _crime,\n            prison: _prison,\n            timeStamp: block.timestamp\n        });\n\n        // Link CNIC to ID and update mappings\n        cnicToID[_personal.cnic] = _crime.id;\n        criminalIds.push(_crime.id);\n        criminalCount++;\n\n        // Emit event for entity creation\n        emit EntityCreated(_personal.cnic, owner);\n    }\n\n    /// @notice Function to return the criminal entity data (can only be called by the owner).\n    /// @param _cnic CNIC of the entity.\n    /// @return Criminal entity.\n    function getEntity(uint56 _cnic)\n        public\n        view\n        onlyOwner\n        returns (CriminalEntity memory)\n    {\n        uint56 entityId = cnicToID[_cnic];\n        require(entityId != 0, \"Criminal data not found\");\n        return criminalData[entityId];\n    }\n\n    /// @notice Function to retrieve all the active criminal entities stored in the mapping.\n    /// @return allCriminals An array of all the active criminal entities.\n    function getAllCriminals()\n        public\n        view\n        onlyOwner\n        returns (CriminalEntity[] memory)\n    {\n        require(criminalIds.length > 0, \"No criminal data available\");\n\n        CriminalEntity[] memory allCriminals = new CriminalEntity[](\n            criminalIds.length\n        );\n        for (uint16 i = 0; i < criminalIds.length; i++) {\n            allCriminals[i] = criminalData[criminalIds[i]];\n        }\n        return allCriminals;\n    }\n\n    /// @notice Function to update an existing criminal entity's data.\n    /// @param _cnic CNIC of the entity to update.\n    /// @param _personal Updated personal details of the criminal.\n    /// @param _crime Updated crime details of the criminal.\n    /// @param _prison Updated prison details of the criminal.\n    function updateEntity(\n        uint56 _cnic,\n        PersonalDetails memory _personal,\n        CrimeDetails memory _crime,\n        PrisonDetails memory _prison\n    ) public onlyOwner {\n        uint56 entityId = cnicToID[_cnic];\n        require(entityId != 0, \"Criminal data not found\");\n\n        // Update the criminal data\n        criminalData[entityId] = CriminalEntity({\n            personal: _personal,\n            crime: _crime,\n            prison: _prison,\n            timeStamp: block.timestamp\n        });\n\n        // Emit event for entity update\n        emit EntityUpdated(entityId);\n    }\n}\n\n",
  "sourcePath": "/home/rogue/Desktop/Final_year_project/src/blockchain/contracts/CriminalDataSender.sol",
  "compiler": {
    "name": "solc",
    "version": "0.8.19+commit.7dd6d404.Emscripten.clang"
  },
  "schemaVersion": "3.4.16",
  "updatedAt": "2024-09-30T06:30:10.710Z",
  "devdoc": {
    "details": "This contract uses NatSpec for documentation.",
    "kind": "dev",
    "methods": {
      "createEntity((string,string,uint16,uint56,string,string),(uint16,uint8,string,uint8,uint56,uint16,string,string),(string,uint8,uint8,uint8))": {
        "params": {
          "_crime": "Struct containing crime details of the criminal.",
          "_personal": "Struct containing personal details of the criminal.",
          "_prison": "Struct containing prison details of the criminal."
        }
      },
      "getAllCriminals()": {
        "returns": {
          "_0": "allCriminals An array of all the active criminal entities."
        }
      },
      "getEntity(uint56)": {
        "params": {
          "_cnic": "CNIC of the entity."
        },
        "returns": {
          "_0": "Criminal entity."
        }
      },
      "updateEntity(uint56,(string,string,uint16,uint56,string,string),(uint16,uint8,string,uint8,uint56,uint16,string,string),(string,uint8,uint8,uint8))": {
        "params": {
          "_cnic": "CNIC of the entity to update.",
          "_crime": "Updated crime details of the criminal.",
          "_personal": "Updated personal details of the criminal.",
          "_prison": "Updated prison details of the criminal."
        }
      }
    },
    "title": "Criminal Data Sender Contract",
    "version": 1
  },
  "userdoc": {
    "events": {
      "EntityCreated(uint56,address)": {
        "notice": "Event emitted when a new entity is created."
      },
      "EntityUpdated(uint56)": {
        "notice": "Event emitted when an entity is updated."
      }
    },
    "kind": "user",
    "methods": {
      "cnicToID(uint56)": {
        "notice": "Mapping from CNIC to ID."
      },
      "constructor": {
        "notice": "Constructor to set the owner of the contract."
      },
      "createEntity((string,string,uint16,uint56,string,string),(uint16,uint8,string,uint8,uint56,uint16,string,string),(string,uint8,uint8,uint8))": {
        "notice": "Function to create a new criminal entity."
      },
      "criminalCount()": {
        "notice": "State variable to hold the criminal count."
      },
      "criminalData(uint56)": {
        "notice": "Mapping to hold the instance of the criminal data."
      },
      "criminalIds(uint256)": {
        "notice": "Array to hold the criminal IDs."
      },
      "getAllCriminals()": {
        "notice": "Function to retrieve all the active criminal entities stored in the mapping."
      },
      "getEntity(uint56)": {
        "notice": "Function to return the criminal entity data (can only be called by the owner)."
      },
      "owner()": {
        "notice": "Address of the contract owner."
      },
      "updateEntity(uint56,(string,string,uint16,uint56,string,string),(uint16,uint8,string,uint8,uint56,uint16,string,string),(string,uint8,uint8,uint8))": {
        "notice": "Function to update an existing criminal entity's data."
      }
    },
    "notice": "This contract allows for creation, retrieval, and updating of criminal data entries.",
    "version": 1
  }
}