{
  "contractName": "CriminalDataSender",
  "abi": [
    {
      "inputs": [],
      "stateMutability": "nonpayable",
      "type": "constructor"
    },
    {
      "anonymous": false,
      "inputs": [
        {
          "indexed": false,
          "internalType": "uint16",
          "name": "id",
          "type": "uint16"
        },
        {
          "indexed": false,
          "internalType": "address",
          "name": "owner",
          "type": "address"
        },
        {
          "indexed": false,
          "internalType": "enum CriminalDataSender.Sensitivity",
          "name": "sensitivity",
          "type": "uint8"
        },
        {
          "indexed": false,
          "internalType": "uint32",
          "name": "criminalCount",
          "type": "uint32"
        }
      ],
      "name": "EntityCreated",
      "type": "event"
    },
    {
      "anonymous": false,
      "inputs": [
        {
          "indexed": true,
          "internalType": "uint56",
          "name": "cnic",
          "type": "uint56"
        }
      ],
      "name": "EntityDeleted",
      "type": "event"
    },
    {
      "inputs": [
        {
          "internalType": "uint56",
          "name": "",
          "type": "uint56"
        }
      ],
      "name": "cnicToID",
      "outputs": [
        {
          "internalType": "uint56",
          "name": "",
          "type": "uint56"
        }
      ],
      "stateMutability": "view",
      "type": "function",
      "constant": true
    },
    {
      "inputs": [],
      "name": "criminalCount",
      "outputs": [
        {
          "internalType": "uint32",
          "name": "",
          "type": "uint32"
        }
      ],
      "stateMutability": "view",
      "type": "function",
      "constant": true
    },
    {
      "inputs": [
        {
          "internalType": "uint56",
          "name": "",
          "type": "uint56"
        }
      ],
      "name": "criminalData",
      "outputs": [
        {
          "internalType": "string",
          "name": "name",
          "type": "string"
        },
        {
          "internalType": "uint16",
          "name": "id",
          "type": "uint16"
        },
        {
          "internalType": "uint56",
          "name": "cnic",
          "type": "uint56"
        },
        {
          "internalType": "enum CriminalDataSender.Sensitivity",
          "name": "sensitivity",
          "type": "uint8"
        },
        {
          "internalType": "uint256",
          "name": "timeStamp",
          "type": "uint256"
        }
      ],
      "stateMutability": "view",
      "type": "function",
      "constant": true
    },
    {
      "inputs": [
        {
          "internalType": "uint256",
          "name": "",
          "type": "uint256"
        }
      ],
      "name": "criminalIds",
      "outputs": [
        {
          "internalType": "uint56",
          "name": "",
          "type": "uint56"
        }
      ],
      "stateMutability": "view",
      "type": "function",
      "constant": true
    },
    {
      "inputs": [],
      "name": "owner",
      "outputs": [
        {
          "internalType": "address",
          "name": "",
          "type": "address"
        }
      ],
      "stateMutability": "view",
      "type": "function",
      "constant": true
    },
    {
      "inputs": [
        {
          "internalType": "string",
          "name": "_name",
          "type": "string"
        },
        {
          "internalType": "uint16",
          "name": "_id",
          "type": "uint16"
        },
        {
          "internalType": "uint56",
          "name": "_cnic",
          "type": "uint56"
        },
        {
          "internalType": "enum CriminalDataSender.Sensitivity",
          "name": "sensitivity",
          "type": "uint8"
        }
      ],
      "name": "createEntity",
      "outputs": [],
      "stateMutability": "nonpayable",
      "type": "function"
    },
    {
      "inputs": [
        {
          "internalType": "uint56",
          "name": "_cnic",
          "type": "uint56"
        }
      ],
      "name": "getEntity",
      "outputs": [
        {
          "components": [
            {
              "internalType": "string",
              "name": "name",
              "type": "string"
            },
            {
              "internalType": "uint16",
              "name": "id",
              "type": "uint16"
            },
            {
              "internalType": "uint56",
              "name": "cnic",
              "type": "uint56"
            },
            {
              "internalType": "enum CriminalDataSender.Sensitivity",
              "name": "sensitivity",
              "type": "uint8"
            },
            {
              "internalType": "uint256",
              "name": "timeStamp",
              "type": "uint256"
            }
          ],
          "internalType": "struct CriminalDataSender.Entity",
          "name": "",
          "type": "tuple"
        },
        {
          "internalType": "string",
          "name": "",
          "type": "string"
        }
      ],
      "stateMutability": "view",
      "type": "function",
      "constant": true
    },
    {
      "inputs": [],
      "name": "getAllCriminals",
      "outputs": [
        {
          "components": [
            {
              "internalType": "string",
              "name": "name",
              "type": "string"
            },
            {
              "internalType": "uint16",
              "name": "id",
              "type": "uint16"
            },
            {
              "internalType": "uint56",
              "name": "cnic",
              "type": "uint56"
            },
            {
              "internalType": "enum CriminalDataSender.Sensitivity",
              "name": "sensitivity",
              "type": "uint8"
            },
            {
              "internalType": "uint256",
              "name": "timeStamp",
              "type": "uint256"
            }
          ],
          "internalType": "struct CriminalDataSender.Entity[]",
          "name": "",
          "type": "tuple[]"
        }
      ],
      "stateMutability": "view",
      "type": "function",
      "constant": true
    },
    {
      "inputs": [
        {
          "internalType": "uint56",
          "name": "_cnic",
          "type": "uint56"
        }
      ],
      "name": "deleteEntity",
      "outputs": [],
      "stateMutability": "nonpayable",
      "type": "function"
    }
  ],
  "bytecode": "0x60a06040526000600360006101000a81548163ffffffff021916908363ffffffff16021790555034801561003257600080fd5b503373ffffffffffffffffffffffffffffffffffffffff1660808173ffffffffffffffffffffffffffffffffffffffff16815250506080516120736100a5600039600081816102dd0152818161030101528181610633015281816106a6015281816109cd0152610d4a01526120736000f3fe608060405234801561001057600080fd5b50600436106100935760003560e01c8063b72af1d711610066578063b72af1d714610124578063d49ce9c814610155578063eb15d67414610185578063edc038c9146101a3578063ef50a704146101bf57610093565b8063598fc9f0146100985780638da5cb5b146100cc578063b087814d146100ea578063b6ba75ce14610106575b600080fd5b6100b260048036038101906100ad9190611225565b6101ef565b6040516100c395949392919061139e565b60405180910390f35b6100d46102db565b6040516100e19190611439565b60405180910390f35b61010460048036038101906100ff91906115da565b6102ff565b005b61010e610684565b60405161011b919061167c565b60405180910390f35b61013e60048036038101906101399190611225565b61069a565b60405161014c929190611793565b60405180910390f35b61016f600480360381019061016a91906117f6565b61098c565b60405161017c9190611823565b60405180910390f35b61018d6109c9565b60405161019a9190611976565b60405180910390f35b6101bd60048036038101906101b89190611225565b610d48565b005b6101d960048036038101906101d49190611225565b611101565b6040516101e69190611823565b60405180910390f35b6000602052806000526040600020600091509050806000018054610212906119c7565b80601f016020809104026020016040519081016040528092919081815260200182805461023e906119c7565b801561028b5780601f106102605761010080835404028352916020019161028b565b820191906000526020600020905b81548152906001019060200180831161026e57829003601f168201915b5050505050908060010160009054906101000a900461ffff16908060010160029054906101000a900466ffffffffffffff16908060010160099054906101000a900460ff16908060020154905085565b7f000000000000000000000000000000000000000000000000000000000000000081565b7f000000000000000000000000000000000000000000000000000000000000000073ffffffffffffffffffffffffffffffffffffffff163373ffffffffffffffffffffffffffffffffffffffff161461038d576040517f08c379a000000000000000000000000000000000000000000000000000000000815260040161038490611a6a565b60405180910390fd5b60008361ffff16036103d4576040517f08c379a00000000000000000000000000000000000000000000000000000000081526004016103cb90611ad6565b60405180910390fd5b60008266ffffffffffffff1603610420576040517f08c379a000000000000000000000000000000000000000000000000000000000815260040161041790611b42565b60405180910390fd5b6040518060a001604052808581526020018461ffff1681526020018366ffffffffffffff16815260200182600281111561045d5761045c61130e565b5b8152602001428152506000808561ffff1666ffffffffffffff168152602001908152602001600020600082015181600001908161049a9190611d0e565b5060208201518160010160006101000a81548161ffff021916908361ffff16021790555060408201518160010160026101000a81548166ffffffffffffff021916908366ffffffffffffff16021790555060608201518160010160096101000a81548160ff021916908360028111156105165761051561130e565b5b0217905550608082015181600201559050508261ffff16600160008466ffffffffffffff1666ffffffffffffff16815260200190815260200160002060006101000a81548166ffffffffffffff021916908366ffffffffffffff1602179055506002839080600181540180825580915050600190039060005260206000209060049182820401919006600702909161ffff16909190916101000a81548166ffffffffffffff021916908366ffffffffffffff1602179055506003600081819054906101000a900463ffffffff16809291906105f090611e0f565b91906101000a81548163ffffffff021916908363ffffffff160217905550507faad7bfa66faa5034cf2e2b30b29b8780f3044e6be79aafcbb10d9be50bfd8344837f000000000000000000000000000000000000000000000000000000000000000083600360009054906101000a900463ffffffff166040516106769493929190611e3b565b60405180910390a150505050565b600360009054906101000a900463ffffffff1681565b6106a2611127565b60607f000000000000000000000000000000000000000000000000000000000000000073ffffffffffffffffffffffffffffffffffffffff163373ffffffffffffffffffffffffffffffffffffffff1614610732576040517f08c379a000000000000000000000000000000000000000000000000000000000815260040161072990611a6a565b60405180910390fd5b6000600160008566ffffffffffffff1666ffffffffffffff16815260200190815260200160002060009054906101000a900466ffffffffffffff16905060008166ffffffffffffff1603610819576040518060a00160405280604051806020016040528060008152508152602001600061ffff168152602001600066ffffffffffffff168152602001600060028111156107cf576107ce61130e565b5b815260200160008152506040518060400160405280601781526020017f4372696d696e616c2064617461206e6f7420666f756e640000000000000000008152509250925050610987565b6000808266ffffffffffffff1666ffffffffffffff168152602001908152602001600020806040518060a0016040529081600082018054610859906119c7565b80601f0160208091040260200160405190810160405280929190818152602001828054610885906119c7565b80156108d25780601f106108a7576101008083540402835291602001916108d2565b820191906000526020600020905b8154815290600101906020018083116108b557829003601f168201915b505050505081526020016001820160009054906101000a900461ffff1661ffff1661ffff1681526020016001820160029054906101000a900466ffffffffffffff1666ffffffffffffff1666ffffffffffffff1681526020016001820160099054906101000a900460ff16600281111561094f5761094e61130e565b5b60028111156109615761096061130e565b5b815260200160028201548152505090506040518060200160405280600081525092509250505b915091565b6002818154811061099c57600080fd5b9060005260206000209060049182820401919006600702915054906101000a900466ffffffffffffff1681565b60607f000000000000000000000000000000000000000000000000000000000000000073ffffffffffffffffffffffffffffffffffffffff163373ffffffffffffffffffffffffffffffffffffffff1614610a59576040517f08c379a0000000000000000000000000000000000000000000000000000000008152600401610a5090611a6a565b60405180910390fd5b600060028054905011610aa1576040517f08c379a0000000000000000000000000000000000000000000000000000000008152600401610a9890611ecc565b60405180910390fd5b600060028054905067ffffffffffffffff811115610ac257610ac161145e565b5b604051908082528060200260200182016040528015610afb57816020015b610ae8611127565b815260200190600190039081610ae05790505b5090506000805b6002805490508161ffff161015610d3357600060028261ffff1681548110610b2d57610b2c611eec565b5b90600052602060002090600491828204019190066007029054906101000a900466ffffffffffffff16905060008060008366ffffffffffffff1666ffffffffffffff16815260200190815260200160002060010160009054906101000a900461ffff1661ffff1614610d1f576000808266ffffffffffffff1666ffffffffffffff1681526020019081526020016000206040518060a0016040529081600082018054610bd8906119c7565b80601f0160208091040260200160405190810160405280929190818152602001828054610c04906119c7565b8015610c515780601f10610c2657610100808354040283529160200191610c51565b820191906000526020600020905b815481529060010190602001808311610c3457829003601f168201915b505050505081526020016001820160009054906101000a900461ffff1661ffff1661ffff1681526020016001820160029054906101000a900466ffffffffffffff1666ffffffffffffff1666ffffffffffffff1681526020016001820160099054906101000a900460ff166002811115610cce57610ccd61130e565b5b6002811115610ce057610cdf61130e565b5b8152602001600282015481525050848461ffff1681518110610d0557610d04611eec565b5b60200260200101819052508280610d1b90611f1b565b9350505b508080610d2b90611f1b565b915050610b02565b50606060208202830151905082935050505090565b7f000000000000000000000000000000000000000000000000000000000000000073ffffffffffffffffffffffffffffffffffffffff163373ffffffffffffffffffffffffffffffffffffffff1614610dd6576040517f08c379a0000000000000000000000000000000000000000000000000000000008152600401610dcd90611a6a565b60405180910390fd5b6000600160008366ffffffffffffff1666ffffffffffffff16815260200190815260200160002060009054906101000a900466ffffffffffffff16905060008166ffffffffffffff1603610e5f576040517f08c379a0000000000000000000000000000000000000000000000000000000008152600401610e5690611f91565b60405180910390fd5b60005b6002805490508161ffff161015610fc8578166ffffffffffffff1660028261ffff1681548110610e9557610e94611eec565b5b90600052602060002090600491828204019190066007029054906101000a900466ffffffffffffff1666ffffffffffffff1603610fb55760026001600280549050610ee09190611fb1565b81548110610ef157610ef0611eec565b5b90600052602060002090600491828204019190066007029054906101000a900466ffffffffffffff1660028261ffff1681548110610f3257610f31611eec565b5b90600052602060002090600491828204019190066007026101000a81548166ffffffffffffff021916908366ffffffffffffff1602179055506002805480610f7d57610f7c611fe5565b5b60019003818190600052602060002090600491828204019190066007026101000a81549066ffffffffffffff02191690559055610fc8565b8080610fc090611f1b565b915050610e62565b508166ffffffffffffff167f658bab0399a2a605a3f14e6b6c747a1d1a5cf4fbef0f8178a81a85646a81554c60405160405180910390a26000808266ffffffffffffff1666ffffffffffffff168152602001908152602001600020600080820160006110349190611175565b6001820160006101000a81549061ffff02191690556001820160026101000a81549066ffffffffffffff02191690556001820160096101000a81549060ff021916905560028201600090555050600160008366ffffffffffffff1666ffffffffffffff16815260200190815260200160002060006101000a81549066ffffffffffffff02191690556003600081819054906101000a900463ffffffff16809291906110de90612014565b91906101000a81548163ffffffff021916908363ffffffff160217905550505050565b60016020528060005260406000206000915054906101000a900466ffffffffffffff1681565b6040518060a0016040528060608152602001600061ffff168152602001600066ffffffffffffff168152602001600060028111156111685761116761130e565b5b8152602001600081525090565b508054611181906119c7565b6000825580601f1061119357506111b2565b601f0160209004906000526020600020908101906111b191906111b5565b5b50565b5b808211156111ce5760008160009055506001016111b6565b5090565b6000604051905090565b600080fd5b600080fd5b600066ffffffffffffff82169050919050565b611202816111e6565b811461120d57600080fd5b50565b60008135905061121f816111f9565b92915050565b60006020828403121561123b5761123a6111dc565b5b600061124984828501611210565b91505092915050565b600081519050919050565b600082825260208201905092915050565b60005b8381101561128c578082015181840152602081019050611271565b60008484015250505050565b6000601f19601f8301169050919050565b60006112b482611252565b6112be818561125d565b93506112ce81856020860161126e565b6112d781611298565b840191505092915050565b600061ffff82169050919050565b6112f9816112e2565b82525050565b611308816111e6565b82525050565b7f4e487b7100000000000000000000000000000000000000000000000000000000600052602160045260246000fd5b6003811061134e5761134d61130e565b5b50565b600081905061135f8261133d565b919050565b600061136f82611351565b9050919050565b61137f81611364565b82525050565b6000819050919050565b61139881611385565b82525050565b600060a08201905081810360008301526113b881886112a9565b90506113c760208301876112f0565b6113d460408301866112ff565b6113e16060830185611376565b6113ee608083018461138f565b9695505050505050565b600073ffffffffffffffffffffffffffffffffffffffff82169050919050565b6000611423826113f8565b9050919050565b61143381611418565b82525050565b600060208201905061144e600083018461142a565b92915050565b600080fd5b600080fd5b7f4e487b7100000000000000000000000000000000000000000000000000000000600052604160045260246000fd5b61149682611298565b810181811067ffffffffffffffff821117156114b5576114b461145e565b5b80604052505050565b60006114c86111d2565b90506114d4828261148d565b919050565b600067ffffffffffffffff8211156114f4576114f361145e565b5b6114fd82611298565b9050602081019050919050565b82818337600083830152505050565b600061152c611527846114d9565b6114be565b90508281526020810184848401111561154857611547611459565b5b61155384828561150a565b509392505050565b600082601f8301126115705761156f611454565b5b8135611580848260208601611519565b91505092915050565b611592816112e2565b811461159d57600080fd5b50565b6000813590506115af81611589565b92915050565b600381106115c257600080fd5b50565b6000813590506115d4816115b5565b92915050565b600080600080608085870312156115f4576115f36111dc565b5b600085013567ffffffffffffffff811115611612576116116111e1565b5b61161e8782880161155b565b945050602061162f878288016115a0565b935050604061164087828801611210565b9250506060611651878288016115c5565b91505092959194509250565b600063ffffffff82169050919050565b6116768161165d565b82525050565b6000602082019050611691600083018461166d565b92915050565b600082825260208201905092915050565b60006116b382611252565b6116bd8185611697565b93506116cd81856020860161126e565b6116d681611298565b840191505092915050565b6116ea816112e2565b82525050565b6116f9816111e6565b82525050565b61170881611364565b82525050565b61171781611385565b82525050565b600060a083016000830151848203600086015261173a82826116a8565b915050602083015161174f60208601826116e1565b50604083015161176260408601826116f0565b50606083015161177560608601826116ff565b506080830151611788608086018261170e565b508091505092915050565b600060408201905081810360008301526117ad818561171d565b905081810360208301526117c181846112a9565b90509392505050565b6117d381611385565b81146117de57600080fd5b50565b6000813590506117f0816117ca565b92915050565b60006020828403121561180c5761180b6111dc565b5b600061181a848285016117e1565b91505092915050565b600060208201905061183860008301846112ff565b92915050565b600081519050919050565b600082825260208201905092915050565b6000819050602082019050919050565b600060a083016000830151848203600086015261188782826116a8565b915050602083015161189c60208601826116e1565b5060408301516118af60408601826116f0565b5060608301516118c260608601826116ff565b5060808301516118d5608086018261170e565b508091505092915050565b60006118ec838361186a565b905092915050565b6000602082019050919050565b600061190c8261183e565b6119168185611849565b9350836020820285016119288561185a565b8060005b85811015611964578484038952815161194585826118e0565b9450611950836118f4565b925060208a0199505060018101905061192c565b50829750879550505050505092915050565b600060208201905081810360008301526119908184611901565b905092915050565b7f4e487b7100000000000000000000000000000000000000000000000000000000600052602260045260246000fd5b600060028204905060018216806119df57607f821691505b6020821081036119f2576119f1611998565b5b50919050565b7f4163636573732064656e6965643a204f6e6c79206f776e65722063616e20636160008201527f6c6c20746869732066756e6374696f6e00000000000000000000000000000000602082015250565b6000611a5460308361125d565b9150611a5f826119f8565b604082019050919050565b60006020820190508181036000830152611a8381611a47565b9050919050565b7f496e76616c696420494400000000000000000000000000000000000000000000600082015250565b6000611ac0600a8361125d565b9150611acb82611a8a565b602082019050919050565b60006020820190508181036000830152611aef81611ab3565b9050919050565b7f496e76616c696420434e49430000000000000000000000000000000000000000600082015250565b6000611b2c600c8361125d565b9150611b3782611af6565b602082019050919050565b60006020820190508181036000830152611b5b81611b1f565b9050919050565b60008190508160005260206000209050919050565b60006020601f8301049050919050565b600082821b905092915050565b600060088302611bc47fffffffffffffffffffffffffffffffffffffffffffffffffffffffffffffffff82611b87565b611bce8683611b87565b95508019841693508086168417925050509392505050565b6000819050919050565b6000611c0b611c06611c0184611385565b611be6565b611385565b9050919050565b6000819050919050565b611c2583611bf0565b611c39611c3182611c12565b848454611b94565b825550505050565b600090565b611c4e611c41565b611c59818484611c1c565b505050565b5b81811015611c7d57611c72600082611c46565b600181019050611c5f565b5050565b601f821115611cc257611c9381611b62565b611c9c84611b77565b81016020851015611cab578190505b611cbf611cb785611b77565b830182611c5e565b50505b505050565b600082821c905092915050565b6000611ce560001984600802611cc7565b1980831691505092915050565b6000611cfe8383611cd4565b9150826002028217905092915050565b611d1782611252565b67ffffffffffffffff811115611d3057611d2f61145e565b5b611d3a82546119c7565b611d45828285611c81565b600060209050601f831160018114611d785760008415611d66578287015190505b611d708582611cf2565b865550611dd8565b601f198416611d8686611b62565b60005b82811015611dae57848901518255600182019150602085019450602081019050611d89565b86831015611dcb5784890151611dc7601f891682611cd4565b8355505b6001600288020188555050505b505050505050565b7f4e487b7100000000000000000000000000000000000000000000000000000000600052601160045260246000fd5b6000611e1a8261165d565b915063ffffffff8203611e3057611e2f611de0565b5b600182019050919050565b6000608082019050611e5060008301876112f0565b611e5d602083018661142a565b611e6a6040830185611376565b611e77606083018461166d565b95945050505050565b7f4e6f206372696d696e616c206461746120617661696c61626c65000000000000600082015250565b6000611eb6601a8361125d565b9150611ec182611e80565b602082019050919050565b60006020820190508181036000830152611ee581611ea9565b9050919050565b7f4e487b7100000000000000000000000000000000000000000000000000000000600052603260045260246000fd5b6000611f26826112e2565b915061ffff8203611f3a57611f39611de0565b5b600182019050919050565b7f4372696d696e616c2064617461206e6f7420666f756e64000000000000000000600082015250565b6000611f7b60178361125d565b9150611f8682611f45565b602082019050919050565b60006020820190508181036000830152611faa81611f6e565b9050919050565b6000611fbc82611385565b9150611fc783611385565b9250828203905081811115611fdf57611fde611de0565b5b92915050565b7f4e487b7100000000000000000000000000000000000000000000000000000000600052603160045260246000fd5b600061201f8261165d565b91506000820361203257612031611de0565b5b60018203905091905056fea2646970667358221220718f19cfb151089a9c2b79642a81cf295f70761ef02c06cf94e4a4da0b1b845b64736f6c63430008130033",
  "immutableReferences": {
    "38": [
      {
        "length": 32,
        "start": 733
      },
      {
        "length": 32,
        "start": 769
      },
      {
        "length": 32,
        "start": 1587
      },
      {
        "length": 32,
        "start": 1702
      },
      {
        "length": 32,
        "start": 2509
      },
      {
        "length": 32,
        "start": 3402
      }
    ]
  },
  "source": "// SPDX-License-Identifier: MIT\npragma solidity 0.8.19;\n/// @title Criminal Data Sender Contract\n/// @notice this contract allow for creation , retrieval and deletion of the criminal data entries\n/// @dev this contract use NatSpec for documentation\ncontract CriminalDataSender {\n    /// @notice Sensitivity level of the criminals\n    enum Sensitivity {\n        Low,\n        Medium,\n        High\n    }\n    /// @notice Structure of the Criminal entity\n    /// @dev Entity Structure for the Criminals\n    struct Entity {\n        string name;\n        uint16 id;\n        uint56 cnic;\n        Sensitivity sensitivity;\n        uint256 timeStamp;\n    }\n    /// @notice mapping to hold the instance of the criminal\n    mapping(uint56 => Entity) public criminalData;\n    /// @notice mapping from Cnic to id\n    mapping(uint56 => uint56) public cnicToID;\n    /// @notice Array to hold the criminal Ids\n    /// @dev Arrays that will add in unsequential access to the criminals\n    uint56[] public criminalIds;\n    /// @notice Address of the contract owner\n    address public immutable owner;\n    /// @notice state variable to hold the criminal count\n    uint32 public criminalCount = 0;\n    /// @notice Event emited when a new entity is created\n    /// @param  id id of the entity\n    /// @param  owner The add of the contract owner\n    /// @param sensitivity Sensitivity of the criminal created\n    /// @param criminalCount Number of the criminals created\n    event EntityCreated(\n        uint16 id,\n        address owner,\n        Sensitivity sensitivity,\n        uint32 criminalCount\n    );\n    /// @notice Event emitted on Entity deletion\n    event EntityDeleted(uint56 indexed cnic);\n    /// @notice Constructor to set the owner of the contract\n    /// @dev Set the contract deployer as sender\n    constructor() {\n        owner = msg.sender;\n    }\n    /// @notice Modifier to restrict the functions to the contract owner only\n    /// @dev Check if the Add of the sender is equal to the owner\n    modifier onlyOwner() {\n        require(\n            msg.sender == owner,\n            \"Access denied: Only owner can call this function\"\n        );\n        _;\n    }\n    //.1==>\n    /// @notice Function to create a new entity\n    /// @param _name The name of the entity\n    /// @param _id ID of the entity\n    /// @param _cnic Cnic of the entity\n    /// @param sensitivity Sensitivity of the entity\n    /// @dev Adds a new entity to the criminalData mapping and emit a EntityCreated update the cnicToId mapping and also push the current id to the criminlIds array\n    function createEntity(\n        string memory _name,\n        uint16 _id,\n        uint56 _cnic,\n        Sensitivity sensitivity\n    ) public onlyOwner {\n        require(_id != 0, \"Invalid ID\");\n        require(_cnic != 0, \"Invalid CNIC\");\n\n        criminalData[_id] = Entity(\n            _name,\n            _id,\n            _cnic,\n            sensitivity,\n            block.timestamp\n        );\n        cnicToID[_cnic] = _id;\n        criminalIds.push(_id);\n        criminalCount++;\n\n        emit EntityCreated(_id, owner, sensitivity, criminalCount);\n    }\n    //.2==>\n    /// @notice Function to return the entity data (can only be called by the owner)\n    /// @param _cnic Cnic of the entity\n    /// @return criminalData Criminlal entity\n    /// @dev It search for the criminal data in the criminalData mapping if find returns the enttity else return \"\"\n    function getEntity(\n        uint56 _cnic\n    ) public view onlyOwner returns (Entity memory, string memory) {\n        uint56 entityId = cnicToID[_cnic];\n        if (entityId == 0) {\n            return (\n                Entity(\"\", 0, 0, Sensitivity.Low, 0),\n                \"Criminal data not found\"\n            );\n        }\n        return (criminalData[entityId], \"\");\n    }\n    //.3==>\n    /// @notice This is used to retrieve all the active entities stored in the mapping\n    /// @return allCriminals returns an array of all the active entities\n    /// @dev Loops through the criminalIds array and retrieves only the non-deleted entities\n    function getAllCriminals() public view onlyOwner returns (Entity[] memory) {\n        require(criminalIds.length > 0, \"No criminal data available\");\n\n        // Create a dynamic array to store the active criminals\n        Entity[] memory allCriminals = new Entity[](criminalIds.length);\n        uint16 activeCount = 0;\n\n        // Loop through criminalIds to find active criminals\n        for (uint16 i = 0; i < criminalIds.length; i++) {\n            uint56 id = criminalIds[i];\n            // If the entity still exists (not deleted), add it to the array\n            if (criminalData[id].id != 0) {\n                allCriminals[activeCount] = criminalData[id];\n                activeCount++;\n            }\n        }\n\n        // Resize the array to match the number of active criminals\n        bytes memory resize;\n        assembly {\n            resize := mload(add(allCriminals, mul(activeCount, 0x20)))\n        }\n        return allCriminals;\n    }\n    //.4==>\n    /// @notice This function is used to deleted an entity\n    /// @param _cnic The cnic of the entity to be deleted\n    /// @dev it first retrieve the corresponding id of the given cnic then iterates onn the whole criminalData mapping and delete the id specified id entity\n    function deleteEntity(uint56 _cnic) public onlyOwner {\n        uint56 entityId = cnicToID[_cnic];\n        require(entityId != 0, \"Criminal data not found\");\n\n        // Remove the criminal ID from the array\n        for (uint16 i = 0; i < criminalIds.length; i++) {\n            if (criminalIds[i] == entityId) {\n                criminalIds[i] = criminalIds[criminalIds.length - 1];\n                criminalIds.pop();\n                break;\n            }\n        }\n        emit EntityDeleted(_cnic);\n        delete criminalData[entityId];\n        delete cnicToID[_cnic];\n        criminalCount--;\n    }\n}\n",
  "sourcePath": "/home/rogue/Desktop/Final-year-project/src/blockchain/contracts/CriminalDataSender.sol",
  "compiler": {
    "name": "solc",
    "version": "0.8.19+commit.7dd6d404.Emscripten.clang"
  },
  "schemaVersion": "3.4.16",
  "updatedAt": "2024-08-30T04:54:59.392Z",
  "networkType": "ethereum",
  "devdoc": {
    "details": "this contract use NatSpec for documentation",
    "events": {
      "EntityCreated(uint16,address,uint8,uint32)": {
        "params": {
          "criminalCount": "Number of the criminals created",
          "id": "id of the entity",
          "owner": "The add of the contract owner",
          "sensitivity": "Sensitivity of the criminal created"
        }
      }
    },
    "kind": "dev",
    "methods": {
      "constructor": {
        "details": "Set the contract deployer as sender"
      },
      "createEntity(string,uint16,uint56,uint8)": {
        "details": "Adds a new entity to the criminalData mapping and emit a EntityCreated update the cnicToId mapping and also push the current id to the criminlIds array",
        "params": {
          "_cnic": "Cnic of the entity",
          "_id": "ID of the entity",
          "_name": "The name of the entity",
          "sensitivity": "Sensitivity of the entity"
        }
      },
      "deleteEntity(uint56)": {
        "details": "it first retrieve the corresponding id of the given cnic then iterates onn the whole criminalData mapping and delete the id specified id entity",
        "params": {
          "_cnic": "The cnic of the entity to be deleted"
        }
      },
      "getAllCriminals()": {
        "details": "Loops through the criminalIds array and retrieves only the non-deleted entities",
        "returns": {
          "_0": "allCriminals returns an array of all the active entities"
        }
      },
      "getEntity(uint56)": {
        "details": "It search for the criminal data in the criminalData mapping if find returns the enttity else return \"\"",
        "params": {
          "_cnic": "Cnic of the entity"
        },
        "returns": {
          "_0": "criminalData Criminlal entity"
        }
      }
    },
    "stateVariables": {
      "criminalIds": {
        "details": "Arrays that will add in unsequential access to the criminals"
      }
    },
    "title": "Criminal Data Sender Contract",
    "version": 1
  },
  "userdoc": {
    "events": {
      "EntityCreated(uint16,address,uint8,uint32)": {
        "notice": "Event emited when a new entity is created"
      },
      "EntityDeleted(uint56)": {
        "notice": "Event emitted on Entity deletion"
      }
    },
    "kind": "user",
    "methods": {
      "cnicToID(uint56)": {
        "notice": "mapping from Cnic to id"
      },
      "constructor": {
        "notice": "Constructor to set the owner of the contract"
      },
      "createEntity(string,uint16,uint56,uint8)": {
        "notice": "Function to create a new entity"
      },
      "criminalCount()": {
        "notice": "state variable to hold the criminal count"
      },
      "criminalData(uint56)": {
        "notice": "mapping to hold the instance of the criminal"
      },
      "criminalIds(uint256)": {
        "notice": "Array to hold the criminal Ids"
      },
      "deleteEntity(uint56)": {
        "notice": "This function is used to deleted an entity"
      },
      "getAllCriminals()": {
        "notice": "This is used to retrieve all the active entities stored in the mapping"
      },
      "getEntity(uint56)": {
        "notice": "Function to return the entity data (can only be called by the owner)"
      },
      "owner()": {
        "notice": "Address of the contract owner"
      }
    },
    "notice": "this contract allow for creation , retrieval and deletion of the criminal data entries",
    "version": 1
  }
}