{
  "contractName": "CriminalDataSender",
  "abi": [
    {
      "inputs": [],
      "name": "DataCount",
      "outputs": [
        {
          "internalType": "uint256",
          "name": "",
          "type": "uint256"
        }
      ],
      "stateMutability": "view",
      "type": "function"
    }
  ],
  "bytecode": "0x6080604052600a600055348015601457600080fd5b50607d806100236000396000f3fe6080604052348015600f57600080fd5b506004361060285760003560e01c806330e6e05c14602d575b600080fd5b603560005481565b60405190815260200160405180910390f3fea2646970667358221220f03e0bcb77b8e73037f58ea1cab8d11c477d18f57f1a7a45eb2030505d7138bd64736f6c63430008080033",
  "immutableReferences": {},
  "source": "// SPDX-License-Identifier: MIT \npragma solidity ^0.8.8;\ncontract CriminalDataSender{\n    uint public DataCount = 10 ;\n    struct Criminal_Entity{\n        uint id;\n        string name;\n uint cnic;\n    \n    }\n}",
  "sourcePath": "/home/rogue/Desktop/FYP/THE-FYP/Block-Chain/contracts/CriminalDataSender.sol",
  "compiler": {
    "name": "solc",
    "version": "0.8.8+commit.dddeac2f.Emscripten.clang"
  },
  "schemaVersion": "3.4.16",
  "updatedAt": "2024-03-06T04:37:15.610Z",
  "devdoc": {
    "kind": "dev",
    "methods": {},
    "version": 1
  },
  "userdoc": {
    "kind": "user",
    "methods": {},
    "version": 1
  }
}