{
  "contractName": "TodoList",
  "abi": [
    {
      "inputs": [],
      "payable": false,
      "stateMutability": "nonpayable",
      "type": "constructor"
    },
    {
      "constant": true,
      "inputs": [
        {
          "internalType": "uint256",
          "name": "",
          "type": "uint256"
        }
      ],
      "name": "task",
      "outputs": [
        {
          "internalType": "uint256",
          "name": "id",
          "type": "uint256"
        },
        {
          "internalType": "string",
          "name": "content",
          "type": "string"
        },
        {
          "internalType": "bool",
          "name": "completed",
          "type": "bool"
        }
      ],
      "payable": false,
      "stateMutability": "view",
      "type": "function"
    },
    {
      "constant": false,
      "inputs": [
        {
          "internalType": "string",
          "name": "_content",
          "type": "string"
        }
      ],
      "name": "createTask",
      "outputs": [],
      "payable": false,
      "stateMutability": "nonpayable",
      "type": "function"
    }
  ],
  "bytecode": "0x60806040526000805534801561001457600080fd5b5060408051808201909152600f81526e746869732069732068757a6169666160881b602082015261004d906001600160e01b0361005216565b610159565b600080546001908101808355604080516060810182528281526020808201878152828401879052938652848152919094208451815591518051929361009f939085019291909101906100be565b50604091909101516002909101805460ff191691151591909117905550565b828054600181600116156101000203166002900490600052602060002090601f016020900481019282601f106100ff57805160ff191683800117855561012c565b8280016001018555821561012c579182015b8281111561012c578251825591602001919060010190610111565b5061013892915061013c565b5090565b61015691905b808211156101385760008155600101610142565b90565b610375806101686000396000f3fe608060405234801561001057600080fd5b50600436106100365760003560e01c8063111002aa1461003b57806317751a21146100e3575b600080fd5b6100e16004803603602081101561005157600080fd5b81019060208101813564010000000081111561006c57600080fd5b82018360208201111561007e57600080fd5b803590602001918460018302840111640100000000831117156100a057600080fd5b91908080601f01602080910402602001604051908101604052809392919081815260200183838082843760009201919091525092955061018a945050505050565b005b610100600480360360208110156100f957600080fd5b50356101f6565b604051808481526020018060200183151515158152602001828103825284818151815260200191508051906020019080838360005b8381101561014d578181015183820152602001610135565b50505050905090810190601f16801561017a5780820380516001836020036101000a031916815260200191505b5094505050505060405180910390f35b60008054600190810180835560408051606081018252828152602080820187815282840187905293865284815291909420845181559151805192936101d7939085019291909101906102a5565b50604091909101516002909101805460ff191691151591909117905550565b600160208181526000928352604092839020805481840180548651600296821615610100026000190190911695909504601f810185900485028601850190965285855290949193929091908301828280156102925780601f1061026757610100808354040283529160200191610292565b820191906000526020600020905b81548152906001019060200180831161027557829003601f168201915b5050506002909301549192505060ff1683565b828054600181600116156101000203166002900490600052602060002090601f016020900481019282601f106102e657805160ff1916838001178555610313565b82800160010185558215610313579182015b828111156103135782518255916020019190600101906102f8565b5061031f929150610323565b5090565b61033d91905b8082111561031f5760008155600101610329565b9056fea265627a7a7231582058b144c8eb7196b8eb392cab4673e0cc1668227a637f2f7debe1692e9df8e68264736f6c63430005100032",
  "source": "// SPDX-License-Identifier: MIT\npragma solidity ^0.5.16;\n\ncontract TodoList {\n    uint taskCount = 0;\n    struct Task {\n        uint id;\n        string content;\n        bool completed;\n    }\n    mapping(uint => Task) public task; //this is used to map the each task with its count the unit take the count of the task and map it to the task which is a structue having ID ,CONTENT and a boolen tag which specify that weather the task is compleated or not ..\n//in simple maping is used to map two variable (key_value pairs)  \n    constructor() public {\n        createTask(\"this is huzaifa\");\n    }\n\n    function createTask(string memory _content) public {\n        taskCount++;\n        task[taskCount] = Task(taskCount, _content, false);\n    }\n}\n// Storage: This is the most permanent storage location and is used for state variables. State variables are stored on the Ethereum blockchain and retain their values across function calls and transactions. They are used to represent the persistent state of a smart contract.\n\n// Memory: This storage location is temporary and used for function arguments and variables within function scope. Memory is used for data that should not persist beyond the execution of the function. It's often used for parameters and variables within the function.\n\n// Stack: The stack is used for small, local variables. It's the least used storage location and is primarily for very short-term data storage. It's not typically used in the context of data passed between external function calls.\n",
  "sourcePath": "/home/rogue/Desktop/FYP/Eth-todo-list/contracts/TodoList.sol",
  "compiler": {
    "name": "solc",
    "version": "0.5.16+commit.9c3226ce.Emscripten.clang"
  },
  "schemaVersion": "3.4.16",
  "updatedAt": "2024-01-25T17:07:29.771Z",
  "networkType": "ethereum",
  "devdoc": {
    "methods": {}
  },
  "userdoc": {
    "methods": {}
  }
}